{"contracts/ArbitrageBot.sol":{"ArbitrageBot":{"abi":[{"inputs":[],"stateMutability":"nonpayable","type":"constructor"},{"anonymous":false,"inputs":[{"indexed":true,"internalType":"address","name":"token0","type":"address"},{"indexed":true,"internalType":"address","name":"token1","type":"address"},{"indexed":false,"internalType":"uint256","name":"amountToken0","type":"uint256"},{"indexed":false,"internalType":"uint256","name":"amountToken1","type":"uint256"}],"name":"ArbitrageExecuted","type":"event"},{"anonymous":false,"inputs":[{"indexed":true,"internalType":"address","name":"token","type":"address"},{"indexed":false,"internalType":"uint256","name":"amount","type":"uint256"}],"name":"FlashLoanInitiated","type":"event"},{"anonymous":false,"inputs":[{"indexed":true,"internalType":"address","name":"token","type":"address"},{"indexed":false,"internalType":"uint256","name":"amount","type":"uint256"}],"name":"LoanRepaid","type":"event"},{"anonymous":false,"inputs":[{"indexed":true,"internalType":"address","name":"token","type":"address"},{"indexed":false,"internalType":"uint256","name":"profit","type":"uint256"}],"name":"Profit","type":"event"},{"anonymous":false,"inputs":[{"indexed":true,"internalType":"address","name":"platform","type":"address"},{"indexed":true,"internalType":"address","name":"tokenIn","type":"address"},{"indexed":true,"internalType":"address","name":"tokenOut","type":"address"},{"indexed":false,"internalType":"uint256","name":"amountIn","type":"uint256"},{"indexed":false,"internalType":"uint256","name":"amountOut","type":"uint256"}],"name":"SwapExecuted","type":"event"},{"inputs":[],"name":"balancerVault","outputs":[{"internalType":"contract IVault","name":"","type":"address"}],"stateMutability":"view","type":"function"},{"inputs":[],"name":"initiateArbitrage","outputs":[],"stateMutability":"nonpayable","type":"function"},{"inputs":[],"name":"quoter","outputs":[{"internalType":"contract IQuoter","name":"","type":"address"}],"stateMutability":"view","type":"function"},{"inputs":[{"internalType":"contract IERC20[]","name":"tokens","type":"address[]"},{"internalType":"uint256[]","name":"amounts","type":"uint256[]"},{"internalType":"uint256[]","name":"feeAmounts","type":"uint256[]"},{"internalType":"bytes","name":"userData","type":"bytes"}],"name":"receiveFlashLoan","outputs":[],"stateMutability":"nonpayable","type":"function"},{"inputs":[],"name":"sushiswapRouter","outputs":[{"internalType":"contract IUniswapV2Router02","name":"","type":"address"}],"stateMutability":"view","type":"function"},{"inputs":[],"name":"uniswapV2Router","outputs":[{"internalType":"contract IUniswapV2Router02","name":"","type":"address"}],"stateMutability":"view","type":"function"},{"inputs":[],"name":"uniswapV3Router","outputs":[{"internalType":"contract ISwapRouter","name":"","type":"address"}],"stateMutability":"view","type":"function"}],"evm":{"bytecode":{"linkReferences":{},"object":"60a060405234801561001057600080fd5b5073ba12222222228d8ba445958a75a0704d566bf2c86000806101000a81548173ffffffffffffffffffffffffffffffffffffffff021916908373ffffffffffffffffffffffffffffffffffffffff16021790555073e592427a0aece92de3edee1f18e0157c0586156473ffffffffffffffffffffffffffffffffffffffff1660808173ffffffffffffffffffffffffffffffffffffffff1681525050737a250d5630b4cf539739df2c5dacb4c659f2488d600160006101000a81548173ffffffffffffffffffffffffffffffffffffffff021916908373ffffffffffffffffffffffffffffffffffffffff160217905550731b02da8cb0d097eb8d57a175b88c7d8b47997506600260006101000a81548173ffffffffffffffffffffffffffffffffffffffff021916908373ffffffffffffffffffffffffffffffffffffffff16021790555073b27308f9f90d607463bb33ea1bebb41c27ce5ab6600360006101000a81548173ffffffffffffffffffffffffffffffffffffffff021916908373ffffffffffffffffffffffffffffffffffffffff16021790555060805161262d6101dc6000396000818161018a01528181610bde01528181610e750152610f08015261262d6000f3fe608060405234801561001057600080fd5b506004361061007d5760003560e01c8063570999851161005b57806357099985146100dc578063c6bbd5a7146100e6578063e9240c2d14610104578063f04f2707146101225761007d565b8063158274a5146100825780631694505e146100a05780632c76d7a6146100be575b600080fd5b61008a61013e565b6040516100979190611572565b60405180910390f35b6100a8610162565b6040516100b591906115ae565b60405180910390f35b6100c6610188565b6040516100d391906115ea565b60405180910390f35b6100e46101ac565b005b6100ee610478565b6040516100fb9190611626565b60405180910390f35b61010c61049e565b60405161011991906115ae565b60405180910390f35b61013c600480360381019061013791906119ac565b6104c4565b005b60008054906101000a900473ffffffffffffffffffffffffffffffffffffffff1681565b600160009054906101000a900473ffffffffffffffffffffffffffffffffffffffff1681565b7f000000000000000000000000000000000000000000000000000000000000000081565b6000600167ffffffffffffffff8111156101c9576101c861166b565b5b6040519080825280602002602001820160405280156101f75781602001602082028036833780820191505090505b5090506000600167ffffffffffffffff8111156102175761021661166b565b5b6040519080825280602002602001820160405280156102455781602001602082028036833780820191505090505b5090507382af49447d8a07e3bd95bd0d56f35241523fbab18260008151811061027157610270611a83565b5b602002602001019073ffffffffffffffffffffffffffffffffffffffff16908173ffffffffffffffffffffffffffffffffffffffff1681525050612710816000815181106102c2576102c1611a83565b5b6020026020010181815250508051825114610312576040517f08c379a000000000000000000000000000000000000000000000000000000000815260040161030990611b35565b60405180910390fd5b8160008151811061032657610325611a83565b5b602002602001015173ffffffffffffffffffffffffffffffffffffffff167f591ad3206c771ad9f89e5fce3ba3fd39fe164da7093471fce70eaf468c495f3c8260008151811061037957610378611a83565b5b602002602001015160405161038e9190611b64565b60405180910390a260008054906101000a900473ffffffffffffffffffffffffffffffffffffffff1673ffffffffffffffffffffffffffffffffffffffff16635c38449e3084847382af49447d8a07e3bd95bd0d56f35241523fbab173da10009cbd5d07dd0cecc66161fc93d7c9000da16101f460405160200161041493929190611bd7565b6040516020818303038152906040526040518563ffffffff1660e01b81526004016104429493929190611e45565b600060405180830381600087803b15801561045c57600080fd5b505af1158015610470573d6000803e3d6000fd5b505050505050565b600360009054906101000a900473ffffffffffffffffffffffffffffffffffffffff1681565b600260009054906101000a900473ffffffffffffffffffffffffffffffffffffffff1681565b60008054906101000a900473ffffffffffffffffffffffffffffffffffffffff1673ffffffffffffffffffffffffffffffffffffffff163373ffffffffffffffffffffffffffffffffffffffff1614610552576040517f08c379a000000000000000000000000000000000000000000000000000000000815260040161054990611f11565b60405180910390fd5b60008460008151811061056857610567611a83565b5b6020026020010151905060008460008151811061058857610587611a83565b5b602002602001015190506000806000858060200190518101906105ab9190611faa565b9250925092506105ef6040518060400160405280600b81526020017f6265666f72652073776170000000000000000000000000000000000000000000815250610a82565b6106356040518060400160405280600b81526020017f436865636b203a20256420000000000000000000000000000000000000000000815250848362ffffff1687610b1b565b60008061064485858589610bbd565b915091506106866040518060400160405280600a81526020017f6166746572207377617000000000000000000000000000000000000000000000815250610a82565b6000610693858784611000565b90506106d46040518060400160405280601481526020017f53656c6c206f6e20537573686920537761703a2000000000000000000000000081525082611407565b61079b6040518060400160405280600d81526020017f42616c616e6365206f66203a20000000000000000000000000000000000000008152508773ffffffffffffffffffffffffffffffffffffffff166370a08231306040518263ffffffff1660e01b81526004016107469190611ffd565b60206040518083038186803b15801561075e57600080fd5b505afa158015610772573d6000803e3d6000fd5b505050506040513d601f19601f82011682018060405250810190610796919061202d565b611407565b60008a6000815181106107b1576107b0611a83565b5b6020026020010151886107c49190612089565b90508873ffffffffffffffffffffffffffffffffffffffff1663a9059cbb60008054906101000a900473ffffffffffffffffffffffffffffffffffffffff16836040518363ffffffff1660e01b81526004016108219291906120df565b602060405180830381600087803b15801561083b57600080fd5b505af115801561084f573d6000803e3d6000fd5b505050506040513d601f19601f820116820180604052508101906108739190612140565b508873ffffffffffffffffffffffffffffffffffffffff167fc200a1f31dd659e356e0f112c82558e25f49f7b0f84438691cd96f5cb3558823826040516108ba9190611b64565b60405180910390a26109006040518060400160405280600b81526020017f4c6f616e20526570616964000000000000000000000000000000000000000000815250610a82565b6000818361090e919061216d565b90506000811115610a34578773ffffffffffffffffffffffffffffffffffffffff1663a9059cbb33836040518363ffffffff1660e01b81526004016109549291906120df565b602060405180830381600087803b15801561096e57600080fd5b505af1158015610982573d6000803e3d6000fd5b505050506040513d601f19601f820116820180604052508101906109a69190612140565b508773ffffffffffffffffffffffffffffffffffffffff167f5314098314219d6e1ce8e41fc5e6ec1ce2f06a9d583079fb6619af9bf6efdf41826040516109ed9190611b64565b60405180910390a2610a336040518060400160405280600781526020017f50726f6669742000000000000000000000000000000000000000000000000000815250610a82565b5b610a726040518060400160405280600e81526020017f576974686f75742050726f666974000000000000000000000000000000000000815250610a82565b5050505050505050505050505050565b610b1881604051602401610a9691906121e5565b6040516020818303038152906040527f41304fac000000000000000000000000000000000000000000000000000000007bffffffffffffffffffffffffffffffffffffffffffffffffffffffff19166020820180517bffffffffffffffffffffffffffffffffffffffffffffffffffffffff83818316178352505050506114a3565b50565b610bb784848484604051602401610b359493929190612207565b6040516020818303038152906040527ff8f51b1e000000000000000000000000000000000000000000000000000000007bffffffffffffffffffffffffffffffffffffffffffffffffffffffff19166020820180517bffffffffffffffffffffffffffffffffffffffffffffffffffffffff83818316178352505050506114a3565b50505050565b6000808573ffffffffffffffffffffffffffffffffffffffff1663095ea7b37f0000000000000000000000000000000000000000000000000000000000000000856040518363ffffffff1660e01b8152600401610c1b9291906120df565b602060405180830381600087803b158015610c3557600080fd5b505af1158015610c49573d6000803e3d6000fd5b505050506040513d601f19601f82011682018060405250810190610c6d9190612140565b5060006040518061010001604052808873ffffffffffffffffffffffffffffffffffffffff1681526020018773ffffffffffffffffffffffffffffffffffffffff1681526020018662ffffff1681526020013073ffffffffffffffffffffffffffffffffffffffff16815260200161025842610ce99190612089565b815260200185815260200160018152602001600073ffffffffffffffffffffffffffffffffffffffff168152509050610d566040518060400160405280601481526020017f496e7369646520746865207633206d6574686f64000000000000000000000000815250610a82565b610e1d6040518060400160405280600d81526020017f42616c616e6365206f66203a20000000000000000000000000000000000000008152508873ffffffffffffffffffffffffffffffffffffffff166370a08231306040518263ffffffff1660e01b8152600401610dc89190611ffd565b60206040518083038186803b158015610de057600080fd5b505afa158015610df4573d6000803e3d6000fd5b505050506040513d601f19601f82011682018060405250810190610e18919061202d565b611407565b610f066040518060400160405280600c81526020017f416c6c6f77616e6365203a2000000000000000000000000000000000000000008152508873ffffffffffffffffffffffffffffffffffffffff1663dd62ed3e307f00000000000000000000000000000000000000000000000000000000000000006040518363ffffffff1660e01b8152600401610eb1929190612253565b60206040518083038186803b158015610ec957600080fd5b505afa158015610edd573d6000803e3d6000fd5b505050506040513d601f19601f82011682018060405250810190610f01919061202d565b611407565b7f000000000000000000000000000000000000000000000000000000000000000073ffffffffffffffffffffffffffffffffffffffff1663414bf389826040518263ffffffff1660e01b8152600401610f5f919061234b565b602060405180830381600087803b158015610f7957600080fd5b505af1158015610f8d573d6000803e3d6000fd5b505050506040513d601f19601f82011682018060405250810190610fb1919061202d565b9150610ff26040518060400160405280600f81526020017f416674657220763320737761703a20000000000000000000000000000000000081525083611407565b600192505094509492505050565b60008373ffffffffffffffffffffffffffffffffffffffff1663095ea7b3600260009054906101000a900473ffffffffffffffffffffffffffffffffffffffff16846040518363ffffffff1660e01b815260040161105f9291906120df565b602060405180830381600087803b15801561107957600080fd5b505af115801561108d573d6000803e3d6000fd5b505050506040513d601f19601f820116820180604052508101906110b19190612140565b506000600267ffffffffffffffff8111156110cf576110ce61166b565b5b6040519080825280602002602001820160405280156110fd5781602001602082028036833780820191505090505b509050848160008151811061111557611114611a83565b5b602002602001019073ffffffffffffffffffffffffffffffffffffffff16908173ffffffffffffffffffffffffffffffffffffffff1681525050838160018151811061116457611163611a83565b5b602002602001019073ffffffffffffffffffffffffffffffffffffffff16908173ffffffffffffffffffffffffffffffffffffffff16815250506000600260009054906101000a900473ffffffffffffffffffffffffffffffffffffffff1673ffffffffffffffffffffffffffffffffffffffff1663d06ca61f85846040518363ffffffff1660e01b81526004016111fd929190612405565b60006040518083038186803b15801561121557600080fd5b505afa158015611229573d6000803e3d6000fd5b505050506040513d6000823e3d601f19601f8201168201806040525081019061125291906124cc565b905060008160018151811061126a57611269611a83565b5b602002602001015190506000600260009054906101000a900473ffffffffffffffffffffffffffffffffffffffff1673ffffffffffffffffffffffffffffffffffffffff166338ed173987848730426040518663ffffffff1660e01b81526004016112d9959493929190612515565b600060405180830381600087803b1580156112f357600080fd5b505af1158015611307573d6000803e3d6000fd5b505050506040513d6000823e3d601f19601f8201168201806040525081019061133091906124cc565b90508060018251611341919061216d565b8151811061135257611351611a83565b5b602002602001015194508673ffffffffffffffffffffffffffffffffffffffff168873ffffffffffffffffffffffffffffffffffffffff16600260009054906101000a900473ffffffffffffffffffffffffffffffffffffffff1673ffffffffffffffffffffffffffffffffffffffff167f764f0dc063c06f32d89a3f3af80c0db4be8a090901f589a478b447e0a51f09f189896040516113f492919061256f565b60405180910390a4505050509392505050565b61149f828260405160240161141d929190612598565b6040516020818303038152906040527fb60e72cc000000000000000000000000000000000000000000000000000000007bffffffffffffffffffffffffffffffffffffffffffffffffffffffff19166020820180517bffffffffffffffffffffffffffffffffffffffffffffffffffffffff83818316178352505050506114a3565b5050565b6114ba816114b26114bd6114de565b63ffffffff16565b50565b60006a636f6e736f6c652e6c6f679050600080835160208501845afa505050565b6114e9819050919050565b6114f16125c8565b565b600073ffffffffffffffffffffffffffffffffffffffff82169050919050565b6000819050919050565b600061153861153361152e846114f3565b611513565b6114f3565b9050919050565b600061154a8261151d565b9050919050565b600061155c8261153f565b9050919050565b61156c81611551565b82525050565b60006020820190506115876000830184611563565b92915050565b60006115988261153f565b9050919050565b6115a88161158d565b82525050565b60006020820190506115c3600083018461159f565b92915050565b60006115d48261153f565b9050919050565b6115e4816115c9565b82525050565b60006020820190506115ff60008301846115db565b92915050565b60006116108261153f565b9050919050565b61162081611605565b82525050565b600060208201905061163b6000830184611617565b92915050565b6000604051905090565b600080fd5b600080fd5b600080fd5b6000601f19601f8301169050919050565b7f4e487b7100000000000000000000000000000000000000000000000000000000600052604160045260246000fd5b6116a38261165a565b810181811067ffffffffffffffff821117156116c2576116c161166b565b5b80604052505050565b60006116d5611641565b90506116e1828261169a565b919050565b600067ffffffffffffffff8211156117015761170061166b565b5b602082029050602081019050919050565b600080fd5b6000611722826114f3565b9050919050565b600061173482611717565b9050919050565b61174481611729565b811461174f57600080fd5b50565b6000813590506117618161173b565b92915050565b600061177a611775846116e6565b6116cb565b9050808382526020820190506020840283018581111561179d5761179c611712565b5b835b818110156117c657806117b28882611752565b84526020840193505060208101905061179f565b5050509392505050565b600082601f8301126117e5576117e4611655565b5b81356117f5848260208601611767565b91505092915050565b600067ffffffffffffffff8211156118195761181861166b565b5b602082029050602081019050919050565b6000819050919050565b61183d8161182a565b811461184857600080fd5b50565b60008135905061185a81611834565b92915050565b600061187361186e846117fe565b6116cb565b9050808382526020820190506020840283018581111561189657611895611712565b5b835b818110156118bf57806118ab888261184b565b845260208401935050602081019050611898565b5050509392505050565b600082601f8301126118de576118dd611655565b5b81356118ee848260208601611860565b91505092915050565b600080fd5b600067ffffffffffffffff8211156119175761191661166b565b5b6119208261165a565b9050602081019050919050565b82818337600083830152505050565b600061194f61194a846118fc565b6116cb565b90508281526020810184848401111561196b5761196a6118f7565b5b61197684828561192d565b509392505050565b600082601f83011261199357611992611655565b5b81356119a384826020860161193c565b91505092915050565b600080600080608085870312156119c6576119c561164b565b5b600085013567ffffffffffffffff8111156119e4576119e3611650565b5b6119f0878288016117d0565b945050602085013567ffffffffffffffff811115611a1157611a10611650565b5b611a1d878288016118c9565b935050604085013567ffffffffffffffff811115611a3e57611a3d611650565b5b611a4a878288016118c9565b925050606085013567ffffffffffffffff811115611a6b57611a6a611650565b5b611a778782880161197e565b91505092959194509250565b7f4e487b7100000000000000000000000000000000000000000000000000000000600052603260045260246000fd5b600082825260208201905092915050565b7f546f6b656e7320616e6420616d6f756e74732061727261792073697a65206d6960008201527f736d617463680000000000000000000000000000000000000000000000000000602082015250565b6000611b1f602683611ab2565b9150611b2a82611ac3565b604082019050919050565b60006020820190508181036000830152611b4e81611b12565b9050919050565b611b5e8161182a565b82525050565b6000602082019050611b796000830184611b55565b92915050565b611b8881611717565b82525050565b6000819050919050565b600061ffff82169050919050565b6000611bc1611bbc611bb784611b8e565b611513565b611b98565b9050919050565b611bd181611ba6565b82525050565b6000606082019050611bec6000830186611b7f565b611bf96020830185611b7f565b611c066040830184611bc8565b949350505050565b6000611c198261153f565b9050919050565b611c2981611c0e565b82525050565b600081519050919050565b600082825260208201905092915050565b6000819050602082019050919050565b6000611c668261153f565b9050919050565b611c7681611c5b565b82525050565b6000611c888383611c6d565b60208301905092915050565b6000602082019050919050565b6000611cac82611c2f565b611cb68185611c3a565b9350611cc183611c4b565b8060005b83811015611cf2578151611cd98882611c7c565b9750611ce483611c94565b925050600181019050611cc5565b5085935050505092915050565b600081519050919050565b600082825260208201905092915050565b6000819050602082019050919050565b611d348161182a565b82525050565b6000611d468383611d2b565b60208301905092915050565b6000602082019050919050565b6000611d6a82611cff565b611d748185611d0a565b9350611d7f83611d1b565b8060005b83811015611db0578151611d978882611d3a565b9750611da283611d52565b925050600181019050611d83565b5085935050505092915050565b600081519050919050565b600082825260208201905092915050565b60005b83811015611df7578082015181840152602081019050611ddc565b83811115611e06576000848401525b50505050565b6000611e1782611dbd565b611e218185611dc8565b9350611e31818560208601611dd9565b611e3a8161165a565b840191505092915050565b6000608082019050611e5a6000830187611c20565b8181036020830152611e6c8186611ca1565b90508181036040830152611e808185611d5f565b90508181036060830152611e948184611e0c565b905095945050505050565b7f43616c6c6261636b2066726f6d20756e617574686f72697a656420736f75726360008201527f6500000000000000000000000000000000000000000000000000000000000000602082015250565b6000611efb602183611ab2565b9150611f0682611e9f565b604082019050919050565b60006020820190508181036000830152611f2a81611eee565b9050919050565b6000611f3c826114f3565b9050919050565b611f4c81611f31565b8114611f5757600080fd5b50565b600081519050611f6981611f43565b92915050565b600062ffffff82169050919050565b611f8781611f6f565b8114611f9257600080fd5b50565b600081519050611fa481611f7e565b92915050565b600080600060608486031215611fc357611fc261164b565b5b6000611fd186828701611f5a565b9350506020611fe286828701611f5a565b9250506040611ff386828701611f95565b9150509250925092565b60006020820190506120126000830184611b7f565b92915050565b60008151905061202781611834565b92915050565b6000602082840312156120435761204261164b565b5b600061205184828501612018565b91505092915050565b7f4e487b7100000000000000000000000000000000000000000000000000000000600052601160045260246000fd5b60006120948261182a565b915061209f8361182a565b9250827fffffffffffffffffffffffffffffffffffffffffffffffffffffffffffffffff038211156120d4576120d361205a565b5b828201905092915050565b60006040820190506120f46000830185611b7f565b6121016020830184611b55565b9392505050565b60008115159050919050565b61211d81612108565b811461212857600080fd5b50565b60008151905061213a81612114565b92915050565b6000602082840312156121565761215561164b565b5b60006121648482850161212b565b91505092915050565b60006121788261182a565b91506121838361182a565b9250828210156121965761219561205a565b5b828203905092915050565b600081519050919050565b60006121b7826121a1565b6121c18185611ab2565b93506121d1818560208601611dd9565b6121da8161165a565b840191505092915050565b600060208201905081810360008301526121ff81846121ac565b905092915050565b6000608082019050818103600083015261222181876121ac565b90506122306020830186611b7f565b61223d6040830185611b55565b61224a6060830184611b55565b95945050505050565b60006040820190506122686000830185611b7f565b6122756020830184611b7f565b9392505050565b61228581611717565b82525050565b61229481611f6f565b82525050565b6122a3816114f3565b82525050565b610100820160008201516122c0600085018261227c565b5060208201516122d3602085018261227c565b5060408201516122e6604085018261228b565b5060608201516122f9606085018261227c565b50608082015161230c6080850182611d2b565b5060a082015161231f60a0850182611d2b565b5060c082015161233260c0850182611d2b565b5060e082015161234560e085018261229a565b50505050565b60006101008201905061236160008301846122a9565b92915050565b600081519050919050565b6000819050602082019050919050565b600061238e838361227c565b60208301905092915050565b6000602082019050919050565b60006123b282612367565b6123bc8185611c3a565b93506123c783612372565b8060005b838110156123f85781516123df8882612382565b97506123ea8361239a565b9250506001810190506123cb565b5085935050505092915050565b600060408201905061241a6000830185611b55565b818103602083015261242c81846123a7565b90509392505050565b6000612448612443846117fe565b6116cb565b9050808382526020820190506020840283018581111561246b5761246a611712565b5b835b8181101561249457806124808882612018565b84526020840193505060208101905061246d565b5050509392505050565b600082601f8301126124b3576124b2611655565b5b81516124c3848260208601612435565b91505092915050565b6000602082840312156124e2576124e161164b565b5b600082015167ffffffffffffffff811115612500576124ff611650565b5b61250c8482850161249e565b91505092915050565b600060a08201905061252a6000830188611b55565b6125376020830187611b55565b818103604083015261254981866123a7565b90506125586060830185611b7f565b6125656080830184611b55565b9695505050505050565b60006040820190506125846000830185611b55565b6125916020830184611b55565b9392505050565b600060408201905081810360008301526125b281856121ac565b90506125c16020830184611b55565b9392505050565b7f4e487b7100000000000000000000000000000000000000000000000000000000600052605160045260246000fdfea2646970667358221220a5c6f81e15fddc49f84a0a35829460184f065420d343b0088be003b59ce0e8e364736f6c63430008090033","opcodes":"PUSH1 0xA0 PUSH1 0x40 MSTORE CALLVALUE DUP1 ISZERO PUSH2 0x10 JUMPI PUSH1 0x0 DUP1 REVERT JUMPDEST POP PUSH20 0xBA12222222228D8BA445958A75A0704D566BF2C8 PUSH1 0x0 DUP1 PUSH2 0x100 EXP DUP2 SLOAD DUP2 PUSH20 0xFFFFFFFFFFFFFFFFFFFFFFFFFFFFFFFFFFFFFFFF MUL NOT AND SWAP1 DUP4 PUSH20 0xFFFFFFFFFFFFFFFFFFFFFFFFFFFFFFFFFFFFFFFF AND MUL OR SWAP1 SSTORE POP PUSH20 0xE592427A0AECE92DE3EDEE1F18E0157C05861564 PUSH20 0xFFFFFFFFFFFFFFFFFFFFFFFFFFFFFFFFFFFFFFFF AND PUSH1 0x80 DUP2 PUSH20 0xFFFFFFFFFFFFFFFFFFFFFFFFFFFFFFFFFFFFFFFF AND DUP2 MSTORE POP POP PUSH20 0x7A250D5630B4CF539739DF2C5DACB4C659F2488D PUSH1 0x1 PUSH1 0x0 PUSH2 0x100 EXP DUP2 SLOAD DUP2 PUSH20 0xFFFFFFFFFFFFFFFFFFFFFFFFFFFFFFFFFFFFFFFF MUL NOT AND SWAP1 DUP4 PUSH20 0xFFFFFFFFFFFFFFFFFFFFFFFFFFFFFFFFFFFFFFFF AND MUL OR SWAP1 SSTORE POP PUSH20 0x1B02DA8CB0D097EB8D57A175B88C7D8B47997506 PUSH1 0x2 PUSH1 0x0 PUSH2 0x100 EXP DUP2 SLOAD DUP2 PUSH20 0xFFFFFFFFFFFFFFFFFFFFFFFFFFFFFFFFFFFFFFFF MUL NOT AND SWAP1 DUP4 PUSH20 0xFFFFFFFFFFFFFFFFFFFFFFFFFFFFFFFFFFFFFFFF AND MUL OR SWAP1 SSTORE POP PUSH20 0xB27308F9F90D607463BB33EA1BEBB41C27CE5AB6 PUSH1 0x3 PUSH1 0x0 PUSH2 0x100 EXP DUP2 SLOAD DUP2 PUSH20 0xFFFFFFFFFFFFFFFFFFFFFFFFFFFFFFFFFFFFFFFF MUL NOT AND SWAP1 DUP4 PUSH20 0xFFFFFFFFFFFFFFFFFFFFFFFFFFFFFFFFFFFFFFFF AND MUL OR SWAP1 SSTORE POP PUSH1 0x80 MLOAD PUSH2 0x262D PUSH2 0x1DC PUSH1 0x0 CODECOPY PUSH1 0x0 DUP2 DUP2 PUSH2 0x18A ADD MSTORE DUP2 DUP2 PUSH2 0xBDE ADD MSTORE DUP2 DUP2 PUSH2 0xE75 ADD MSTORE PUSH2 0xF08 ADD MSTORE PUSH2 0x262D PUSH1 0x0 RETURN INVALID PUSH1 0x80 PUSH1 0x40 MSTORE CALLVALUE DUP1 ISZERO PUSH2 0x10 JUMPI PUSH1 0x0 DUP1 REVERT JUMPDEST POP PUSH1 0x4 CALLDATASIZE LT PUSH2 0x7D JUMPI PUSH1 0x0 CALLDATALOAD PUSH1 0xE0 SHR DUP1 PUSH4 0x57099985 GT PUSH2 0x5B JUMPI DUP1 PUSH4 0x57099985 EQ PUSH2 0xDC JUMPI DUP1 PUSH4 0xC6BBD5A7 EQ PUSH2 0xE6 JUMPI DUP1 PUSH4 0xE9240C2D EQ PUSH2 0x104 JUMPI DUP1 PUSH4 0xF04F2707 EQ PUSH2 0x122 JUMPI PUSH2 0x7D JUMP JUMPDEST DUP1 PUSH4 0x158274A5 EQ PUSH2 0x82 JUMPI DUP1 PUSH4 0x1694505E EQ PUSH2 0xA0 JUMPI DUP1 PUSH4 0x2C76D7A6 EQ PUSH2 0xBE JUMPI JUMPDEST PUSH1 0x0 DUP1 REVERT JUMPDEST PUSH2 0x8A PUSH2 0x13E JUMP JUMPDEST PUSH1 0x40 MLOAD PUSH2 0x97 SWAP2 SWAP1 PUSH2 0x1572 JUMP JUMPDEST PUSH1 0x40 MLOAD DUP1 SWAP2 SUB SWAP1 RETURN JUMPDEST PUSH2 0xA8 PUSH2 0x162 JUMP JUMPDEST PUSH1 0x40 MLOAD PUSH2 0xB5 SWAP2 SWAP1 PUSH2 0x15AE JUMP JUMPDEST PUSH1 0x40 MLOAD DUP1 SWAP2 SUB SWAP1 RETURN JUMPDEST PUSH2 0xC6 PUSH2 0x188 JUMP JUMPDEST PUSH1 0x40 MLOAD PUSH2 0xD3 SWAP2 SWAP1 PUSH2 0x15EA JUMP JUMPDEST PUSH1 0x40 MLOAD DUP1 SWAP2 SUB SWAP1 RETURN JUMPDEST PUSH2 0xE4 PUSH2 0x1AC JUMP JUMPDEST STOP JUMPDEST PUSH2 0xEE PUSH2 0x478 JUMP JUMPDEST PUSH1 0x40 MLOAD PUSH2 0xFB SWAP2 SWAP1 PUSH2 0x1626 JUMP JUMPDEST PUSH1 0x40 MLOAD DUP1 SWAP2 SUB SWAP1 RETURN JUMPDEST PUSH2 0x10C PUSH2 0x49E JUMP JUMPDEST PUSH1 0x40 MLOAD PUSH2 0x119 SWAP2 SWAP1 PUSH2 0x15AE JUMP JUMPDEST PUSH1 0x40 MLOAD DUP1 SWAP2 SUB SWAP1 RETURN JUMPDEST PUSH2 0x13C PUSH1 0x4 DUP1 CALLDATASIZE SUB DUP2 ADD SWAP1 PUSH2 0x137 SWAP2 SWAP1 PUSH2 0x19AC JUMP JUMPDEST PUSH2 0x4C4 JUMP JUMPDEST STOP JUMPDEST PUSH1 0x0 DUP1 SLOAD SWAP1 PUSH2 0x100 EXP SWAP1 DIV PUSH20 0xFFFFFFFFFFFFFFFFFFFFFFFFFFFFFFFFFFFFFFFF AND DUP2 JUMP JUMPDEST PUSH1 0x1 PUSH1 0x0 SWAP1 SLOAD SWAP1 PUSH2 0x100 EXP SWAP1 DIV PUSH20 0xFFFFFFFFFFFFFFFFFFFFFFFFFFFFFFFFFFFFFFFF AND DUP2 JUMP JUMPDEST PUSH32 0x0 DUP2 JUMP JUMPDEST PUSH1 0x0 PUSH1 0x1 PUSH8 0xFFFFFFFFFFFFFFFF DUP2 GT ISZERO PUSH2 0x1C9 JUMPI PUSH2 0x1C8 PUSH2 0x166B JUMP JUMPDEST JUMPDEST PUSH1 0x40 MLOAD SWAP1 DUP1 DUP3 MSTORE DUP1 PUSH1 0x20 MUL PUSH1 0x20 ADD DUP3 ADD PUSH1 0x40 MSTORE DUP1 ISZERO PUSH2 0x1F7 JUMPI DUP2 PUSH1 0x20 ADD PUSH1 0x20 DUP3 MUL DUP1 CALLDATASIZE DUP4 CALLDATACOPY DUP1 DUP3 ADD SWAP2 POP POP SWAP1 POP JUMPDEST POP SWAP1 POP PUSH1 0x0 PUSH1 0x1 PUSH8 0xFFFFFFFFFFFFFFFF DUP2 GT ISZERO PUSH2 0x217 JUMPI PUSH2 0x216 PUSH2 0x166B JUMP JUMPDEST JUMPDEST PUSH1 0x40 MLOAD SWAP1 DUP1 DUP3 MSTORE DUP1 PUSH1 0x20 MUL PUSH1 0x20 ADD DUP3 ADD PUSH1 0x40 MSTORE DUP1 ISZERO PUSH2 0x245 JUMPI DUP2 PUSH1 0x20 ADD PUSH1 0x20 DUP3 MUL DUP1 CALLDATASIZE DUP4 CALLDATACOPY DUP1 DUP3 ADD SWAP2 POP POP SWAP1 POP JUMPDEST POP SWAP1 POP PUSH20 0x82AF49447D8A07E3BD95BD0D56F35241523FBAB1 DUP3 PUSH1 0x0 DUP2 MLOAD DUP2 LT PUSH2 0x271 JUMPI PUSH2 0x270 PUSH2 0x1A83 JUMP JUMPDEST JUMPDEST PUSH1 0x20 MUL PUSH1 0x20 ADD ADD SWAP1 PUSH20 0xFFFFFFFFFFFFFFFFFFFFFFFFFFFFFFFFFFFFFFFF AND SWAP1 DUP2 PUSH20 0xFFFFFFFFFFFFFFFFFFFFFFFFFFFFFFFFFFFFFFFF AND DUP2 MSTORE POP POP PUSH2 0x2710 DUP2 PUSH1 0x0 DUP2 MLOAD DUP2 LT PUSH2 0x2C2 JUMPI PUSH2 0x2C1 PUSH2 0x1A83 JUMP JUMPDEST JUMPDEST PUSH1 0x20 MUL PUSH1 0x20 ADD ADD DUP2 DUP2 MSTORE POP POP DUP1 MLOAD DUP3 MLOAD EQ PUSH2 0x312 JUMPI PUSH1 0x40 MLOAD PUSH32 0x8C379A000000000000000000000000000000000000000000000000000000000 DUP2 MSTORE PUSH1 0x4 ADD PUSH2 0x309 SWAP1 PUSH2 0x1B35 JUMP JUMPDEST PUSH1 0x40 MLOAD DUP1 SWAP2 SUB SWAP1 REVERT JUMPDEST DUP2 PUSH1 0x0 DUP2 MLOAD DUP2 LT PUSH2 0x326 JUMPI PUSH2 0x325 PUSH2 0x1A83 JUMP JUMPDEST JUMPDEST PUSH1 0x20 MUL PUSH1 0x20 ADD ADD MLOAD PUSH20 0xFFFFFFFFFFFFFFFFFFFFFFFFFFFFFFFFFFFFFFFF AND PUSH32 0x591AD3206C771AD9F89E5FCE3BA3FD39FE164DA7093471FCE70EAF468C495F3C DUP3 PUSH1 0x0 DUP2 MLOAD DUP2 LT PUSH2 0x379 JUMPI PUSH2 0x378 PUSH2 0x1A83 JUMP JUMPDEST JUMPDEST PUSH1 0x20 MUL PUSH1 0x20 ADD ADD MLOAD PUSH1 0x40 MLOAD PUSH2 0x38E SWAP2 SWAP1 PUSH2 0x1B64 JUMP JUMPDEST PUSH1 0x40 MLOAD DUP1 SWAP2 SUB SWAP1 LOG2 PUSH1 0x0 DUP1 SLOAD SWAP1 PUSH2 0x100 EXP SWAP1 DIV PUSH20 0xFFFFFFFFFFFFFFFFFFFFFFFFFFFFFFFFFFFFFFFF AND PUSH20 0xFFFFFFFFFFFFFFFFFFFFFFFFFFFFFFFFFFFFFFFF AND PUSH4 0x5C38449E ADDRESS DUP5 DUP5 PUSH20 0x82AF49447D8A07E3BD95BD0D56F35241523FBAB1 PUSH20 0xDA10009CBD5D07DD0CECC66161FC93D7C9000DA1 PUSH2 0x1F4 PUSH1 0x40 MLOAD PUSH1 0x20 ADD PUSH2 0x414 SWAP4 SWAP3 SWAP2 SWAP1 PUSH2 0x1BD7 JUMP JUMPDEST PUSH1 0x40 MLOAD PUSH1 0x20 DUP2 DUP4 SUB SUB DUP2 MSTORE SWAP1 PUSH1 0x40 MSTORE PUSH1 0x40 MLOAD DUP6 PUSH4 0xFFFFFFFF AND PUSH1 0xE0 SHL DUP2 MSTORE PUSH1 0x4 ADD PUSH2 0x442 SWAP5 SWAP4 SWAP3 SWAP2 SWAP1 PUSH2 0x1E45 JUMP JUMPDEST PUSH1 0x0 PUSH1 0x40 MLOAD DUP1 DUP4 SUB DUP2 PUSH1 0x0 DUP8 DUP1 EXTCODESIZE ISZERO DUP1 ISZERO PUSH2 0x45C JUMPI PUSH1 0x0 DUP1 REVERT JUMPDEST POP GAS CALL ISZERO DUP1 ISZERO PUSH2 0x470 JUMPI RETURNDATASIZE PUSH1 0x0 DUP1 RETURNDATACOPY RETURNDATASIZE PUSH1 0x0 REVERT JUMPDEST POP POP POP POP POP POP JUMP JUMPDEST PUSH1 0x3 PUSH1 0x0 SWAP1 SLOAD SWAP1 PUSH2 0x100 EXP SWAP1 DIV PUSH20 0xFFFFFFFFFFFFFFFFFFFFFFFFFFFFFFFFFFFFFFFF AND DUP2 JUMP JUMPDEST PUSH1 0x2 PUSH1 0x0 SWAP1 SLOAD SWAP1 PUSH2 0x100 EXP SWAP1 DIV PUSH20 0xFFFFFFFFFFFFFFFFFFFFFFFFFFFFFFFFFFFFFFFF AND DUP2 JUMP JUMPDEST PUSH1 0x0 DUP1 SLOAD SWAP1 PUSH2 0x100 EXP SWAP1 DIV PUSH20 0xFFFFFFFFFFFFFFFFFFFFFFFFFFFFFFFFFFFFFFFF AND PUSH20 0xFFFFFFFFFFFFFFFFFFFFFFFFFFFFFFFFFFFFFFFF AND CALLER PUSH20 0xFFFFFFFFFFFFFFFFFFFFFFFFFFFFFFFFFFFFFFFF AND EQ PUSH2 0x552 JUMPI PUSH1 0x40 MLOAD PUSH32 0x8C379A000000000000000000000000000000000000000000000000000000000 DUP2 MSTORE PUSH1 0x4 ADD PUSH2 0x549 SWAP1 PUSH2 0x1F11 JUMP JUMPDEST PUSH1 0x40 MLOAD DUP1 SWAP2 SUB SWAP1 REVERT JUMPDEST PUSH1 0x0 DUP5 PUSH1 0x0 DUP2 MLOAD DUP2 LT PUSH2 0x568 JUMPI PUSH2 0x567 PUSH2 0x1A83 JUMP JUMPDEST JUMPDEST PUSH1 0x20 MUL PUSH1 0x20 ADD ADD MLOAD SWAP1 POP PUSH1 0x0 DUP5 PUSH1 0x0 DUP2 MLOAD DUP2 LT PUSH2 0x588 JUMPI PUSH2 0x587 PUSH2 0x1A83 JUMP JUMPDEST JUMPDEST PUSH1 0x20 MUL PUSH1 0x20 ADD ADD MLOAD SWAP1 POP PUSH1 0x0 DUP1 PUSH1 0x0 DUP6 DUP1 PUSH1 0x20 ADD SWAP1 MLOAD DUP2 ADD SWAP1 PUSH2 0x5AB SWAP2 SWAP1 PUSH2 0x1FAA JUMP JUMPDEST SWAP3 POP SWAP3 POP SWAP3 POP PUSH2 0x5EF PUSH1 0x40 MLOAD DUP1 PUSH1 0x40 ADD PUSH1 0x40 MSTORE DUP1 PUSH1 0xB DUP2 MSTORE PUSH1 0x20 ADD PUSH32 0x6265666F72652073776170000000000000000000000000000000000000000000 DUP2 MSTORE POP PUSH2 0xA82 JUMP JUMPDEST PUSH2 0x635 PUSH1 0x40 MLOAD DUP1 PUSH1 0x40 ADD PUSH1 0x40 MSTORE DUP1 PUSH1 0xB DUP2 MSTORE PUSH1 0x20 ADD PUSH32 0x436865636B203A20256420000000000000000000000000000000000000000000 DUP2 MSTORE POP DUP5 DUP4 PUSH3 0xFFFFFF AND DUP8 PUSH2 0xB1B JUMP JUMPDEST PUSH1 0x0 DUP1 PUSH2 0x644 DUP6 DUP6 DUP6 DUP10 PUSH2 0xBBD JUMP JUMPDEST SWAP2 POP SWAP2 POP PUSH2 0x686 PUSH1 0x40 MLOAD DUP1 PUSH1 0x40 ADD PUSH1 0x40 MSTORE DUP1 PUSH1 0xA DUP2 MSTORE PUSH1 0x20 ADD PUSH32 0x6166746572207377617000000000000000000000000000000000000000000000 DUP2 MSTORE POP PUSH2 0xA82 JUMP JUMPDEST PUSH1 0x0 PUSH2 0x693 DUP6 DUP8 DUP5 PUSH2 0x1000 JUMP JUMPDEST SWAP1 POP PUSH2 0x6D4 PUSH1 0x40 MLOAD DUP1 PUSH1 0x40 ADD PUSH1 0x40 MSTORE DUP1 PUSH1 0x14 DUP2 MSTORE PUSH1 0x20 ADD PUSH32 0x53656C6C206F6E20537573686920537761703A20000000000000000000000000 DUP2 MSTORE POP DUP3 PUSH2 0x1407 JUMP JUMPDEST PUSH2 0x79B PUSH1 0x40 MLOAD DUP1 PUSH1 0x40 ADD PUSH1 0x40 MSTORE DUP1 PUSH1 0xD DUP2 MSTORE PUSH1 0x20 ADD PUSH32 0x42616C616E6365206F66203A2000000000000000000000000000000000000000 DUP2 MSTORE POP DUP8 PUSH20 0xFFFFFFFFFFFFFFFFFFFFFFFFFFFFFFFFFFFFFFFF AND PUSH4 0x70A08231 ADDRESS PUSH1 0x40 MLOAD DUP3 PUSH4 0xFFFFFFFF AND PUSH1 0xE0 SHL DUP2 MSTORE PUSH1 0x4 ADD PUSH2 0x746 SWAP2 SWAP1 PUSH2 0x1FFD JUMP JUMPDEST PUSH1 0x20 PUSH1 0x40 MLOAD DUP1 DUP4 SUB DUP2 DUP7 DUP1 EXTCODESIZE ISZERO DUP1 ISZERO PUSH2 0x75E JUMPI PUSH1 0x0 DUP1 REVERT JUMPDEST POP GAS STATICCALL ISZERO DUP1 ISZERO PUSH2 0x772 JUMPI RETURNDATASIZE PUSH1 0x0 DUP1 RETURNDATACOPY RETURNDATASIZE PUSH1 0x0 REVERT JUMPDEST POP POP POP POP PUSH1 0x40 MLOAD RETURNDATASIZE PUSH1 0x1F NOT PUSH1 0x1F DUP3 ADD AND DUP3 ADD DUP1 PUSH1 0x40 MSTORE POP DUP2 ADD SWAP1 PUSH2 0x796 SWAP2 SWAP1 PUSH2 0x202D JUMP JUMPDEST PUSH2 0x1407 JUMP JUMPDEST PUSH1 0x0 DUP11 PUSH1 0x0 DUP2 MLOAD DUP2 LT PUSH2 0x7B1 JUMPI PUSH2 0x7B0 PUSH2 0x1A83 JUMP JUMPDEST JUMPDEST PUSH1 0x20 MUL PUSH1 0x20 ADD ADD MLOAD DUP9 PUSH2 0x7C4 SWAP2 SWAP1 PUSH2 0x2089 JUMP JUMPDEST SWAP1 POP DUP9 PUSH20 0xFFFFFFFFFFFFFFFFFFFFFFFFFFFFFFFFFFFFFFFF AND PUSH4 0xA9059CBB PUSH1 0x0 DUP1 SLOAD SWAP1 PUSH2 0x100 EXP SWAP1 DIV PUSH20 0xFFFFFFFFFFFFFFFFFFFFFFFFFFFFFFFFFFFFFFFF AND DUP4 PUSH1 0x40 MLOAD DUP4 PUSH4 0xFFFFFFFF AND PUSH1 0xE0 SHL DUP2 MSTORE PUSH1 0x4 ADD PUSH2 0x821 SWAP3 SWAP2 SWAP1 PUSH2 0x20DF JUMP JUMPDEST PUSH1 0x20 PUSH1 0x40 MLOAD DUP1 DUP4 SUB DUP2 PUSH1 0x0 DUP8 DUP1 EXTCODESIZE ISZERO DUP1 ISZERO PUSH2 0x83B JUMPI PUSH1 0x0 DUP1 REVERT JUMPDEST POP GAS CALL ISZERO DUP1 ISZERO PUSH2 0x84F JUMPI RETURNDATASIZE PUSH1 0x0 DUP1 RETURNDATACOPY RETURNDATASIZE PUSH1 0x0 REVERT JUMPDEST POP POP POP POP PUSH1 0x40 MLOAD RETURNDATASIZE PUSH1 0x1F NOT PUSH1 0x1F DUP3 ADD AND DUP3 ADD DUP1 PUSH1 0x40 MSTORE POP DUP2 ADD SWAP1 PUSH2 0x873 SWAP2 SWAP1 PUSH2 0x2140 JUMP JUMPDEST POP DUP9 PUSH20 0xFFFFFFFFFFFFFFFFFFFFFFFFFFFFFFFFFFFFFFFF AND PUSH32 0xC200A1F31DD659E356E0F112C82558E25F49F7B0F84438691CD96F5CB3558823 DUP3 PUSH1 0x40 MLOAD PUSH2 0x8BA SWAP2 SWAP1 PUSH2 0x1B64 JUMP JUMPDEST PUSH1 0x40 MLOAD DUP1 SWAP2 SUB SWAP1 LOG2 PUSH2 0x900 PUSH1 0x40 MLOAD DUP1 PUSH1 0x40 ADD PUSH1 0x40 MSTORE DUP1 PUSH1 0xB DUP2 MSTORE PUSH1 0x20 ADD PUSH32 0x4C6F616E20526570616964000000000000000000000000000000000000000000 DUP2 MSTORE POP PUSH2 0xA82 JUMP JUMPDEST PUSH1 0x0 DUP2 DUP4 PUSH2 0x90E SWAP2 SWAP1 PUSH2 0x216D JUMP JUMPDEST SWAP1 POP PUSH1 0x0 DUP2 GT ISZERO PUSH2 0xA34 JUMPI DUP8 PUSH20 0xFFFFFFFFFFFFFFFFFFFFFFFFFFFFFFFFFFFFFFFF AND PUSH4 0xA9059CBB CALLER DUP4 PUSH1 0x40 MLOAD DUP4 PUSH4 0xFFFFFFFF AND PUSH1 0xE0 SHL DUP2 MSTORE PUSH1 0x4 ADD PUSH2 0x954 SWAP3 SWAP2 SWAP1 PUSH2 0x20DF JUMP JUMPDEST PUSH1 0x20 PUSH1 0x40 MLOAD DUP1 DUP4 SUB DUP2 PUSH1 0x0 DUP8 DUP1 EXTCODESIZE ISZERO DUP1 ISZERO PUSH2 0x96E JUMPI PUSH1 0x0 DUP1 REVERT JUMPDEST POP GAS CALL ISZERO DUP1 ISZERO PUSH2 0x982 JUMPI RETURNDATASIZE PUSH1 0x0 DUP1 RETURNDATACOPY RETURNDATASIZE PUSH1 0x0 REVERT JUMPDEST POP POP POP POP PUSH1 0x40 MLOAD RETURNDATASIZE PUSH1 0x1F NOT PUSH1 0x1F DUP3 ADD AND DUP3 ADD DUP1 PUSH1 0x40 MSTORE POP DUP2 ADD SWAP1 PUSH2 0x9A6 SWAP2 SWAP1 PUSH2 0x2140 JUMP JUMPDEST POP DUP8 PUSH20 0xFFFFFFFFFFFFFFFFFFFFFFFFFFFFFFFFFFFFFFFF AND PUSH32 0x5314098314219D6E1CE8E41FC5E6EC1CE2F06A9D583079FB6619AF9BF6EFDF41 DUP3 PUSH1 0x40 MLOAD PUSH2 0x9ED SWAP2 SWAP1 PUSH2 0x1B64 JUMP JUMPDEST PUSH1 0x40 MLOAD DUP1 SWAP2 SUB SWAP1 LOG2 PUSH2 0xA33 PUSH1 0x40 MLOAD DUP1 PUSH1 0x40 ADD PUSH1 0x40 MSTORE DUP1 PUSH1 0x7 DUP2 MSTORE PUSH1 0x20 ADD PUSH32 0x50726F6669742000000000000000000000000000000000000000000000000000 DUP2 MSTORE POP PUSH2 0xA82 JUMP JUMPDEST JUMPDEST PUSH2 0xA72 PUSH1 0x40 MLOAD DUP1 PUSH1 0x40 ADD PUSH1 0x40 MSTORE DUP1 PUSH1 0xE DUP2 MSTORE PUSH1 0x20 ADD PUSH32 0x576974686F75742050726F666974000000000000000000000000000000000000 DUP2 MSTORE POP PUSH2 0xA82 JUMP JUMPDEST POP POP POP POP POP POP POP POP POP POP POP POP POP POP JUMP JUMPDEST PUSH2 0xB18 DUP2 PUSH1 0x40 MLOAD PUSH1 0x24 ADD PUSH2 0xA96 SWAP2 SWAP1 PUSH2 0x21E5 JUMP JUMPDEST PUSH1 0x40 MLOAD PUSH1 0x20 DUP2 DUP4 SUB SUB DUP2 MSTORE SWAP1 PUSH1 0x40 MSTORE PUSH32 0x41304FAC00000000000000000000000000000000000000000000000000000000 PUSH28 0xFFFFFFFFFFFFFFFFFFFFFFFFFFFFFFFFFFFFFFFFFFFFFFFFFFFFFFFF NOT AND PUSH1 0x20 DUP3 ADD DUP1 MLOAD PUSH28 0xFFFFFFFFFFFFFFFFFFFFFFFFFFFFFFFFFFFFFFFFFFFFFFFFFFFFFFFF DUP4 DUP2 DUP4 AND OR DUP4 MSTORE POP POP POP POP PUSH2 0x14A3 JUMP JUMPDEST POP JUMP JUMPDEST PUSH2 0xBB7 DUP5 DUP5 DUP5 DUP5 PUSH1 0x40 MLOAD PUSH1 0x24 ADD PUSH2 0xB35 SWAP5 SWAP4 SWAP3 SWAP2 SWAP1 PUSH2 0x2207 JUMP JUMPDEST PUSH1 0x40 MLOAD PUSH1 0x20 DUP2 DUP4 SUB SUB DUP2 MSTORE SWAP1 PUSH1 0x40 MSTORE PUSH32 0xF8F51B1E00000000000000000000000000000000000000000000000000000000 PUSH28 0xFFFFFFFFFFFFFFFFFFFFFFFFFFFFFFFFFFFFFFFFFFFFFFFFFFFFFFFF NOT AND PUSH1 0x20 DUP3 ADD DUP1 MLOAD PUSH28 0xFFFFFFFFFFFFFFFFFFFFFFFFFFFFFFFFFFFFFFFFFFFFFFFFFFFFFFFF DUP4 DUP2 DUP4 AND OR DUP4 MSTORE POP POP POP POP PUSH2 0x14A3 JUMP JUMPDEST POP POP POP POP JUMP JUMPDEST PUSH1 0x0 DUP1 DUP6 PUSH20 0xFFFFFFFFFFFFFFFFFFFFFFFFFFFFFFFFFFFFFFFF AND PUSH4 0x95EA7B3 PUSH32 0x0 DUP6 PUSH1 0x40 MLOAD DUP4 PUSH4 0xFFFFFFFF AND PUSH1 0xE0 SHL DUP2 MSTORE PUSH1 0x4 ADD PUSH2 0xC1B SWAP3 SWAP2 SWAP1 PUSH2 0x20DF JUMP JUMPDEST PUSH1 0x20 PUSH1 0x40 MLOAD DUP1 DUP4 SUB DUP2 PUSH1 0x0 DUP8 DUP1 EXTCODESIZE ISZERO DUP1 ISZERO PUSH2 0xC35 JUMPI PUSH1 0x0 DUP1 REVERT JUMPDEST POP GAS CALL ISZERO DUP1 ISZERO PUSH2 0xC49 JUMPI RETURNDATASIZE PUSH1 0x0 DUP1 RETURNDATACOPY RETURNDATASIZE PUSH1 0x0 REVERT JUMPDEST POP POP POP POP PUSH1 0x40 MLOAD RETURNDATASIZE PUSH1 0x1F NOT PUSH1 0x1F DUP3 ADD AND DUP3 ADD DUP1 PUSH1 0x40 MSTORE POP DUP2 ADD SWAP1 PUSH2 0xC6D SWAP2 SWAP1 PUSH2 0x2140 JUMP JUMPDEST POP PUSH1 0x0 PUSH1 0x40 MLOAD DUP1 PUSH2 0x100 ADD PUSH1 0x40 MSTORE DUP1 DUP9 PUSH20 0xFFFFFFFFFFFFFFFFFFFFFFFFFFFFFFFFFFFFFFFF AND DUP2 MSTORE PUSH1 0x20 ADD DUP8 PUSH20 0xFFFFFFFFFFFFFFFFFFFFFFFFFFFFFFFFFFFFFFFF AND DUP2 MSTORE PUSH1 0x20 ADD DUP7 PUSH3 0xFFFFFF AND DUP2 MSTORE PUSH1 0x20 ADD ADDRESS PUSH20 0xFFFFFFFFFFFFFFFFFFFFFFFFFFFFFFFFFFFFFFFF AND DUP2 MSTORE PUSH1 0x20 ADD PUSH2 0x258 TIMESTAMP PUSH2 0xCE9 SWAP2 SWAP1 PUSH2 0x2089 JUMP JUMPDEST DUP2 MSTORE PUSH1 0x20 ADD DUP6 DUP2 MSTORE PUSH1 0x20 ADD PUSH1 0x1 DUP2 MSTORE PUSH1 0x20 ADD PUSH1 0x0 PUSH20 0xFFFFFFFFFFFFFFFFFFFFFFFFFFFFFFFFFFFFFFFF AND DUP2 MSTORE POP SWAP1 POP PUSH2 0xD56 PUSH1 0x40 MLOAD DUP1 PUSH1 0x40 ADD PUSH1 0x40 MSTORE DUP1 PUSH1 0x14 DUP2 MSTORE PUSH1 0x20 ADD PUSH32 0x496E7369646520746865207633206D6574686F64000000000000000000000000 DUP2 MSTORE POP PUSH2 0xA82 JUMP JUMPDEST PUSH2 0xE1D PUSH1 0x40 MLOAD DUP1 PUSH1 0x40 ADD PUSH1 0x40 MSTORE DUP1 PUSH1 0xD DUP2 MSTORE PUSH1 0x20 ADD PUSH32 0x42616C616E6365206F66203A2000000000000000000000000000000000000000 DUP2 MSTORE POP DUP9 PUSH20 0xFFFFFFFFFFFFFFFFFFFFFFFFFFFFFFFFFFFFFFFF AND PUSH4 0x70A08231 ADDRESS PUSH1 0x40 MLOAD DUP3 PUSH4 0xFFFFFFFF AND PUSH1 0xE0 SHL DUP2 MSTORE PUSH1 0x4 ADD PUSH2 0xDC8 SWAP2 SWAP1 PUSH2 0x1FFD JUMP JUMPDEST PUSH1 0x20 PUSH1 0x40 MLOAD DUP1 DUP4 SUB DUP2 DUP7 DUP1 EXTCODESIZE ISZERO DUP1 ISZERO PUSH2 0xDE0 JUMPI PUSH1 0x0 DUP1 REVERT JUMPDEST POP GAS STATICCALL ISZERO DUP1 ISZERO PUSH2 0xDF4 JUMPI RETURNDATASIZE PUSH1 0x0 DUP1 RETURNDATACOPY RETURNDATASIZE PUSH1 0x0 REVERT JUMPDEST POP POP POP POP PUSH1 0x40 MLOAD RETURNDATASIZE PUSH1 0x1F NOT PUSH1 0x1F DUP3 ADD AND DUP3 ADD DUP1 PUSH1 0x40 MSTORE POP DUP2 ADD SWAP1 PUSH2 0xE18 SWAP2 SWAP1 PUSH2 0x202D JUMP JUMPDEST PUSH2 0x1407 JUMP JUMPDEST PUSH2 0xF06 PUSH1 0x40 MLOAD DUP1 PUSH1 0x40 ADD PUSH1 0x40 MSTORE DUP1 PUSH1 0xC DUP2 MSTORE PUSH1 0x20 ADD PUSH32 0x416C6C6F77616E6365203A200000000000000000000000000000000000000000 DUP2 MSTORE POP DUP9 PUSH20 0xFFFFFFFFFFFFFFFFFFFFFFFFFFFFFFFFFFFFFFFF AND PUSH4 0xDD62ED3E ADDRESS PUSH32 0x0 PUSH1 0x40 MLOAD DUP4 PUSH4 0xFFFFFFFF AND PUSH1 0xE0 SHL DUP2 MSTORE PUSH1 0x4 ADD PUSH2 0xEB1 SWAP3 SWAP2 SWAP1 PUSH2 0x2253 JUMP JUMPDEST PUSH1 0x20 PUSH1 0x40 MLOAD DUP1 DUP4 SUB DUP2 DUP7 DUP1 EXTCODESIZE ISZERO DUP1 ISZERO PUSH2 0xEC9 JUMPI PUSH1 0x0 DUP1 REVERT JUMPDEST POP GAS STATICCALL ISZERO DUP1 ISZERO PUSH2 0xEDD JUMPI RETURNDATASIZE PUSH1 0x0 DUP1 RETURNDATACOPY RETURNDATASIZE PUSH1 0x0 REVERT JUMPDEST POP POP POP POP PUSH1 0x40 MLOAD RETURNDATASIZE PUSH1 0x1F NOT PUSH1 0x1F DUP3 ADD AND DUP3 ADD DUP1 PUSH1 0x40 MSTORE POP DUP2 ADD SWAP1 PUSH2 0xF01 SWAP2 SWAP1 PUSH2 0x202D JUMP JUMPDEST PUSH2 0x1407 JUMP JUMPDEST PUSH32 0x0 PUSH20 0xFFFFFFFFFFFFFFFFFFFFFFFFFFFFFFFFFFFFFFFF AND PUSH4 0x414BF389 DUP3 PUSH1 0x40 MLOAD DUP3 PUSH4 0xFFFFFFFF AND PUSH1 0xE0 SHL DUP2 MSTORE PUSH1 0x4 ADD PUSH2 0xF5F SWAP2 SWAP1 PUSH2 0x234B JUMP JUMPDEST PUSH1 0x20 PUSH1 0x40 MLOAD DUP1 DUP4 SUB DUP2 PUSH1 0x0 DUP8 DUP1 EXTCODESIZE ISZERO DUP1 ISZERO PUSH2 0xF79 JUMPI PUSH1 0x0 DUP1 REVERT JUMPDEST POP GAS CALL ISZERO DUP1 ISZERO PUSH2 0xF8D JUMPI RETURNDATASIZE PUSH1 0x0 DUP1 RETURNDATACOPY RETURNDATASIZE PUSH1 0x0 REVERT JUMPDEST POP POP POP POP PUSH1 0x40 MLOAD RETURNDATASIZE PUSH1 0x1F NOT PUSH1 0x1F DUP3 ADD AND DUP3 ADD DUP1 PUSH1 0x40 MSTORE POP DUP2 ADD SWAP1 PUSH2 0xFB1 SWAP2 SWAP1 PUSH2 0x202D JUMP JUMPDEST SWAP2 POP PUSH2 0xFF2 PUSH1 0x40 MLOAD DUP1 PUSH1 0x40 ADD PUSH1 0x40 MSTORE DUP1 PUSH1 0xF DUP2 MSTORE PUSH1 0x20 ADD PUSH32 0x416674657220763320737761703A200000000000000000000000000000000000 DUP2 MSTORE POP DUP4 PUSH2 0x1407 JUMP JUMPDEST PUSH1 0x1 SWAP3 POP POP SWAP5 POP SWAP5 SWAP3 POP POP POP JUMP JUMPDEST PUSH1 0x0 DUP4 PUSH20 0xFFFFFFFFFFFFFFFFFFFFFFFFFFFFFFFFFFFFFFFF AND PUSH4 0x95EA7B3 PUSH1 0x2 PUSH1 0x0 SWAP1 SLOAD SWAP1 PUSH2 0x100 EXP SWAP1 DIV PUSH20 0xFFFFFFFFFFFFFFFFFFFFFFFFFFFFFFFFFFFFFFFF AND DUP5 PUSH1 0x40 MLOAD DUP4 PUSH4 0xFFFFFFFF AND PUSH1 0xE0 SHL DUP2 MSTORE PUSH1 0x4 ADD PUSH2 0x105F SWAP3 SWAP2 SWAP1 PUSH2 0x20DF JUMP JUMPDEST PUSH1 0x20 PUSH1 0x40 MLOAD DUP1 DUP4 SUB DUP2 PUSH1 0x0 DUP8 DUP1 EXTCODESIZE ISZERO DUP1 ISZERO PUSH2 0x1079 JUMPI PUSH1 0x0 DUP1 REVERT JUMPDEST POP GAS CALL ISZERO DUP1 ISZERO PUSH2 0x108D JUMPI RETURNDATASIZE PUSH1 0x0 DUP1 RETURNDATACOPY RETURNDATASIZE PUSH1 0x0 REVERT JUMPDEST POP POP POP POP PUSH1 0x40 MLOAD RETURNDATASIZE PUSH1 0x1F NOT PUSH1 0x1F DUP3 ADD AND DUP3 ADD DUP1 PUSH1 0x40 MSTORE POP DUP2 ADD SWAP1 PUSH2 0x10B1 SWAP2 SWAP1 PUSH2 0x2140 JUMP JUMPDEST POP PUSH1 0x0 PUSH1 0x2 PUSH8 0xFFFFFFFFFFFFFFFF DUP2 GT ISZERO PUSH2 0x10CF JUMPI PUSH2 0x10CE PUSH2 0x166B JUMP JUMPDEST JUMPDEST PUSH1 0x40 MLOAD SWAP1 DUP1 DUP3 MSTORE DUP1 PUSH1 0x20 MUL PUSH1 0x20 ADD DUP3 ADD PUSH1 0x40 MSTORE DUP1 ISZERO PUSH2 0x10FD JUMPI DUP2 PUSH1 0x20 ADD PUSH1 0x20 DUP3 MUL DUP1 CALLDATASIZE DUP4 CALLDATACOPY DUP1 DUP3 ADD SWAP2 POP POP SWAP1 POP JUMPDEST POP SWAP1 POP DUP5 DUP2 PUSH1 0x0 DUP2 MLOAD DUP2 LT PUSH2 0x1115 JUMPI PUSH2 0x1114 PUSH2 0x1A83 JUMP JUMPDEST JUMPDEST PUSH1 0x20 MUL PUSH1 0x20 ADD ADD SWAP1 PUSH20 0xFFFFFFFFFFFFFFFFFFFFFFFFFFFFFFFFFFFFFFFF AND SWAP1 DUP2 PUSH20 0xFFFFFFFFFFFFFFFFFFFFFFFFFFFFFFFFFFFFFFFF AND DUP2 MSTORE POP POP DUP4 DUP2 PUSH1 0x1 DUP2 MLOAD DUP2 LT PUSH2 0x1164 JUMPI PUSH2 0x1163 PUSH2 0x1A83 JUMP JUMPDEST JUMPDEST PUSH1 0x20 MUL PUSH1 0x20 ADD ADD SWAP1 PUSH20 0xFFFFFFFFFFFFFFFFFFFFFFFFFFFFFFFFFFFFFFFF AND SWAP1 DUP2 PUSH20 0xFFFFFFFFFFFFFFFFFFFFFFFFFFFFFFFFFFFFFFFF AND DUP2 MSTORE POP POP PUSH1 0x0 PUSH1 0x2 PUSH1 0x0 SWAP1 SLOAD SWAP1 PUSH2 0x100 EXP SWAP1 DIV PUSH20 0xFFFFFFFFFFFFFFFFFFFFFFFFFFFFFFFFFFFFFFFF AND PUSH20 0xFFFFFFFFFFFFFFFFFFFFFFFFFFFFFFFFFFFFFFFF AND PUSH4 0xD06CA61F DUP6 DUP5 PUSH1 0x40 MLOAD DUP4 PUSH4 0xFFFFFFFF AND PUSH1 0xE0 SHL DUP2 MSTORE PUSH1 0x4 ADD PUSH2 0x11FD SWAP3 SWAP2 SWAP1 PUSH2 0x2405 JUMP JUMPDEST PUSH1 0x0 PUSH1 0x40 MLOAD DUP1 DUP4 SUB DUP2 DUP7 DUP1 EXTCODESIZE ISZERO DUP1 ISZERO PUSH2 0x1215 JUMPI PUSH1 0x0 DUP1 REVERT JUMPDEST POP GAS STATICCALL ISZERO DUP1 ISZERO PUSH2 0x1229 JUMPI RETURNDATASIZE PUSH1 0x0 DUP1 RETURNDATACOPY RETURNDATASIZE PUSH1 0x0 REVERT JUMPDEST POP POP POP POP PUSH1 0x40 MLOAD RETURNDATASIZE PUSH1 0x0 DUP3 RETURNDATACOPY RETURNDATASIZE PUSH1 0x1F NOT PUSH1 0x1F DUP3 ADD AND DUP3 ADD DUP1 PUSH1 0x40 MSTORE POP DUP2 ADD SWAP1 PUSH2 0x1252 SWAP2 SWAP1 PUSH2 0x24CC JUMP JUMPDEST SWAP1 POP PUSH1 0x0 DUP2 PUSH1 0x1 DUP2 MLOAD DUP2 LT PUSH2 0x126A JUMPI PUSH2 0x1269 PUSH2 0x1A83 JUMP JUMPDEST JUMPDEST PUSH1 0x20 MUL PUSH1 0x20 ADD ADD MLOAD SWAP1 POP PUSH1 0x0 PUSH1 0x2 PUSH1 0x0 SWAP1 SLOAD SWAP1 PUSH2 0x100 EXP SWAP1 DIV PUSH20 0xFFFFFFFFFFFFFFFFFFFFFFFFFFFFFFFFFFFFFFFF AND PUSH20 0xFFFFFFFFFFFFFFFFFFFFFFFFFFFFFFFFFFFFFFFF AND PUSH4 0x38ED1739 DUP8 DUP5 DUP8 ADDRESS TIMESTAMP PUSH1 0x40 MLOAD DUP7 PUSH4 0xFFFFFFFF AND PUSH1 0xE0 SHL DUP2 MSTORE PUSH1 0x4 ADD PUSH2 0x12D9 SWAP6 SWAP5 SWAP4 SWAP3 SWAP2 SWAP1 PUSH2 0x2515 JUMP JUMPDEST PUSH1 0x0 PUSH1 0x40 MLOAD DUP1 DUP4 SUB DUP2 PUSH1 0x0 DUP8 DUP1 EXTCODESIZE ISZERO DUP1 ISZERO PUSH2 0x12F3 JUMPI PUSH1 0x0 DUP1 REVERT JUMPDEST POP GAS CALL ISZERO DUP1 ISZERO PUSH2 0x1307 JUMPI RETURNDATASIZE PUSH1 0x0 DUP1 RETURNDATACOPY RETURNDATASIZE PUSH1 0x0 REVERT JUMPDEST POP POP POP POP PUSH1 0x40 MLOAD RETURNDATASIZE PUSH1 0x0 DUP3 RETURNDATACOPY RETURNDATASIZE PUSH1 0x1F NOT PUSH1 0x1F DUP3 ADD AND DUP3 ADD DUP1 PUSH1 0x40 MSTORE POP DUP2 ADD SWAP1 PUSH2 0x1330 SWAP2 SWAP1 PUSH2 0x24CC JUMP JUMPDEST SWAP1 POP DUP1 PUSH1 0x1 DUP3 MLOAD PUSH2 0x1341 SWAP2 SWAP1 PUSH2 0x216D JUMP JUMPDEST DUP2 MLOAD DUP2 LT PUSH2 0x1352 JUMPI PUSH2 0x1351 PUSH2 0x1A83 JUMP JUMPDEST JUMPDEST PUSH1 0x20 MUL PUSH1 0x20 ADD ADD MLOAD SWAP5 POP DUP7 PUSH20 0xFFFFFFFFFFFFFFFFFFFFFFFFFFFFFFFFFFFFFFFF AND DUP9 PUSH20 0xFFFFFFFFFFFFFFFFFFFFFFFFFFFFFFFFFFFFFFFF AND PUSH1 0x2 PUSH1 0x0 SWAP1 SLOAD SWAP1 PUSH2 0x100 EXP SWAP1 DIV PUSH20 0xFFFFFFFFFFFFFFFFFFFFFFFFFFFFFFFFFFFFFFFF AND PUSH20 0xFFFFFFFFFFFFFFFFFFFFFFFFFFFFFFFFFFFFFFFF AND PUSH32 0x764F0DC063C06F32D89A3F3AF80C0DB4BE8A090901F589A478B447E0A51F09F1 DUP10 DUP10 PUSH1 0x40 MLOAD PUSH2 0x13F4 SWAP3 SWAP2 SWAP1 PUSH2 0x256F JUMP JUMPDEST PUSH1 0x40 MLOAD DUP1 SWAP2 SUB SWAP1 LOG4 POP POP POP POP SWAP4 SWAP3 POP POP POP JUMP JUMPDEST PUSH2 0x149F DUP3 DUP3 PUSH1 0x40 MLOAD PUSH1 0x24 ADD PUSH2 0x141D SWAP3 SWAP2 SWAP1 PUSH2 0x2598 JUMP JUMPDEST PUSH1 0x40 MLOAD PUSH1 0x20 DUP2 DUP4 SUB SUB DUP2 MSTORE SWAP1 PUSH1 0x40 MSTORE PUSH32 0xB60E72CC00000000000000000000000000000000000000000000000000000000 PUSH28 0xFFFFFFFFFFFFFFFFFFFFFFFFFFFFFFFFFFFFFFFFFFFFFFFFFFFFFFFF NOT AND PUSH1 0x20 DUP3 ADD DUP1 MLOAD PUSH28 0xFFFFFFFFFFFFFFFFFFFFFFFFFFFFFFFFFFFFFFFFFFFFFFFFFFFFFFFF DUP4 DUP2 DUP4 AND OR DUP4 MSTORE POP POP POP POP PUSH2 0x14A3 JUMP JUMPDEST POP POP JUMP JUMPDEST PUSH2 0x14BA DUP2 PUSH2 0x14B2 PUSH2 0x14BD PUSH2 0x14DE JUMP JUMPDEST PUSH4 0xFFFFFFFF AND JUMP JUMPDEST POP JUMP JUMPDEST PUSH1 0x0 PUSH11 0x636F6E736F6C652E6C6F67 SWAP1 POP PUSH1 0x0 DUP1 DUP4 MLOAD PUSH1 0x20 DUP6 ADD DUP5 GAS STATICCALL POP POP POP JUMP JUMPDEST PUSH2 0x14E9 DUP2 SWAP1 POP SWAP2 SWAP1 POP JUMP JUMPDEST PUSH2 0x14F1 PUSH2 0x25C8 JUMP JUMPDEST JUMP JUMPDEST PUSH1 0x0 PUSH20 0xFFFFFFFFFFFFFFFFFFFFFFFFFFFFFFFFFFFFFFFF DUP3 AND SWAP1 POP SWAP2 SWAP1 POP JUMP JUMPDEST PUSH1 0x0 DUP2 SWAP1 POP SWAP2 SWAP1 POP JUMP JUMPDEST PUSH1 0x0 PUSH2 0x1538 PUSH2 0x1533 PUSH2 0x152E DUP5 PUSH2 0x14F3 JUMP JUMPDEST PUSH2 0x1513 JUMP JUMPDEST PUSH2 0x14F3 JUMP JUMPDEST SWAP1 POP SWAP2 SWAP1 POP JUMP JUMPDEST PUSH1 0x0 PUSH2 0x154A DUP3 PUSH2 0x151D JUMP JUMPDEST SWAP1 POP SWAP2 SWAP1 POP JUMP JUMPDEST PUSH1 0x0 PUSH2 0x155C DUP3 PUSH2 0x153F JUMP JUMPDEST SWAP1 POP SWAP2 SWAP1 POP JUMP JUMPDEST PUSH2 0x156C DUP2 PUSH2 0x1551 JUMP JUMPDEST DUP3 MSTORE POP POP JUMP JUMPDEST PUSH1 0x0 PUSH1 0x20 DUP3 ADD SWAP1 POP PUSH2 0x1587 PUSH1 0x0 DUP4 ADD DUP5 PUSH2 0x1563 JUMP JUMPDEST SWAP3 SWAP2 POP POP JUMP JUMPDEST PUSH1 0x0 PUSH2 0x1598 DUP3 PUSH2 0x153F JUMP JUMPDEST SWAP1 POP SWAP2 SWAP1 POP JUMP JUMPDEST PUSH2 0x15A8 DUP2 PUSH2 0x158D JUMP JUMPDEST DUP3 MSTORE POP POP JUMP JUMPDEST PUSH1 0x0 PUSH1 0x20 DUP3 ADD SWAP1 POP PUSH2 0x15C3 PUSH1 0x0 DUP4 ADD DUP5 PUSH2 0x159F JUMP JUMPDEST SWAP3 SWAP2 POP POP JUMP JUMPDEST PUSH1 0x0 PUSH2 0x15D4 DUP3 PUSH2 0x153F JUMP JUMPDEST SWAP1 POP SWAP2 SWAP1 POP JUMP JUMPDEST PUSH2 0x15E4 DUP2 PUSH2 0x15C9 JUMP JUMPDEST DUP3 MSTORE POP POP JUMP JUMPDEST PUSH1 0x0 PUSH1 0x20 DUP3 ADD SWAP1 POP PUSH2 0x15FF PUSH1 0x0 DUP4 ADD DUP5 PUSH2 0x15DB JUMP JUMPDEST SWAP3 SWAP2 POP POP JUMP JUMPDEST PUSH1 0x0 PUSH2 0x1610 DUP3 PUSH2 0x153F JUMP JUMPDEST SWAP1 POP SWAP2 SWAP1 POP JUMP JUMPDEST PUSH2 0x1620 DUP2 PUSH2 0x1605 JUMP JUMPDEST DUP3 MSTORE POP POP JUMP JUMPDEST PUSH1 0x0 PUSH1 0x20 DUP3 ADD SWAP1 POP PUSH2 0x163B PUSH1 0x0 DUP4 ADD DUP5 PUSH2 0x1617 JUMP JUMPDEST SWAP3 SWAP2 POP POP JUMP JUMPDEST PUSH1 0x0 PUSH1 0x40 MLOAD SWAP1 POP SWAP1 JUMP JUMPDEST PUSH1 0x0 DUP1 REVERT JUMPDEST PUSH1 0x0 DUP1 REVERT JUMPDEST PUSH1 0x0 DUP1 REVERT JUMPDEST PUSH1 0x0 PUSH1 0x1F NOT PUSH1 0x1F DUP4 ADD AND SWAP1 POP SWAP2 SWAP1 POP JUMP JUMPDEST PUSH32 0x4E487B7100000000000000000000000000000000000000000000000000000000 PUSH1 0x0 MSTORE PUSH1 0x41 PUSH1 0x4 MSTORE PUSH1 0x24 PUSH1 0x0 REVERT JUMPDEST PUSH2 0x16A3 DUP3 PUSH2 0x165A JUMP JUMPDEST DUP2 ADD DUP2 DUP2 LT PUSH8 0xFFFFFFFFFFFFFFFF DUP3 GT OR ISZERO PUSH2 0x16C2 JUMPI PUSH2 0x16C1 PUSH2 0x166B JUMP JUMPDEST JUMPDEST DUP1 PUSH1 0x40 MSTORE POP POP POP JUMP JUMPDEST PUSH1 0x0 PUSH2 0x16D5 PUSH2 0x1641 JUMP JUMPDEST SWAP1 POP PUSH2 0x16E1 DUP3 DUP3 PUSH2 0x169A JUMP JUMPDEST SWAP2 SWAP1 POP JUMP JUMPDEST PUSH1 0x0 PUSH8 0xFFFFFFFFFFFFFFFF DUP3 GT ISZERO PUSH2 0x1701 JUMPI PUSH2 0x1700 PUSH2 0x166B JUMP JUMPDEST JUMPDEST PUSH1 0x20 DUP3 MUL SWAP1 POP PUSH1 0x20 DUP2 ADD SWAP1 POP SWAP2 SWAP1 POP JUMP JUMPDEST PUSH1 0x0 DUP1 REVERT JUMPDEST PUSH1 0x0 PUSH2 0x1722 DUP3 PUSH2 0x14F3 JUMP JUMPDEST SWAP1 POP SWAP2 SWAP1 POP JUMP JUMPDEST PUSH1 0x0 PUSH2 0x1734 DUP3 PUSH2 0x1717 JUMP JUMPDEST SWAP1 POP SWAP2 SWAP1 POP JUMP JUMPDEST PUSH2 0x1744 DUP2 PUSH2 0x1729 JUMP JUMPDEST DUP2 EQ PUSH2 0x174F JUMPI PUSH1 0x0 DUP1 REVERT JUMPDEST POP JUMP JUMPDEST PUSH1 0x0 DUP2 CALLDATALOAD SWAP1 POP PUSH2 0x1761 DUP2 PUSH2 0x173B JUMP JUMPDEST SWAP3 SWAP2 POP POP JUMP JUMPDEST PUSH1 0x0 PUSH2 0x177A PUSH2 0x1775 DUP5 PUSH2 0x16E6 JUMP JUMPDEST PUSH2 0x16CB JUMP JUMPDEST SWAP1 POP DUP1 DUP4 DUP3 MSTORE PUSH1 0x20 DUP3 ADD SWAP1 POP PUSH1 0x20 DUP5 MUL DUP4 ADD DUP6 DUP2 GT ISZERO PUSH2 0x179D JUMPI PUSH2 0x179C PUSH2 0x1712 JUMP JUMPDEST JUMPDEST DUP4 JUMPDEST DUP2 DUP2 LT ISZERO PUSH2 0x17C6 JUMPI DUP1 PUSH2 0x17B2 DUP9 DUP3 PUSH2 0x1752 JUMP JUMPDEST DUP5 MSTORE PUSH1 0x20 DUP5 ADD SWAP4 POP POP PUSH1 0x20 DUP2 ADD SWAP1 POP PUSH2 0x179F JUMP JUMPDEST POP POP POP SWAP4 SWAP3 POP POP POP JUMP JUMPDEST PUSH1 0x0 DUP3 PUSH1 0x1F DUP4 ADD SLT PUSH2 0x17E5 JUMPI PUSH2 0x17E4 PUSH2 0x1655 JUMP JUMPDEST JUMPDEST DUP2 CALLDATALOAD PUSH2 0x17F5 DUP5 DUP3 PUSH1 0x20 DUP7 ADD PUSH2 0x1767 JUMP JUMPDEST SWAP2 POP POP SWAP3 SWAP2 POP POP JUMP JUMPDEST PUSH1 0x0 PUSH8 0xFFFFFFFFFFFFFFFF DUP3 GT ISZERO PUSH2 0x1819 JUMPI PUSH2 0x1818 PUSH2 0x166B JUMP JUMPDEST JUMPDEST PUSH1 0x20 DUP3 MUL SWAP1 POP PUSH1 0x20 DUP2 ADD SWAP1 POP SWAP2 SWAP1 POP JUMP JUMPDEST PUSH1 0x0 DUP2 SWAP1 POP SWAP2 SWAP1 POP JUMP JUMPDEST PUSH2 0x183D DUP2 PUSH2 0x182A JUMP JUMPDEST DUP2 EQ PUSH2 0x1848 JUMPI PUSH1 0x0 DUP1 REVERT JUMPDEST POP JUMP JUMPDEST PUSH1 0x0 DUP2 CALLDATALOAD SWAP1 POP PUSH2 0x185A DUP2 PUSH2 0x1834 JUMP JUMPDEST SWAP3 SWAP2 POP POP JUMP JUMPDEST PUSH1 0x0 PUSH2 0x1873 PUSH2 0x186E DUP5 PUSH2 0x17FE JUMP JUMPDEST PUSH2 0x16CB JUMP JUMPDEST SWAP1 POP DUP1 DUP4 DUP3 MSTORE PUSH1 0x20 DUP3 ADD SWAP1 POP PUSH1 0x20 DUP5 MUL DUP4 ADD DUP6 DUP2 GT ISZERO PUSH2 0x1896 JUMPI PUSH2 0x1895 PUSH2 0x1712 JUMP JUMPDEST JUMPDEST DUP4 JUMPDEST DUP2 DUP2 LT ISZERO PUSH2 0x18BF JUMPI DUP1 PUSH2 0x18AB DUP9 DUP3 PUSH2 0x184B JUMP JUMPDEST DUP5 MSTORE PUSH1 0x20 DUP5 ADD SWAP4 POP POP PUSH1 0x20 DUP2 ADD SWAP1 POP PUSH2 0x1898 JUMP JUMPDEST POP POP POP SWAP4 SWAP3 POP POP POP JUMP JUMPDEST PUSH1 0x0 DUP3 PUSH1 0x1F DUP4 ADD SLT PUSH2 0x18DE JUMPI PUSH2 0x18DD PUSH2 0x1655 JUMP JUMPDEST JUMPDEST DUP2 CALLDATALOAD PUSH2 0x18EE DUP5 DUP3 PUSH1 0x20 DUP7 ADD PUSH2 0x1860 JUMP JUMPDEST SWAP2 POP POP SWAP3 SWAP2 POP POP JUMP JUMPDEST PUSH1 0x0 DUP1 REVERT JUMPDEST PUSH1 0x0 PUSH8 0xFFFFFFFFFFFFFFFF DUP3 GT ISZERO PUSH2 0x1917 JUMPI PUSH2 0x1916 PUSH2 0x166B JUMP JUMPDEST JUMPDEST PUSH2 0x1920 DUP3 PUSH2 0x165A JUMP JUMPDEST SWAP1 POP PUSH1 0x20 DUP2 ADD SWAP1 POP SWAP2 SWAP1 POP JUMP JUMPDEST DUP3 DUP2 DUP4 CALLDATACOPY PUSH1 0x0 DUP4 DUP4 ADD MSTORE POP POP POP JUMP JUMPDEST PUSH1 0x0 PUSH2 0x194F PUSH2 0x194A DUP5 PUSH2 0x18FC JUMP JUMPDEST PUSH2 0x16CB JUMP JUMPDEST SWAP1 POP DUP3 DUP2 MSTORE PUSH1 0x20 DUP2 ADD DUP5 DUP5 DUP5 ADD GT ISZERO PUSH2 0x196B JUMPI PUSH2 0x196A PUSH2 0x18F7 JUMP JUMPDEST JUMPDEST PUSH2 0x1976 DUP5 DUP3 DUP6 PUSH2 0x192D JUMP JUMPDEST POP SWAP4 SWAP3 POP POP POP JUMP JUMPDEST PUSH1 0x0 DUP3 PUSH1 0x1F DUP4 ADD SLT PUSH2 0x1993 JUMPI PUSH2 0x1992 PUSH2 0x1655 JUMP JUMPDEST JUMPDEST DUP2 CALLDATALOAD PUSH2 0x19A3 DUP5 DUP3 PUSH1 0x20 DUP7 ADD PUSH2 0x193C JUMP JUMPDEST SWAP2 POP POP SWAP3 SWAP2 POP POP JUMP JUMPDEST PUSH1 0x0 DUP1 PUSH1 0x0 DUP1 PUSH1 0x80 DUP6 DUP8 SUB SLT ISZERO PUSH2 0x19C6 JUMPI PUSH2 0x19C5 PUSH2 0x164B JUMP JUMPDEST JUMPDEST PUSH1 0x0 DUP6 ADD CALLDATALOAD PUSH8 0xFFFFFFFFFFFFFFFF DUP2 GT ISZERO PUSH2 0x19E4 JUMPI PUSH2 0x19E3 PUSH2 0x1650 JUMP JUMPDEST JUMPDEST PUSH2 0x19F0 DUP8 DUP3 DUP9 ADD PUSH2 0x17D0 JUMP JUMPDEST SWAP5 POP POP PUSH1 0x20 DUP6 ADD CALLDATALOAD PUSH8 0xFFFFFFFFFFFFFFFF DUP2 GT ISZERO PUSH2 0x1A11 JUMPI PUSH2 0x1A10 PUSH2 0x1650 JUMP JUMPDEST JUMPDEST PUSH2 0x1A1D DUP8 DUP3 DUP9 ADD PUSH2 0x18C9 JUMP JUMPDEST SWAP4 POP POP PUSH1 0x40 DUP6 ADD CALLDATALOAD PUSH8 0xFFFFFFFFFFFFFFFF DUP2 GT ISZERO PUSH2 0x1A3E JUMPI PUSH2 0x1A3D PUSH2 0x1650 JUMP JUMPDEST JUMPDEST PUSH2 0x1A4A DUP8 DUP3 DUP9 ADD PUSH2 0x18C9 JUMP JUMPDEST SWAP3 POP POP PUSH1 0x60 DUP6 ADD CALLDATALOAD PUSH8 0xFFFFFFFFFFFFFFFF DUP2 GT ISZERO PUSH2 0x1A6B JUMPI PUSH2 0x1A6A PUSH2 0x1650 JUMP JUMPDEST JUMPDEST PUSH2 0x1A77 DUP8 DUP3 DUP9 ADD PUSH2 0x197E JUMP JUMPDEST SWAP2 POP POP SWAP3 SWAP6 SWAP2 SWAP5 POP SWAP3 POP JUMP JUMPDEST PUSH32 0x4E487B7100000000000000000000000000000000000000000000000000000000 PUSH1 0x0 MSTORE PUSH1 0x32 PUSH1 0x4 MSTORE PUSH1 0x24 PUSH1 0x0 REVERT JUMPDEST PUSH1 0x0 DUP3 DUP3 MSTORE PUSH1 0x20 DUP3 ADD SWAP1 POP SWAP3 SWAP2 POP POP JUMP JUMPDEST PUSH32 0x546F6B656E7320616E6420616D6F756E74732061727261792073697A65206D69 PUSH1 0x0 DUP3 ADD MSTORE PUSH32 0x736D617463680000000000000000000000000000000000000000000000000000 PUSH1 0x20 DUP3 ADD MSTORE POP JUMP JUMPDEST PUSH1 0x0 PUSH2 0x1B1F PUSH1 0x26 DUP4 PUSH2 0x1AB2 JUMP JUMPDEST SWAP2 POP PUSH2 0x1B2A DUP3 PUSH2 0x1AC3 JUMP JUMPDEST PUSH1 0x40 DUP3 ADD SWAP1 POP SWAP2 SWAP1 POP JUMP JUMPDEST PUSH1 0x0 PUSH1 0x20 DUP3 ADD SWAP1 POP DUP2 DUP2 SUB PUSH1 0x0 DUP4 ADD MSTORE PUSH2 0x1B4E DUP2 PUSH2 0x1B12 JUMP JUMPDEST SWAP1 POP SWAP2 SWAP1 POP JUMP JUMPDEST PUSH2 0x1B5E DUP2 PUSH2 0x182A JUMP JUMPDEST DUP3 MSTORE POP POP JUMP JUMPDEST PUSH1 0x0 PUSH1 0x20 DUP3 ADD SWAP1 POP PUSH2 0x1B79 PUSH1 0x0 DUP4 ADD DUP5 PUSH2 0x1B55 JUMP JUMPDEST SWAP3 SWAP2 POP POP JUMP JUMPDEST PUSH2 0x1B88 DUP2 PUSH2 0x1717 JUMP JUMPDEST DUP3 MSTORE POP POP JUMP JUMPDEST PUSH1 0x0 DUP2 SWAP1 POP SWAP2 SWAP1 POP JUMP JUMPDEST PUSH1 0x0 PUSH2 0xFFFF DUP3 AND SWAP1 POP SWAP2 SWAP1 POP JUMP JUMPDEST PUSH1 0x0 PUSH2 0x1BC1 PUSH2 0x1BBC PUSH2 0x1BB7 DUP5 PUSH2 0x1B8E JUMP JUMPDEST PUSH2 0x1513 JUMP JUMPDEST PUSH2 0x1B98 JUMP JUMPDEST SWAP1 POP SWAP2 SWAP1 POP JUMP JUMPDEST PUSH2 0x1BD1 DUP2 PUSH2 0x1BA6 JUMP JUMPDEST DUP3 MSTORE POP POP JUMP JUMPDEST PUSH1 0x0 PUSH1 0x60 DUP3 ADD SWAP1 POP PUSH2 0x1BEC PUSH1 0x0 DUP4 ADD DUP7 PUSH2 0x1B7F JUMP JUMPDEST PUSH2 0x1BF9 PUSH1 0x20 DUP4 ADD DUP6 PUSH2 0x1B7F JUMP JUMPDEST PUSH2 0x1C06 PUSH1 0x40 DUP4 ADD DUP5 PUSH2 0x1BC8 JUMP JUMPDEST SWAP5 SWAP4 POP POP POP POP JUMP JUMPDEST PUSH1 0x0 PUSH2 0x1C19 DUP3 PUSH2 0x153F JUMP JUMPDEST SWAP1 POP SWAP2 SWAP1 POP JUMP JUMPDEST PUSH2 0x1C29 DUP2 PUSH2 0x1C0E JUMP JUMPDEST DUP3 MSTORE POP POP JUMP JUMPDEST PUSH1 0x0 DUP2 MLOAD SWAP1 POP SWAP2 SWAP1 POP JUMP JUMPDEST PUSH1 0x0 DUP3 DUP3 MSTORE PUSH1 0x20 DUP3 ADD SWAP1 POP SWAP3 SWAP2 POP POP JUMP JUMPDEST PUSH1 0x0 DUP2 SWAP1 POP PUSH1 0x20 DUP3 ADD SWAP1 POP SWAP2 SWAP1 POP JUMP JUMPDEST PUSH1 0x0 PUSH2 0x1C66 DUP3 PUSH2 0x153F JUMP JUMPDEST SWAP1 POP SWAP2 SWAP1 POP JUMP JUMPDEST PUSH2 0x1C76 DUP2 PUSH2 0x1C5B JUMP JUMPDEST DUP3 MSTORE POP POP JUMP JUMPDEST PUSH1 0x0 PUSH2 0x1C88 DUP4 DUP4 PUSH2 0x1C6D JUMP JUMPDEST PUSH1 0x20 DUP4 ADD SWAP1 POP SWAP3 SWAP2 POP POP JUMP JUMPDEST PUSH1 0x0 PUSH1 0x20 DUP3 ADD SWAP1 POP SWAP2 SWAP1 POP JUMP JUMPDEST PUSH1 0x0 PUSH2 0x1CAC DUP3 PUSH2 0x1C2F JUMP JUMPDEST PUSH2 0x1CB6 DUP2 DUP6 PUSH2 0x1C3A JUMP JUMPDEST SWAP4 POP PUSH2 0x1CC1 DUP4 PUSH2 0x1C4B JUMP JUMPDEST DUP1 PUSH1 0x0 JUMPDEST DUP4 DUP2 LT ISZERO PUSH2 0x1CF2 JUMPI DUP2 MLOAD PUSH2 0x1CD9 DUP9 DUP3 PUSH2 0x1C7C JUMP JUMPDEST SWAP8 POP PUSH2 0x1CE4 DUP4 PUSH2 0x1C94 JUMP JUMPDEST SWAP3 POP POP PUSH1 0x1 DUP2 ADD SWAP1 POP PUSH2 0x1CC5 JUMP JUMPDEST POP DUP6 SWAP4 POP POP POP POP SWAP3 SWAP2 POP POP JUMP JUMPDEST PUSH1 0x0 DUP2 MLOAD SWAP1 POP SWAP2 SWAP1 POP JUMP JUMPDEST PUSH1 0x0 DUP3 DUP3 MSTORE PUSH1 0x20 DUP3 ADD SWAP1 POP SWAP3 SWAP2 POP POP JUMP JUMPDEST PUSH1 0x0 DUP2 SWAP1 POP PUSH1 0x20 DUP3 ADD SWAP1 POP SWAP2 SWAP1 POP JUMP JUMPDEST PUSH2 0x1D34 DUP2 PUSH2 0x182A JUMP JUMPDEST DUP3 MSTORE POP POP JUMP JUMPDEST PUSH1 0x0 PUSH2 0x1D46 DUP4 DUP4 PUSH2 0x1D2B JUMP JUMPDEST PUSH1 0x20 DUP4 ADD SWAP1 POP SWAP3 SWAP2 POP POP JUMP JUMPDEST PUSH1 0x0 PUSH1 0x20 DUP3 ADD SWAP1 POP SWAP2 SWAP1 POP JUMP JUMPDEST PUSH1 0x0 PUSH2 0x1D6A DUP3 PUSH2 0x1CFF JUMP JUMPDEST PUSH2 0x1D74 DUP2 DUP6 PUSH2 0x1D0A JUMP JUMPDEST SWAP4 POP PUSH2 0x1D7F DUP4 PUSH2 0x1D1B JUMP JUMPDEST DUP1 PUSH1 0x0 JUMPDEST DUP4 DUP2 LT ISZERO PUSH2 0x1DB0 JUMPI DUP2 MLOAD PUSH2 0x1D97 DUP9 DUP3 PUSH2 0x1D3A JUMP JUMPDEST SWAP8 POP PUSH2 0x1DA2 DUP4 PUSH2 0x1D52 JUMP JUMPDEST SWAP3 POP POP PUSH1 0x1 DUP2 ADD SWAP1 POP PUSH2 0x1D83 JUMP JUMPDEST POP DUP6 SWAP4 POP POP POP POP SWAP3 SWAP2 POP POP JUMP JUMPDEST PUSH1 0x0 DUP2 MLOAD SWAP1 POP SWAP2 SWAP1 POP JUMP JUMPDEST PUSH1 0x0 DUP3 DUP3 MSTORE PUSH1 0x20 DUP3 ADD SWAP1 POP SWAP3 SWAP2 POP POP JUMP JUMPDEST PUSH1 0x0 JUMPDEST DUP4 DUP2 LT ISZERO PUSH2 0x1DF7 JUMPI DUP1 DUP3 ADD MLOAD DUP2 DUP5 ADD MSTORE PUSH1 0x20 DUP2 ADD SWAP1 POP PUSH2 0x1DDC JUMP JUMPDEST DUP4 DUP2 GT ISZERO PUSH2 0x1E06 JUMPI PUSH1 0x0 DUP5 DUP5 ADD MSTORE JUMPDEST POP POP POP POP JUMP JUMPDEST PUSH1 0x0 PUSH2 0x1E17 DUP3 PUSH2 0x1DBD JUMP JUMPDEST PUSH2 0x1E21 DUP2 DUP6 PUSH2 0x1DC8 JUMP JUMPDEST SWAP4 POP PUSH2 0x1E31 DUP2 DUP6 PUSH1 0x20 DUP7 ADD PUSH2 0x1DD9 JUMP JUMPDEST PUSH2 0x1E3A DUP2 PUSH2 0x165A JUMP JUMPDEST DUP5 ADD SWAP2 POP POP SWAP3 SWAP2 POP POP JUMP JUMPDEST PUSH1 0x0 PUSH1 0x80 DUP3 ADD SWAP1 POP PUSH2 0x1E5A PUSH1 0x0 DUP4 ADD DUP8 PUSH2 0x1C20 JUMP JUMPDEST DUP2 DUP2 SUB PUSH1 0x20 DUP4 ADD MSTORE PUSH2 0x1E6C DUP2 DUP7 PUSH2 0x1CA1 JUMP JUMPDEST SWAP1 POP DUP2 DUP2 SUB PUSH1 0x40 DUP4 ADD MSTORE PUSH2 0x1E80 DUP2 DUP6 PUSH2 0x1D5F JUMP JUMPDEST SWAP1 POP DUP2 DUP2 SUB PUSH1 0x60 DUP4 ADD MSTORE PUSH2 0x1E94 DUP2 DUP5 PUSH2 0x1E0C JUMP JUMPDEST SWAP1 POP SWAP6 SWAP5 POP POP POP POP POP JUMP JUMPDEST PUSH32 0x43616C6C6261636B2066726F6D20756E617574686F72697A656420736F757263 PUSH1 0x0 DUP3 ADD MSTORE PUSH32 0x6500000000000000000000000000000000000000000000000000000000000000 PUSH1 0x20 DUP3 ADD MSTORE POP JUMP JUMPDEST PUSH1 0x0 PUSH2 0x1EFB PUSH1 0x21 DUP4 PUSH2 0x1AB2 JUMP JUMPDEST SWAP2 POP PUSH2 0x1F06 DUP3 PUSH2 0x1E9F JUMP JUMPDEST PUSH1 0x40 DUP3 ADD SWAP1 POP SWAP2 SWAP1 POP JUMP JUMPDEST PUSH1 0x0 PUSH1 0x20 DUP3 ADD SWAP1 POP DUP2 DUP2 SUB PUSH1 0x0 DUP4 ADD MSTORE PUSH2 0x1F2A DUP2 PUSH2 0x1EEE JUMP JUMPDEST SWAP1 POP SWAP2 SWAP1 POP JUMP JUMPDEST PUSH1 0x0 PUSH2 0x1F3C DUP3 PUSH2 0x14F3 JUMP JUMPDEST SWAP1 POP SWAP2 SWAP1 POP JUMP JUMPDEST PUSH2 0x1F4C DUP2 PUSH2 0x1F31 JUMP JUMPDEST DUP2 EQ PUSH2 0x1F57 JUMPI PUSH1 0x0 DUP1 REVERT JUMPDEST POP JUMP JUMPDEST PUSH1 0x0 DUP2 MLOAD SWAP1 POP PUSH2 0x1F69 DUP2 PUSH2 0x1F43 JUMP JUMPDEST SWAP3 SWAP2 POP POP JUMP JUMPDEST PUSH1 0x0 PUSH3 0xFFFFFF DUP3 AND SWAP1 POP SWAP2 SWAP1 POP JUMP JUMPDEST PUSH2 0x1F87 DUP2 PUSH2 0x1F6F JUMP JUMPDEST DUP2 EQ PUSH2 0x1F92 JUMPI PUSH1 0x0 DUP1 REVERT JUMPDEST POP JUMP JUMPDEST PUSH1 0x0 DUP2 MLOAD SWAP1 POP PUSH2 0x1FA4 DUP2 PUSH2 0x1F7E JUMP JUMPDEST SWAP3 SWAP2 POP POP JUMP JUMPDEST PUSH1 0x0 DUP1 PUSH1 0x0 PUSH1 0x60 DUP5 DUP7 SUB SLT ISZERO PUSH2 0x1FC3 JUMPI PUSH2 0x1FC2 PUSH2 0x164B JUMP JUMPDEST JUMPDEST PUSH1 0x0 PUSH2 0x1FD1 DUP7 DUP3 DUP8 ADD PUSH2 0x1F5A JUMP JUMPDEST SWAP4 POP POP PUSH1 0x20 PUSH2 0x1FE2 DUP7 DUP3 DUP8 ADD PUSH2 0x1F5A JUMP JUMPDEST SWAP3 POP POP PUSH1 0x40 PUSH2 0x1FF3 DUP7 DUP3 DUP8 ADD PUSH2 0x1F95 JUMP JUMPDEST SWAP2 POP POP SWAP3 POP SWAP3 POP SWAP3 JUMP JUMPDEST PUSH1 0x0 PUSH1 0x20 DUP3 ADD SWAP1 POP PUSH2 0x2012 PUSH1 0x0 DUP4 ADD DUP5 PUSH2 0x1B7F JUMP JUMPDEST SWAP3 SWAP2 POP POP JUMP JUMPDEST PUSH1 0x0 DUP2 MLOAD SWAP1 POP PUSH2 0x2027 DUP2 PUSH2 0x1834 JUMP JUMPDEST SWAP3 SWAP2 POP POP JUMP JUMPDEST PUSH1 0x0 PUSH1 0x20 DUP3 DUP5 SUB SLT ISZERO PUSH2 0x2043 JUMPI PUSH2 0x2042 PUSH2 0x164B JUMP JUMPDEST JUMPDEST PUSH1 0x0 PUSH2 0x2051 DUP5 DUP3 DUP6 ADD PUSH2 0x2018 JUMP JUMPDEST SWAP2 POP POP SWAP3 SWAP2 POP POP JUMP JUMPDEST PUSH32 0x4E487B7100000000000000000000000000000000000000000000000000000000 PUSH1 0x0 MSTORE PUSH1 0x11 PUSH1 0x4 MSTORE PUSH1 0x24 PUSH1 0x0 REVERT JUMPDEST PUSH1 0x0 PUSH2 0x2094 DUP3 PUSH2 0x182A JUMP JUMPDEST SWAP2 POP PUSH2 0x209F DUP4 PUSH2 0x182A JUMP JUMPDEST SWAP3 POP DUP3 PUSH32 0xFFFFFFFFFFFFFFFFFFFFFFFFFFFFFFFFFFFFFFFFFFFFFFFFFFFFFFFFFFFFFFFF SUB DUP3 GT ISZERO PUSH2 0x20D4 JUMPI PUSH2 0x20D3 PUSH2 0x205A JUMP JUMPDEST JUMPDEST DUP3 DUP3 ADD SWAP1 POP SWAP3 SWAP2 POP POP JUMP JUMPDEST PUSH1 0x0 PUSH1 0x40 DUP3 ADD SWAP1 POP PUSH2 0x20F4 PUSH1 0x0 DUP4 ADD DUP6 PUSH2 0x1B7F JUMP JUMPDEST PUSH2 0x2101 PUSH1 0x20 DUP4 ADD DUP5 PUSH2 0x1B55 JUMP JUMPDEST SWAP4 SWAP3 POP POP POP JUMP JUMPDEST PUSH1 0x0 DUP2 ISZERO ISZERO SWAP1 POP SWAP2 SWAP1 POP JUMP JUMPDEST PUSH2 0x211D DUP2 PUSH2 0x2108 JUMP JUMPDEST DUP2 EQ PUSH2 0x2128 JUMPI PUSH1 0x0 DUP1 REVERT JUMPDEST POP JUMP JUMPDEST PUSH1 0x0 DUP2 MLOAD SWAP1 POP PUSH2 0x213A DUP2 PUSH2 0x2114 JUMP JUMPDEST SWAP3 SWAP2 POP POP JUMP JUMPDEST PUSH1 0x0 PUSH1 0x20 DUP3 DUP5 SUB SLT ISZERO PUSH2 0x2156 JUMPI PUSH2 0x2155 PUSH2 0x164B JUMP JUMPDEST JUMPDEST PUSH1 0x0 PUSH2 0x2164 DUP5 DUP3 DUP6 ADD PUSH2 0x212B JUMP JUMPDEST SWAP2 POP POP SWAP3 SWAP2 POP POP JUMP JUMPDEST PUSH1 0x0 PUSH2 0x2178 DUP3 PUSH2 0x182A JUMP JUMPDEST SWAP2 POP PUSH2 0x2183 DUP4 PUSH2 0x182A JUMP JUMPDEST SWAP3 POP DUP3 DUP3 LT ISZERO PUSH2 0x2196 JUMPI PUSH2 0x2195 PUSH2 0x205A JUMP JUMPDEST JUMPDEST DUP3 DUP3 SUB SWAP1 POP SWAP3 SWAP2 POP POP JUMP JUMPDEST PUSH1 0x0 DUP2 MLOAD SWAP1 POP SWAP2 SWAP1 POP JUMP JUMPDEST PUSH1 0x0 PUSH2 0x21B7 DUP3 PUSH2 0x21A1 JUMP JUMPDEST PUSH2 0x21C1 DUP2 DUP6 PUSH2 0x1AB2 JUMP JUMPDEST SWAP4 POP PUSH2 0x21D1 DUP2 DUP6 PUSH1 0x20 DUP7 ADD PUSH2 0x1DD9 JUMP JUMPDEST PUSH2 0x21DA DUP2 PUSH2 0x165A JUMP JUMPDEST DUP5 ADD SWAP2 POP POP SWAP3 SWAP2 POP POP JUMP JUMPDEST PUSH1 0x0 PUSH1 0x20 DUP3 ADD SWAP1 POP DUP2 DUP2 SUB PUSH1 0x0 DUP4 ADD MSTORE PUSH2 0x21FF DUP2 DUP5 PUSH2 0x21AC JUMP JUMPDEST SWAP1 POP SWAP3 SWAP2 POP POP JUMP JUMPDEST PUSH1 0x0 PUSH1 0x80 DUP3 ADD SWAP1 POP DUP2 DUP2 SUB PUSH1 0x0 DUP4 ADD MSTORE PUSH2 0x2221 DUP2 DUP8 PUSH2 0x21AC JUMP JUMPDEST SWAP1 POP PUSH2 0x2230 PUSH1 0x20 DUP4 ADD DUP7 PUSH2 0x1B7F JUMP JUMPDEST PUSH2 0x223D PUSH1 0x40 DUP4 ADD DUP6 PUSH2 0x1B55 JUMP JUMPDEST PUSH2 0x224A PUSH1 0x60 DUP4 ADD DUP5 PUSH2 0x1B55 JUMP JUMPDEST SWAP6 SWAP5 POP POP POP POP POP JUMP JUMPDEST PUSH1 0x0 PUSH1 0x40 DUP3 ADD SWAP1 POP PUSH2 0x2268 PUSH1 0x0 DUP4 ADD DUP6 PUSH2 0x1B7F JUMP JUMPDEST PUSH2 0x2275 PUSH1 0x20 DUP4 ADD DUP5 PUSH2 0x1B7F JUMP JUMPDEST SWAP4 SWAP3 POP POP POP JUMP JUMPDEST PUSH2 0x2285 DUP2 PUSH2 0x1717 JUMP JUMPDEST DUP3 MSTORE POP POP JUMP JUMPDEST PUSH2 0x2294 DUP2 PUSH2 0x1F6F JUMP JUMPDEST DUP3 MSTORE POP POP JUMP JUMPDEST PUSH2 0x22A3 DUP2 PUSH2 0x14F3 JUMP JUMPDEST DUP3 MSTORE POP POP JUMP JUMPDEST PUSH2 0x100 DUP3 ADD PUSH1 0x0 DUP3 ADD MLOAD PUSH2 0x22C0 PUSH1 0x0 DUP6 ADD DUP3 PUSH2 0x227C JUMP JUMPDEST POP PUSH1 0x20 DUP3 ADD MLOAD PUSH2 0x22D3 PUSH1 0x20 DUP6 ADD DUP3 PUSH2 0x227C JUMP JUMPDEST POP PUSH1 0x40 DUP3 ADD MLOAD PUSH2 0x22E6 PUSH1 0x40 DUP6 ADD DUP3 PUSH2 0x228B JUMP JUMPDEST POP PUSH1 0x60 DUP3 ADD MLOAD PUSH2 0x22F9 PUSH1 0x60 DUP6 ADD DUP3 PUSH2 0x227C JUMP JUMPDEST POP PUSH1 0x80 DUP3 ADD MLOAD PUSH2 0x230C PUSH1 0x80 DUP6 ADD DUP3 PUSH2 0x1D2B JUMP JUMPDEST POP PUSH1 0xA0 DUP3 ADD MLOAD PUSH2 0x231F PUSH1 0xA0 DUP6 ADD DUP3 PUSH2 0x1D2B JUMP JUMPDEST POP PUSH1 0xC0 DUP3 ADD MLOAD PUSH2 0x2332 PUSH1 0xC0 DUP6 ADD DUP3 PUSH2 0x1D2B JUMP JUMPDEST POP PUSH1 0xE0 DUP3 ADD MLOAD PUSH2 0x2345 PUSH1 0xE0 DUP6 ADD DUP3 PUSH2 0x229A JUMP JUMPDEST POP POP POP POP JUMP JUMPDEST PUSH1 0x0 PUSH2 0x100 DUP3 ADD SWAP1 POP PUSH2 0x2361 PUSH1 0x0 DUP4 ADD DUP5 PUSH2 0x22A9 JUMP JUMPDEST SWAP3 SWAP2 POP POP JUMP JUMPDEST PUSH1 0x0 DUP2 MLOAD SWAP1 POP SWAP2 SWAP1 POP JUMP JUMPDEST PUSH1 0x0 DUP2 SWAP1 POP PUSH1 0x20 DUP3 ADD SWAP1 POP SWAP2 SWAP1 POP JUMP JUMPDEST PUSH1 0x0 PUSH2 0x238E DUP4 DUP4 PUSH2 0x227C JUMP JUMPDEST PUSH1 0x20 DUP4 ADD SWAP1 POP SWAP3 SWAP2 POP POP JUMP JUMPDEST PUSH1 0x0 PUSH1 0x20 DUP3 ADD SWAP1 POP SWAP2 SWAP1 POP JUMP JUMPDEST PUSH1 0x0 PUSH2 0x23B2 DUP3 PUSH2 0x2367 JUMP JUMPDEST PUSH2 0x23BC DUP2 DUP6 PUSH2 0x1C3A JUMP JUMPDEST SWAP4 POP PUSH2 0x23C7 DUP4 PUSH2 0x2372 JUMP JUMPDEST DUP1 PUSH1 0x0 JUMPDEST DUP4 DUP2 LT ISZERO PUSH2 0x23F8 JUMPI DUP2 MLOAD PUSH2 0x23DF DUP9 DUP3 PUSH2 0x2382 JUMP JUMPDEST SWAP8 POP PUSH2 0x23EA DUP4 PUSH2 0x239A JUMP JUMPDEST SWAP3 POP POP PUSH1 0x1 DUP2 ADD SWAP1 POP PUSH2 0x23CB JUMP JUMPDEST POP DUP6 SWAP4 POP POP POP POP SWAP3 SWAP2 POP POP JUMP JUMPDEST PUSH1 0x0 PUSH1 0x40 DUP3 ADD SWAP1 POP PUSH2 0x241A PUSH1 0x0 DUP4 ADD DUP6 PUSH2 0x1B55 JUMP JUMPDEST DUP2 DUP2 SUB PUSH1 0x20 DUP4 ADD MSTORE PUSH2 0x242C DUP2 DUP5 PUSH2 0x23A7 JUMP JUMPDEST SWAP1 POP SWAP4 SWAP3 POP POP POP JUMP JUMPDEST PUSH1 0x0 PUSH2 0x2448 PUSH2 0x2443 DUP5 PUSH2 0x17FE JUMP JUMPDEST PUSH2 0x16CB JUMP JUMPDEST SWAP1 POP DUP1 DUP4 DUP3 MSTORE PUSH1 0x20 DUP3 ADD SWAP1 POP PUSH1 0x20 DUP5 MUL DUP4 ADD DUP6 DUP2 GT ISZERO PUSH2 0x246B JUMPI PUSH2 0x246A PUSH2 0x1712 JUMP JUMPDEST JUMPDEST DUP4 JUMPDEST DUP2 DUP2 LT ISZERO PUSH2 0x2494 JUMPI DUP1 PUSH2 0x2480 DUP9 DUP3 PUSH2 0x2018 JUMP JUMPDEST DUP5 MSTORE PUSH1 0x20 DUP5 ADD SWAP4 POP POP PUSH1 0x20 DUP2 ADD SWAP1 POP PUSH2 0x246D JUMP JUMPDEST POP POP POP SWAP4 SWAP3 POP POP POP JUMP JUMPDEST PUSH1 0x0 DUP3 PUSH1 0x1F DUP4 ADD SLT PUSH2 0x24B3 JUMPI PUSH2 0x24B2 PUSH2 0x1655 JUMP JUMPDEST JUMPDEST DUP2 MLOAD PUSH2 0x24C3 DUP5 DUP3 PUSH1 0x20 DUP7 ADD PUSH2 0x2435 JUMP JUMPDEST SWAP2 POP POP SWAP3 SWAP2 POP POP JUMP JUMPDEST PUSH1 0x0 PUSH1 0x20 DUP3 DUP5 SUB SLT ISZERO PUSH2 0x24E2 JUMPI PUSH2 0x24E1 PUSH2 0x164B JUMP JUMPDEST JUMPDEST PUSH1 0x0 DUP3 ADD MLOAD PUSH8 0xFFFFFFFFFFFFFFFF DUP2 GT ISZERO PUSH2 0x2500 JUMPI PUSH2 0x24FF PUSH2 0x1650 JUMP JUMPDEST JUMPDEST PUSH2 0x250C DUP5 DUP3 DUP6 ADD PUSH2 0x249E JUMP JUMPDEST SWAP2 POP POP SWAP3 SWAP2 POP POP JUMP JUMPDEST PUSH1 0x0 PUSH1 0xA0 DUP3 ADD SWAP1 POP PUSH2 0x252A PUSH1 0x0 DUP4 ADD DUP9 PUSH2 0x1B55 JUMP JUMPDEST PUSH2 0x2537 PUSH1 0x20 DUP4 ADD DUP8 PUSH2 0x1B55 JUMP JUMPDEST DUP2 DUP2 SUB PUSH1 0x40 DUP4 ADD MSTORE PUSH2 0x2549 DUP2 DUP7 PUSH2 0x23A7 JUMP JUMPDEST SWAP1 POP PUSH2 0x2558 PUSH1 0x60 DUP4 ADD DUP6 PUSH2 0x1B7F JUMP JUMPDEST PUSH2 0x2565 PUSH1 0x80 DUP4 ADD DUP5 PUSH2 0x1B55 JUMP JUMPDEST SWAP7 SWAP6 POP POP POP POP POP POP JUMP JUMPDEST PUSH1 0x0 PUSH1 0x40 DUP3 ADD SWAP1 POP PUSH2 0x2584 PUSH1 0x0 DUP4 ADD DUP6 PUSH2 0x1B55 JUMP JUMPDEST PUSH2 0x2591 PUSH1 0x20 DUP4 ADD DUP5 PUSH2 0x1B55 JUMP JUMPDEST SWAP4 SWAP3 POP POP POP JUMP JUMPDEST PUSH1 0x0 PUSH1 0x40 DUP3 ADD SWAP1 POP DUP2 DUP2 SUB PUSH1 0x0 DUP4 ADD MSTORE PUSH2 0x25B2 DUP2 DUP6 PUSH2 0x21AC JUMP JUMPDEST SWAP1 POP PUSH2 0x25C1 PUSH1 0x20 DUP4 ADD DUP5 PUSH2 0x1B55 JUMP JUMPDEST SWAP4 SWAP3 POP POP POP JUMP JUMPDEST PUSH32 0x4E487B7100000000000000000000000000000000000000000000000000000000 PUSH1 0x0 MSTORE PUSH1 0x51 PUSH1 0x4 MSTORE PUSH1 0x24 PUSH1 0x0 REVERT INVALID LOG2 PUSH5 0x6970667358 0x22 SLT KECCAK256 0xA5 0xC6 0xF8 0x1E ISZERO REVERT 0xDC 0x49 0xF8 0x4A EXP CALLDATALOAD DUP3 SWAP5 PUSH1 0x18 0x4F MOD SLOAD KECCAK256 0xD3 NUMBER 0xB0 ADDMOD DUP12 0xE0 SUB 0xB5 SWAP13 0xE0 0xE8 0xE3 PUSH5 0x736F6C6343 STOP ADDMOD MULMOD STOP CALLER "},"methodIdentifiers":{"balancerVault()":"158274a5","initiateArbitrage()":"57099985","quoter()":"c6bbd5a7","receiveFlashLoan(address[],uint256[],uint256[],bytes)":"f04f2707","sushiswapRouter()":"e9240c2d","uniswapV2Router()":"1694505e","uniswapV3Router()":"2c76d7a6"}}}}}