{
	"data": {
		"bytecode": {
			"linkReferences": {},
			"object": "60a060405234801561000f575f80fd5b5073ba12222222228d8ba445958a75a0704d566bf2c85f806101000a81548173ffffffffffffffffffffffffffffffffffffffff021916908373ffffffffffffffffffffffffffffffffffffffff1602179055507368b3465833fb72a70ecdf485e0e4c7bd8665fc4573ffffffffffffffffffffffffffffffffffffffff1660808173ffffffffffffffffffffffffffffffffffffffff1681525050737a250d5630b4cf539739df2c5dacb4c659f2488d60015f6101000a81548173ffffffffffffffffffffffffffffffffffffffff021916908373ffffffffffffffffffffffffffffffffffffffff160217905550731b02da8cb0d097eb8d57a175b88c7d8b4799750660025f6101000a81548173ffffffffffffffffffffffffffffffffffffffff021916908373ffffffffffffffffffffffffffffffffffffffff16021790555073b27308f9f90d607463bb33ea1bebb41c27ce5ab660035f6101000a81548173ffffffffffffffffffffffffffffffffffffffff021916908373ffffffffffffffffffffffffffffffffffffffff1602179055506080516127a86101d45f395f8181610185015281816109eb01528181610c5d0152610cdf01526127a85ff3fe608060405234801561000f575f80fd5b506004361061007b575f3560e01c8063570999851161005957806357099985146100d9578063c6bbd5a7146100e3578063e9240c2d14610101578063f04f27071461011f5761007b565b8063158274a51461007f5780631694505e1461009d5780632c76d7a6146100bb575b5f80fd5b61008761013b565b6040516100949190611655565b60405180910390f35b6100a561015e565b6040516100b2919061168e565b60405180910390f35b6100c3610183565b6040516100d091906116c7565b60405180910390f35b6100e16101a7565b005b6100eb610467565b6040516100f89190611700565b60405180910390f35b61010961048c565b604051610116919061168e565b60405180910390f35b61013960048036038101906101349190611a69565b6104b1565b005b5f8054906101000a900473ffffffffffffffffffffffffffffffffffffffff1681565b60015f9054906101000a900473ffffffffffffffffffffffffffffffffffffffff1681565b7f000000000000000000000000000000000000000000000000000000000000000081565b5f600167ffffffffffffffff8111156101c3576101c261173e565b5b6040519080825280602002602001820160405280156101f15781602001602082028036833780820191505090505b5090505f600167ffffffffffffffff8111156102105761020f61173e565b5b60405190808252806020026020018201604052801561023e5781602001602082028036833780820191505090505b5090507382af49447d8a07e3bd95bd0d56f35241523fbab1825f8151811061026957610268611b3d565b5b602002602001019073ffffffffffffffffffffffffffffffffffffffff16908173ffffffffffffffffffffffffffffffffffffffff1681525050612710815f815181106102b9576102b8611b3d565b5b6020026020010181815250508051825114610309576040517f08c379a000000000000000000000000000000000000000000000000000000000815260040161030090611bea565b60405180910390fd5b815f8151811061031c5761031b611b3d565b5b602002602001015173ffffffffffffffffffffffffffffffffffffffff167f591ad3206c771ad9f89e5fce3ba3fd39fe164da7093471fce70eaf468c495f3c825f8151811061036e5761036d611b3d565b5b60200260200101516040516103839190611c17565b60405180910390a25f8054906101000a900473ffffffffffffffffffffffffffffffffffffffff1673ffffffffffffffffffffffffffffffffffffffff16635c38449e3084847382af49447d8a07e3bd95bd0d56f35241523fbab173da10009cbd5d07dd0cecc66161fc93d7c9000da16101f460405160200161040893929190611c85565b6040516020818303038152906040526040518563ffffffff1660e01b81526004016104369493929190611ed3565b5f604051808303815f87803b15801561044d575f80fd5b505af115801561045f573d5f803e3d5ffd5b505050505050565b60035f9054906101000a900473ffffffffffffffffffffffffffffffffffffffff1681565b60025f9054906101000a900473ffffffffffffffffffffffffffffffffffffffff1681565b5f8054906101000a900473ffffffffffffffffffffffffffffffffffffffff1673ffffffffffffffffffffffffffffffffffffffff163373ffffffffffffffffffffffffffffffffffffffff161461053e576040517f08c379a000000000000000000000000000000000000000000000000000000000815260040161053590611f9b565b60405180910390fd5b5f845f8151811061055257610551611b3d565b5b602002602001015190505f845f815181106105705761056f611b3d565b5b602002602001015190505f805f85806020019051810190610591919061202c565b9250925092506105d56040518060400160405280600b81526020017f6265666f72652073776170000000000000000000000000000000000000000000815250610890565b61061b6040518060400160405280600b81526020017f436865636b203a20256420000000000000000000000000000000000000000000815250848362ffffff1687610929565b5f80610629858585896109cb565b91509150816106405761063d858588610dc7565b90505b61067e6040518060400160405280600a81526020017f6166746572207377617000000000000000000000000000000000000000000000815250610890565b5f61068a85878461112d565b90505f8a5f815181106106a05761069f611b3d565b5b6020026020010151886106b391906120a9565b90508873ffffffffffffffffffffffffffffffffffffffff1663a9059cbb5f8054906101000a900473ffffffffffffffffffffffffffffffffffffffff16836040518363ffffffff1660e01b815260040161070f9291906120dc565b6020604051808303815f875af115801561072b573d5f803e3d5ffd5b505050506040513d601f19601f8201168201806040525081019061074f9190612138565b508873ffffffffffffffffffffffffffffffffffffffff167fc200a1f31dd659e356e0f112c82558e25f49f7b0f84438691cd96f5cb3558823826040516107969190611c17565b60405180910390a25f81836107ab9190612163565b90505f811115610880578773ffffffffffffffffffffffffffffffffffffffff1663a9059cbb33836040518363ffffffff1660e01b81526004016107f09291906120dc565b6020604051808303815f875af115801561080c573d5f803e3d5ffd5b505050506040513d601f19601f820116820180604052508101906108309190612138565b508773ffffffffffffffffffffffffffffffffffffffff167f5314098314219d6e1ce8e41fc5e6ec1ce2f06a9d583079fb6619af9bf6efdf41826040516108779190611c17565b60405180910390a25b5050505050505050505050505050565b610926816040516024016108a491906121d8565b6040516020818303038152906040527f41304fac000000000000000000000000000000000000000000000000000000007bffffffffffffffffffffffffffffffffffffffffffffffffffffffff19166020820180517bffffffffffffffffffffffffffffffffffffffffffffffffffffffff83818316178352505050506114f1565b50565b6109c58484848460405160240161094394939291906121f8565b6040516020818303038152906040527ff8f51b1e000000000000000000000000000000000000000000000000000000007bffffffffffffffffffffffffffffffffffffffffffffffffffffffff19166020820180517bffffffffffffffffffffffffffffffffffffffffffffffffffffffff83818316178352505050506114f1565b50505050565b5f808573ffffffffffffffffffffffffffffffffffffffff1663095ea7b37f0000000000000000000000000000000000000000000000000000000000000000856040518363ffffffff1660e01b8152600401610a289291906120dc565b6020604051808303815f875af1158015610a44573d5f803e3d5ffd5b505050506040513d601f19601f82011682018060405250810190610a689190612138565b505f6040518061010001604052808873ffffffffffffffffffffffffffffffffffffffff1681526020018773ffffffffffffffffffffffffffffffffffffffff1681526020018662ffffff1681526020013073ffffffffffffffffffffffffffffffffffffffff16815260200161025842610ae391906120a9565b8152602001858152602001600181526020015f73ffffffffffffffffffffffffffffffffffffffff168152509050610b4f6040518060400160405280601481526020017f496e7369646520746865207633206d6574686f64000000000000000000000000815250610890565b610c056040518060400160405280600d81526020017f42616c616e6365206f66203a20000000000000000000000000000000000000008152508873ffffffffffffffffffffffffffffffffffffffff166370a08231336040518263ffffffff1660e01b8152600401610bc19190612242565b602060405180830381865afa158015610bdc573d5f803e3d5ffd5b505050506040513d601f19601f82011682018060405250810190610c00919061226f565b61150b565b610cdd6040518060400160405280600c81526020017f416c6c6f77616e6365203a2000000000000000000000000000000000000000008152508873ffffffffffffffffffffffffffffffffffffffff1663dd62ed3e307f00000000000000000000000000000000000000000000000000000000000000006040518363ffffffff1660e01b8152600401610c9992919061229a565b602060405180830381865afa158015610cb4573d5f803e3d5ffd5b505050506040513d601f19601f82011682018060405250810190610cd8919061226f565b61150b565b7f000000000000000000000000000000000000000000000000000000000000000073ffffffffffffffffffffffffffffffffffffffff1663414bf389826040518263ffffffff1660e01b8152600401610d36919061238e565b6020604051808303815f875af1158015610d52573d5f803e3d5ffd5b505050506040513d601f19601f82011682018060405250810190610d76919061226f565b9150610db66040518060400160405280600d81526020017f4166746572207633207377617000000000000000000000000000000000000000815250610890565b60015f925092505094509492505050565b5f80600267ffffffffffffffff811115610de457610de361173e565b5b604051908082528060200260200182016040528015610e125781602001602082028036833780820191505090505b50905084815f81518110610e2957610e28611b3d565b5b602002602001019073ffffffffffffffffffffffffffffffffffffffff16908173ffffffffffffffffffffffffffffffffffffffff16815250508381600181518110610e7857610e77611b3d565b5b602002602001019073ffffffffffffffffffffffffffffffffffffffff16908173ffffffffffffffffffffffffffffffffffffffff16815250508473ffffffffffffffffffffffffffffffffffffffff1663095ea7b360015f9054906101000a900473ffffffffffffffffffffffffffffffffffffffff1660fd6040518363ffffffff1660e01b8152600401610f0f9291906123e1565b6020604051808303815f875af1158015610f2b573d5f803e3d5ffd5b505050506040513d601f19601f82011682018060405250810190610f4f9190612138565b506110066040518060400160405280600d81526020017f42616c616e6365206f66203a20000000000000000000000000000000000000008152508673ffffffffffffffffffffffffffffffffffffffff166370a08231306040518263ffffffff1660e01b8152600401610fc29190612242565b602060405180830381865afa158015610fdd573d5f803e3d5ffd5b505050506040513d601f19601f82011682018060405250810190611001919061226f565b61150b565b5f60015f9054906101000a900473ffffffffffffffffffffffffffffffffffffffff1673ffffffffffffffffffffffffffffffffffffffff166338ed1739600a866110519190612435565b600185306102584261106391906120a9565b6040518663ffffffff1660e01b8152600401611083959493929190612536565b5f604051808303815f875af115801561109e573d5f803e3d5ffd5b505050506040513d5f823e3d601f19601f820116820180604052508101906110c69190612623565b90506111066040518060400160405280600c81526020017f416674657253776170203a200000000000000000000000000000000000000000815250610890565b8060018151811061111a57611119611b3d565b5b6020026020010151925050509392505050565b5f8373ffffffffffffffffffffffffffffffffffffffff1663095ea7b360025f9054906101000a900473ffffffffffffffffffffffffffffffffffffffff16846040518363ffffffff1660e01b815260040161118a9291906120dc565b6020604051808303815f875af11580156111a6573d5f803e3d5ffd5b505050506040513d601f19601f820116820180604052508101906111ca9190612138565b505f600267ffffffffffffffff8111156111e7576111e661173e565b5b6040519080825280602002602001820160405280156112155781602001602082028036833780820191505090505b50905084815f8151811061122c5761122b611b3d565b5b602002602001019073ffffffffffffffffffffffffffffffffffffffff16908173ffffffffffffffffffffffffffffffffffffffff1681525050838160018151811061127b5761127a611b3d565b5b602002602001019073ffffffffffffffffffffffffffffffffffffffff16908173ffffffffffffffffffffffffffffffffffffffff16815250505f60025f9054906101000a900473ffffffffffffffffffffffffffffffffffffffff1673ffffffffffffffffffffffffffffffffffffffff1663d06ca61f85846040518363ffffffff1660e01b815260040161131292919061266a565b5f60405180830381865afa15801561132c573d5f803e3d5ffd5b505050506040513d5f823e3d601f19601f820116820180604052508101906113549190612623565b90505f8160018151811061136b5761136a611b3d565b5b602002602001015190505f60025f9054906101000a900473ffffffffffffffffffffffffffffffffffffffff1673ffffffffffffffffffffffffffffffffffffffff166338ed173987848730426040518663ffffffff1660e01b81526004016113d8959493929190612698565b5f604051808303815f875af11580156113f3573d5f803e3d5ffd5b505050506040513d5f823e3d601f19601f8201168201806040525081019061141b9190612623565b9050806001825161142c9190612163565b8151811061143d5761143c611b3d565b5b602002602001015194508673ffffffffffffffffffffffffffffffffffffffff168873ffffffffffffffffffffffffffffffffffffffff1660025f9054906101000a900473ffffffffffffffffffffffffffffffffffffffff1673ffffffffffffffffffffffffffffffffffffffff167f764f0dc063c06f32d89a3f3af80c0db4be8a090901f589a478b447e0a51f09f189896040516114de9291906126f0565b60405180910390a4505050509392505050565b611508816115006115a76115c6565b63ffffffff16565b50565b6115a38282604051602401611521929190612717565b6040516020818303038152906040527fb60e72cc000000000000000000000000000000000000000000000000000000007bffffffffffffffffffffffffffffffffffffffffffffffffffffffff19166020820180517bffffffffffffffffffffffffffffffffffffffffffffffffffffffff83818316178352505050506114f1565b5050565b5f6a636f6e736f6c652e6c6f6790505f80835160208501845afa505050565b6115d1819050919050565b6115d9612745565b565b5f73ffffffffffffffffffffffffffffffffffffffff82169050919050565b5f819050919050565b5f61161d611618611613846115db565b6115fa565b6115db565b9050919050565b5f61162e82611603565b9050919050565b5f61163f82611624565b9050919050565b61164f81611635565b82525050565b5f6020820190506116685f830184611646565b92915050565b5f61167882611624565b9050919050565b6116888161166e565b82525050565b5f6020820190506116a15f83018461167f565b92915050565b5f6116b182611624565b9050919050565b6116c1816116a7565b82525050565b5f6020820190506116da5f8301846116b8565b92915050565b5f6116ea82611624565b9050919050565b6116fa816116e0565b82525050565b5f6020820190506117135f8301846116f1565b92915050565b5f604051905090565b5f80fd5b5f80fd5b5f80fd5b5f601f19601f8301169050919050565b7f4e487b71000000000000000000000000000000000000000000000000000000005f52604160045260245ffd5b6117748261172e565b810181811067ffffffffffffffff821117156117935761179261173e565b5b80604052505050565b5f6117a5611719565b90506117b1828261176b565b919050565b5f67ffffffffffffffff8211156117d0576117cf61173e565b5b602082029050602081019050919050565b5f80fd5b5f6117ef826115db565b9050919050565b5f611800826117e5565b9050919050565b611810816117f6565b811461181a575f80fd5b50565b5f8135905061182b81611807565b92915050565b5f61184361183e846117b6565b61179c565b90508083825260208201905060208402830185811115611866576118656117e1565b5b835b8181101561188f578061187b888261181d565b845260208401935050602081019050611868565b5050509392505050565b5f82601f8301126118ad576118ac61172a565b5b81356118bd848260208601611831565b91505092915050565b5f67ffffffffffffffff8211156118e0576118df61173e565b5b602082029050602081019050919050565b5f819050919050565b611903816118f1565b811461190d575f80fd5b50565b5f8135905061191e816118fa565b92915050565b5f611936611931846118c6565b61179c565b90508083825260208201905060208402830185811115611959576119586117e1565b5b835b81811015611982578061196e8882611910565b84526020840193505060208101905061195b565b5050509392505050565b5f82601f8301126119a05761199f61172a565b5b81356119b0848260208601611924565b91505092915050565b5f80fd5b5f67ffffffffffffffff8211156119d7576119d661173e565b5b6119e08261172e565b9050602081019050919050565b828183375f83830152505050565b5f611a0d611a08846119bd565b61179c565b905082815260208101848484011115611a2957611a286119b9565b5b611a348482856119ed565b509392505050565b5f82601f830112611a5057611a4f61172a565b5b8135611a608482602086016119fb565b91505092915050565b5f805f8060808587031215611a8157611a80611722565b5b5f85013567ffffffffffffffff811115611a9e57611a9d611726565b5b611aaa87828801611899565b945050602085013567ffffffffffffffff811115611acb57611aca611726565b5b611ad78782880161198c565b935050604085013567ffffffffffffffff811115611af857611af7611726565b5b611b048782880161198c565b925050606085013567ffffffffffffffff811115611b2557611b24611726565b5b611b3187828801611a3c565b91505092959194509250565b7f4e487b71000000000000000000000000000000000000000000000000000000005f52603260045260245ffd5b5f82825260208201905092915050565b7f546f6b656e7320616e6420616d6f756e74732061727261792073697a65206d695f8201527f736d617463680000000000000000000000000000000000000000000000000000602082015250565b5f611bd4602683611b6a565b9150611bdf82611b7a565b604082019050919050565b5f6020820190508181035f830152611c0181611bc8565b9050919050565b611c11816118f1565b82525050565b5f602082019050611c2a5f830184611c08565b92915050565b611c39816117e5565b82525050565b5f819050919050565b5f61ffff82169050919050565b5f611c6f611c6a611c6584611c3f565b6115fa565b611c48565b9050919050565b611c7f81611c55565b82525050565b5f606082019050611c985f830186611c30565b611ca56020830185611c30565b611cb26040830184611c76565b949350505050565b5f611cc482611624565b9050919050565b611cd481611cba565b82525050565b5f81519050919050565b5f82825260208201905092915050565b5f819050602082019050919050565b5f611d0d82611624565b9050919050565b611d1d81611d03565b82525050565b5f611d2e8383611d14565b60208301905092915050565b5f602082019050919050565b5f611d5082611cda565b611d5a8185611ce4565b9350611d6583611cf4565b805f5b83811015611d95578151611d7c8882611d23565b9750611d8783611d3a565b925050600181019050611d68565b5085935050505092915050565b5f81519050919050565b5f82825260208201905092915050565b5f819050602082019050919050565b611dd4816118f1565b82525050565b5f611de58383611dcb565b60208301905092915050565b5f602082019050919050565b5f611e0782611da2565b611e118185611dac565b9350611e1c83611dbc565b805f5b83811015611e4c578151611e338882611dda565b9750611e3e83611df1565b925050600181019050611e1f565b5085935050505092915050565b5f81519050919050565b5f82825260208201905092915050565b5f5b83811015611e90578082015181840152602081019050611e75565b5f8484015250505050565b5f611ea582611e59565b611eaf8185611e63565b9350611ebf818560208601611e73565b611ec88161172e565b840191505092915050565b5f608082019050611ee65f830187611ccb565b8181036020830152611ef88186611d46565b90508181036040830152611f0c8185611dfd565b90508181036060830152611f208184611e9b565b905095945050505050565b7f43616c6c6261636b2066726f6d20756e617574686f72697a656420736f7572635f8201527f6500000000000000000000000000000000000000000000000000000000000000602082015250565b5f611f85602183611b6a565b9150611f9082611f2b565b604082019050919050565b5f6020820190508181035f830152611fb281611f79565b9050919050565b5f611fc3826115db565b9050919050565b611fd381611fb9565b8114611fdd575f80fd5b50565b5f81519050611fee81611fca565b92915050565b5f62ffffff82169050919050565b61200b81611ff4565b8114612015575f80fd5b50565b5f8151905061202681612002565b92915050565b5f805f6060848603121561204357612042611722565b5b5f61205086828701611fe0565b935050602061206186828701611fe0565b925050604061207286828701612018565b9150509250925092565b7f4e487b71000000000000000000000000000000000000000000000000000000005f52601160045260245ffd5b5f6120b3826118f1565b91506120be836118f1565b92508282019050808211156120d6576120d561207c565b5b92915050565b5f6040820190506120ef5f830185611c30565b6120fc6020830184611c08565b9392505050565b5f8115159050919050565b61211781612103565b8114612121575f80fd5b50565b5f815190506121328161210e565b92915050565b5f6020828403121561214d5761214c611722565b5b5f61215a84828501612124565b91505092915050565b5f61216d826118f1565b9150612178836118f1565b92508282039050818111156121905761218f61207c565b5b92915050565b5f81519050919050565b5f6121aa82612196565b6121b48185611b6a565b93506121c4818560208601611e73565b6121cd8161172e565b840191505092915050565b5f6020820190508181035f8301526121f081846121a0565b905092915050565b5f6080820190508181035f83015261221081876121a0565b905061221f6020830186611c30565b61222c6040830185611c08565b6122396060830184611c08565b95945050505050565b5f6020820190506122555f830184611c30565b92915050565b5f81519050612269816118fa565b92915050565b5f6020828403121561228457612283611722565b5b5f6122918482850161225b565b91505092915050565b5f6040820190506122ad5f830185611c30565b6122ba6020830184611c30565b9392505050565b6122ca816117e5565b82525050565b6122d981611ff4565b82525050565b6122e8816115db565b82525050565b61010082015f8201516123035f8501826122c1565b50602082015161231660208501826122c1565b50604082015161232960408501826122d0565b50606082015161233c60608501826122c1565b50608082015161234f6080850182611dcb565b5060a082015161236260a0850182611dcb565b5060c082015161237560c0850182611dcb565b5060e082015161238860e08501826122df565b50505050565b5f610100820190506123a25f8301846122ee565b92915050565b5f819050919050565b5f6123cb6123c66123c1846123a8565b6115fa565b6118f1565b9050919050565b6123db816123b1565b82525050565b5f6040820190506123f45f830185611c30565b61240160208301846123d2565b9392505050565b7f4e487b71000000000000000000000000000000000000000000000000000000005f52601260045260245ffd5b5f61243f826118f1565b915061244a836118f1565b92508261245a57612459612408565b5b828204905092915050565b5f819050919050565b5f61248861248361247e84612465565b6115fa565b6118f1565b9050919050565b6124988161246e565b82525050565b5f81519050919050565b5f819050602082019050919050565b5f6124c283836122c1565b60208301905092915050565b5f602082019050919050565b5f6124e48261249e565b6124ee8185611ce4565b93506124f9836124a8565b805f5b8381101561252957815161251088826124b7565b975061251b836124ce565b9250506001810190506124fc565b5085935050505092915050565b5f60a0820190506125495f830188611c08565b612556602083018761248f565b818103604083015261256881866124da565b90506125776060830185611c30565b6125846080830184611c08565b9695505050505050565b5f6125a061259b846118c6565b61179c565b905080838252602082019050602084028301858111156125c3576125c26117e1565b5b835b818110156125ec57806125d8888261225b565b8452602084019350506020810190506125c5565b5050509392505050565b5f82601f83011261260a5761260961172a565b5b815161261a84826020860161258e565b91505092915050565b5f6020828403121561263857612637611722565b5b5f82015167ffffffffffffffff81111561265557612654611726565b5b612661848285016125f6565b91505092915050565b5f60408201905061267d5f830185611c08565b818103602083015261268f81846124da565b90509392505050565b5f60a0820190506126ab5f830188611c08565b6126b86020830187611c08565b81810360408301526126ca81866124da565b90506126d96060830185611c30565b6126e66080830184611c08565b9695505050505050565b5f6040820190506127035f830185611c08565b6127106020830184611c08565b9392505050565b5f6040820190508181035f83015261272f81856121a0565b905061273e6020830184611c08565b9392505050565b7f4e487b71000000000000000000000000000000000000000000000000000000005f52605160045260245ffdfea26469706673582212200f2e8dad234672c2c1b3733748e4a58f010fc97f1c9de6500f07c12ef7c1c84d64736f6c63430008160033",
			"opcodes": "PUSH1 0xA0 PUSH1 0x40 MSTORE CALLVALUE DUP1 ISZERO PUSH2 0xF JUMPI PUSH0 DUP1 REVERT JUMPDEST POP PUSH20 0xBA12222222228D8BA445958A75A0704D566BF2C8 PUSH0 DUP1 PUSH2 0x100 EXP DUP2 SLOAD DUP2 PUSH20 0xFFFFFFFFFFFFFFFFFFFFFFFFFFFFFFFFFFFFFFFF MUL NOT AND SWAP1 DUP4 PUSH20 0xFFFFFFFFFFFFFFFFFFFFFFFFFFFFFFFFFFFFFFFF AND MUL OR SWAP1 SSTORE POP PUSH20 0x68B3465833FB72A70ECDF485E0E4C7BD8665FC45 PUSH20 0xFFFFFFFFFFFFFFFFFFFFFFFFFFFFFFFFFFFFFFFF AND PUSH1 0x80 DUP2 PUSH20 0xFFFFFFFFFFFFFFFFFFFFFFFFFFFFFFFFFFFFFFFF AND DUP2 MSTORE POP POP PUSH20 0x7A250D5630B4CF539739DF2C5DACB4C659F2488D PUSH1 0x1 PUSH0 PUSH2 0x100 EXP DUP2 SLOAD DUP2 PUSH20 0xFFFFFFFFFFFFFFFFFFFFFFFFFFFFFFFFFFFFFFFF MUL NOT AND SWAP1 DUP4 PUSH20 0xFFFFFFFFFFFFFFFFFFFFFFFFFFFFFFFFFFFFFFFF AND MUL OR SWAP1 SSTORE POP PUSH20 0x1B02DA8CB0D097EB8D57A175B88C7D8B47997506 PUSH1 0x2 PUSH0 PUSH2 0x100 EXP DUP2 SLOAD DUP2 PUSH20 0xFFFFFFFFFFFFFFFFFFFFFFFFFFFFFFFFFFFFFFFF MUL NOT AND SWAP1 DUP4 PUSH20 0xFFFFFFFFFFFFFFFFFFFFFFFFFFFFFFFFFFFFFFFF AND MUL OR SWAP1 SSTORE POP PUSH20 0xB27308F9F90D607463BB33EA1BEBB41C27CE5AB6 PUSH1 0x3 PUSH0 PUSH2 0x100 EXP DUP2 SLOAD DUP2 PUSH20 0xFFFFFFFFFFFFFFFFFFFFFFFFFFFFFFFFFFFFFFFF MUL NOT AND SWAP1 DUP4 PUSH20 0xFFFFFFFFFFFFFFFFFFFFFFFFFFFFFFFFFFFFFFFF AND MUL OR SWAP1 SSTORE POP PUSH1 0x80 MLOAD PUSH2 0x27A8 PUSH2 0x1D4 PUSH0 CODECOPY PUSH0 DUP2 DUP2 PUSH2 0x185 ADD MSTORE DUP2 DUP2 PUSH2 0x9EB ADD MSTORE DUP2 DUP2 PUSH2 0xC5D ADD MSTORE PUSH2 0xCDF ADD MSTORE PUSH2 0x27A8 PUSH0 RETURN INVALID PUSH1 0x80 PUSH1 0x40 MSTORE CALLVALUE DUP1 ISZERO PUSH2 0xF JUMPI PUSH0 DUP1 REVERT JUMPDEST POP PUSH1 0x4 CALLDATASIZE LT PUSH2 0x7B JUMPI PUSH0 CALLDATALOAD PUSH1 0xE0 SHR DUP1 PUSH4 0x57099985 GT PUSH2 0x59 JUMPI DUP1 PUSH4 0x57099985 EQ PUSH2 0xD9 JUMPI DUP1 PUSH4 0xC6BBD5A7 EQ PUSH2 0xE3 JUMPI DUP1 PUSH4 0xE9240C2D EQ PUSH2 0x101 JUMPI DUP1 PUSH4 0xF04F2707 EQ PUSH2 0x11F JUMPI PUSH2 0x7B JUMP JUMPDEST DUP1 PUSH4 0x158274A5 EQ PUSH2 0x7F JUMPI DUP1 PUSH4 0x1694505E EQ PUSH2 0x9D JUMPI DUP1 PUSH4 0x2C76D7A6 EQ PUSH2 0xBB JUMPI JUMPDEST PUSH0 DUP1 REVERT JUMPDEST PUSH2 0x87 PUSH2 0x13B JUMP JUMPDEST PUSH1 0x40 MLOAD PUSH2 0x94 SWAP2 SWAP1 PUSH2 0x1655 JUMP JUMPDEST PUSH1 0x40 MLOAD DUP1 SWAP2 SUB SWAP1 RETURN JUMPDEST PUSH2 0xA5 PUSH2 0x15E JUMP JUMPDEST PUSH1 0x40 MLOAD PUSH2 0xB2 SWAP2 SWAP1 PUSH2 0x168E JUMP JUMPDEST PUSH1 0x40 MLOAD DUP1 SWAP2 SUB SWAP1 RETURN JUMPDEST PUSH2 0xC3 PUSH2 0x183 JUMP JUMPDEST PUSH1 0x40 MLOAD PUSH2 0xD0 SWAP2 SWAP1 PUSH2 0x16C7 JUMP JUMPDEST PUSH1 0x40 MLOAD DUP1 SWAP2 SUB SWAP1 RETURN JUMPDEST PUSH2 0xE1 PUSH2 0x1A7 JUMP JUMPDEST STOP JUMPDEST PUSH2 0xEB PUSH2 0x467 JUMP JUMPDEST PUSH1 0x40 MLOAD PUSH2 0xF8 SWAP2 SWAP1 PUSH2 0x1700 JUMP JUMPDEST PUSH1 0x40 MLOAD DUP1 SWAP2 SUB SWAP1 RETURN JUMPDEST PUSH2 0x109 PUSH2 0x48C JUMP JUMPDEST PUSH1 0x40 MLOAD PUSH2 0x116 SWAP2 SWAP1 PUSH2 0x168E JUMP JUMPDEST PUSH1 0x40 MLOAD DUP1 SWAP2 SUB SWAP1 RETURN JUMPDEST PUSH2 0x139 PUSH1 0x4 DUP1 CALLDATASIZE SUB DUP2 ADD SWAP1 PUSH2 0x134 SWAP2 SWAP1 PUSH2 0x1A69 JUMP JUMPDEST PUSH2 0x4B1 JUMP JUMPDEST STOP JUMPDEST PUSH0 DUP1 SLOAD SWAP1 PUSH2 0x100 EXP SWAP1 DIV PUSH20 0xFFFFFFFFFFFFFFFFFFFFFFFFFFFFFFFFFFFFFFFF AND DUP2 JUMP JUMPDEST PUSH1 0x1 PUSH0 SWAP1 SLOAD SWAP1 PUSH2 0x100 EXP SWAP1 DIV PUSH20 0xFFFFFFFFFFFFFFFFFFFFFFFFFFFFFFFFFFFFFFFF AND DUP2 JUMP JUMPDEST PUSH32 0x0 DUP2 JUMP JUMPDEST PUSH0 PUSH1 0x1 PUSH8 0xFFFFFFFFFFFFFFFF DUP2 GT ISZERO PUSH2 0x1C3 JUMPI PUSH2 0x1C2 PUSH2 0x173E JUMP JUMPDEST JUMPDEST PUSH1 0x40 MLOAD SWAP1 DUP1 DUP3 MSTORE DUP1 PUSH1 0x20 MUL PUSH1 0x20 ADD DUP3 ADD PUSH1 0x40 MSTORE DUP1 ISZERO PUSH2 0x1F1 JUMPI DUP2 PUSH1 0x20 ADD PUSH1 0x20 DUP3 MUL DUP1 CALLDATASIZE DUP4 CALLDATACOPY DUP1 DUP3 ADD SWAP2 POP POP SWAP1 POP JUMPDEST POP SWAP1 POP PUSH0 PUSH1 0x1 PUSH8 0xFFFFFFFFFFFFFFFF DUP2 GT ISZERO PUSH2 0x210 JUMPI PUSH2 0x20F PUSH2 0x173E JUMP JUMPDEST JUMPDEST PUSH1 0x40 MLOAD SWAP1 DUP1 DUP3 MSTORE DUP1 PUSH1 0x20 MUL PUSH1 0x20 ADD DUP3 ADD PUSH1 0x40 MSTORE DUP1 ISZERO PUSH2 0x23E JUMPI DUP2 PUSH1 0x20 ADD PUSH1 0x20 DUP3 MUL DUP1 CALLDATASIZE DUP4 CALLDATACOPY DUP1 DUP3 ADD SWAP2 POP POP SWAP1 POP JUMPDEST POP SWAP1 POP PUSH20 0x82AF49447D8A07E3BD95BD0D56F35241523FBAB1 DUP3 PUSH0 DUP2 MLOAD DUP2 LT PUSH2 0x269 JUMPI PUSH2 0x268 PUSH2 0x1B3D JUMP JUMPDEST JUMPDEST PUSH1 0x20 MUL PUSH1 0x20 ADD ADD SWAP1 PUSH20 0xFFFFFFFFFFFFFFFFFFFFFFFFFFFFFFFFFFFFFFFF AND SWAP1 DUP2 PUSH20 0xFFFFFFFFFFFFFFFFFFFFFFFFFFFFFFFFFFFFFFFF AND DUP2 MSTORE POP POP PUSH2 0x2710 DUP2 PUSH0 DUP2 MLOAD DUP2 LT PUSH2 0x2B9 JUMPI PUSH2 0x2B8 PUSH2 0x1B3D JUMP JUMPDEST JUMPDEST PUSH1 0x20 MUL PUSH1 0x20 ADD ADD DUP2 DUP2 MSTORE POP POP DUP1 MLOAD DUP3 MLOAD EQ PUSH2 0x309 JUMPI PUSH1 0x40 MLOAD PUSH32 0x8C379A000000000000000000000000000000000000000000000000000000000 DUP2 MSTORE PUSH1 0x4 ADD PUSH2 0x300 SWAP1 PUSH2 0x1BEA JUMP JUMPDEST PUSH1 0x40 MLOAD DUP1 SWAP2 SUB SWAP1 REVERT JUMPDEST DUP2 PUSH0 DUP2 MLOAD DUP2 LT PUSH2 0x31C JUMPI PUSH2 0x31B PUSH2 0x1B3D JUMP JUMPDEST JUMPDEST PUSH1 0x20 MUL PUSH1 0x20 ADD ADD MLOAD PUSH20 0xFFFFFFFFFFFFFFFFFFFFFFFFFFFFFFFFFFFFFFFF AND PUSH32 0x591AD3206C771AD9F89E5FCE3BA3FD39FE164DA7093471FCE70EAF468C495F3C DUP3 PUSH0 DUP2 MLOAD DUP2 LT PUSH2 0x36E JUMPI PUSH2 0x36D PUSH2 0x1B3D JUMP JUMPDEST JUMPDEST PUSH1 0x20 MUL PUSH1 0x20 ADD ADD MLOAD PUSH1 0x40 MLOAD PUSH2 0x383 SWAP2 SWAP1 PUSH2 0x1C17 JUMP JUMPDEST PUSH1 0x40 MLOAD DUP1 SWAP2 SUB SWAP1 LOG2 PUSH0 DUP1 SLOAD SWAP1 PUSH2 0x100 EXP SWAP1 DIV PUSH20 0xFFFFFFFFFFFFFFFFFFFFFFFFFFFFFFFFFFFFFFFF AND PUSH20 0xFFFFFFFFFFFFFFFFFFFFFFFFFFFFFFFFFFFFFFFF AND PUSH4 0x5C38449E ADDRESS DUP5 DUP5 PUSH20 0x82AF49447D8A07E3BD95BD0D56F35241523FBAB1 PUSH20 0xDA10009CBD5D07DD0CECC66161FC93D7C9000DA1 PUSH2 0x1F4 PUSH1 0x40 MLOAD PUSH1 0x20 ADD PUSH2 0x408 SWAP4 SWAP3 SWAP2 SWAP1 PUSH2 0x1C85 JUMP JUMPDEST PUSH1 0x40 MLOAD PUSH1 0x20 DUP2 DUP4 SUB SUB DUP2 MSTORE SWAP1 PUSH1 0x40 MSTORE PUSH1 0x40 MLOAD DUP6 PUSH4 0xFFFFFFFF AND PUSH1 0xE0 SHL DUP2 MSTORE PUSH1 0x4 ADD PUSH2 0x436 SWAP5 SWAP4 SWAP3 SWAP2 SWAP1 PUSH2 0x1ED3 JUMP JUMPDEST PUSH0 PUSH1 0x40 MLOAD DUP1 DUP4 SUB DUP2 PUSH0 DUP8 DUP1 EXTCODESIZE ISZERO DUP1 ISZERO PUSH2 0x44D JUMPI PUSH0 DUP1 REVERT JUMPDEST POP GAS CALL ISZERO DUP1 ISZERO PUSH2 0x45F JUMPI RETURNDATASIZE PUSH0 DUP1 RETURNDATACOPY RETURNDATASIZE PUSH0 REVERT JUMPDEST POP POP POP POP POP POP JUMP JUMPDEST PUSH1 0x3 PUSH0 SWAP1 SLOAD SWAP1 PUSH2 0x100 EXP SWAP1 DIV PUSH20 0xFFFFFFFFFFFFFFFFFFFFFFFFFFFFFFFFFFFFFFFF AND DUP2 JUMP JUMPDEST PUSH1 0x2 PUSH0 SWAP1 SLOAD SWAP1 PUSH2 0x100 EXP SWAP1 DIV PUSH20 0xFFFFFFFFFFFFFFFFFFFFFFFFFFFFFFFFFFFFFFFF AND DUP2 JUMP JUMPDEST PUSH0 DUP1 SLOAD SWAP1 PUSH2 0x100 EXP SWAP1 DIV PUSH20 0xFFFFFFFFFFFFFFFFFFFFFFFFFFFFFFFFFFFFFFFF AND PUSH20 0xFFFFFFFFFFFFFFFFFFFFFFFFFFFFFFFFFFFFFFFF AND CALLER PUSH20 0xFFFFFFFFFFFFFFFFFFFFFFFFFFFFFFFFFFFFFFFF AND EQ PUSH2 0x53E JUMPI PUSH1 0x40 MLOAD PUSH32 0x8C379A000000000000000000000000000000000000000000000000000000000 DUP2 MSTORE PUSH1 0x4 ADD PUSH2 0x535 SWAP1 PUSH2 0x1F9B JUMP JUMPDEST PUSH1 0x40 MLOAD DUP1 SWAP2 SUB SWAP1 REVERT JUMPDEST PUSH0 DUP5 PUSH0 DUP2 MLOAD DUP2 LT PUSH2 0x552 JUMPI PUSH2 0x551 PUSH2 0x1B3D JUMP JUMPDEST JUMPDEST PUSH1 0x20 MUL PUSH1 0x20 ADD ADD MLOAD SWAP1 POP PUSH0 DUP5 PUSH0 DUP2 MLOAD DUP2 LT PUSH2 0x570 JUMPI PUSH2 0x56F PUSH2 0x1B3D JUMP JUMPDEST JUMPDEST PUSH1 0x20 MUL PUSH1 0x20 ADD ADD MLOAD SWAP1 POP PUSH0 DUP1 PUSH0 DUP6 DUP1 PUSH1 0x20 ADD SWAP1 MLOAD DUP2 ADD SWAP1 PUSH2 0x591 SWAP2 SWAP1 PUSH2 0x202C JUMP JUMPDEST SWAP3 POP SWAP3 POP SWAP3 POP PUSH2 0x5D5 PUSH1 0x40 MLOAD DUP1 PUSH1 0x40 ADD PUSH1 0x40 MSTORE DUP1 PUSH1 0xB DUP2 MSTORE PUSH1 0x20 ADD PUSH32 0x6265666F72652073776170000000000000000000000000000000000000000000 DUP2 MSTORE POP PUSH2 0x890 JUMP JUMPDEST PUSH2 0x61B PUSH1 0x40 MLOAD DUP1 PUSH1 0x40 ADD PUSH1 0x40 MSTORE DUP1 PUSH1 0xB DUP2 MSTORE PUSH1 0x20 ADD PUSH32 0x436865636B203A20256420000000000000000000000000000000000000000000 DUP2 MSTORE POP DUP5 DUP4 PUSH3 0xFFFFFF AND DUP8 PUSH2 0x929 JUMP JUMPDEST PUSH0 DUP1 PUSH2 0x629 DUP6 DUP6 DUP6 DUP10 PUSH2 0x9CB JUMP JUMPDEST SWAP2 POP SWAP2 POP DUP2 PUSH2 0x640 JUMPI PUSH2 0x63D DUP6 DUP6 DUP9 PUSH2 0xDC7 JUMP JUMPDEST SWAP1 POP JUMPDEST PUSH2 0x67E PUSH1 0x40 MLOAD DUP1 PUSH1 0x40 ADD PUSH1 0x40 MSTORE DUP1 PUSH1 0xA DUP2 MSTORE PUSH1 0x20 ADD PUSH32 0x6166746572207377617000000000000000000000000000000000000000000000 DUP2 MSTORE POP PUSH2 0x890 JUMP JUMPDEST PUSH0 PUSH2 0x68A DUP6 DUP8 DUP5 PUSH2 0x112D JUMP JUMPDEST SWAP1 POP PUSH0 DUP11 PUSH0 DUP2 MLOAD DUP2 LT PUSH2 0x6A0 JUMPI PUSH2 0x69F PUSH2 0x1B3D JUMP JUMPDEST JUMPDEST PUSH1 0x20 MUL PUSH1 0x20 ADD ADD MLOAD DUP9 PUSH2 0x6B3 SWAP2 SWAP1 PUSH2 0x20A9 JUMP JUMPDEST SWAP1 POP DUP9 PUSH20 0xFFFFFFFFFFFFFFFFFFFFFFFFFFFFFFFFFFFFFFFF AND PUSH4 0xA9059CBB PUSH0 DUP1 SLOAD SWAP1 PUSH2 0x100 EXP SWAP1 DIV PUSH20 0xFFFFFFFFFFFFFFFFFFFFFFFFFFFFFFFFFFFFFFFF AND DUP4 PUSH1 0x40 MLOAD DUP4 PUSH4 0xFFFFFFFF AND PUSH1 0xE0 SHL DUP2 MSTORE PUSH1 0x4 ADD PUSH2 0x70F SWAP3 SWAP2 SWAP1 PUSH2 0x20DC JUMP JUMPDEST PUSH1 0x20 PUSH1 0x40 MLOAD DUP1 DUP4 SUB DUP2 PUSH0 DUP8 GAS CALL ISZERO DUP1 ISZERO PUSH2 0x72B JUMPI RETURNDATASIZE PUSH0 DUP1 RETURNDATACOPY RETURNDATASIZE PUSH0 REVERT JUMPDEST POP POP POP POP PUSH1 0x40 MLOAD RETURNDATASIZE PUSH1 0x1F NOT PUSH1 0x1F DUP3 ADD AND DUP3 ADD DUP1 PUSH1 0x40 MSTORE POP DUP2 ADD SWAP1 PUSH2 0x74F SWAP2 SWAP1 PUSH2 0x2138 JUMP JUMPDEST POP DUP9 PUSH20 0xFFFFFFFFFFFFFFFFFFFFFFFFFFFFFFFFFFFFFFFF AND PUSH32 0xC200A1F31DD659E356E0F112C82558E25F49F7B0F84438691CD96F5CB3558823 DUP3 PUSH1 0x40 MLOAD PUSH2 0x796 SWAP2 SWAP1 PUSH2 0x1C17 JUMP JUMPDEST PUSH1 0x40 MLOAD DUP1 SWAP2 SUB SWAP1 LOG2 PUSH0 DUP2 DUP4 PUSH2 0x7AB SWAP2 SWAP1 PUSH2 0x2163 JUMP JUMPDEST SWAP1 POP PUSH0 DUP2 GT ISZERO PUSH2 0x880 JUMPI DUP8 PUSH20 0xFFFFFFFFFFFFFFFFFFFFFFFFFFFFFFFFFFFFFFFF AND PUSH4 0xA9059CBB CALLER DUP4 PUSH1 0x40 MLOAD DUP4 PUSH4 0xFFFFFFFF AND PUSH1 0xE0 SHL DUP2 MSTORE PUSH1 0x4 ADD PUSH2 0x7F0 SWAP3 SWAP2 SWAP1 PUSH2 0x20DC JUMP JUMPDEST PUSH1 0x20 PUSH1 0x40 MLOAD DUP1 DUP4 SUB DUP2 PUSH0 DUP8 GAS CALL ISZERO DUP1 ISZERO PUSH2 0x80C JUMPI RETURNDATASIZE PUSH0 DUP1 RETURNDATACOPY RETURNDATASIZE PUSH0 REVERT JUMPDEST POP POP POP POP PUSH1 0x40 MLOAD RETURNDATASIZE PUSH1 0x1F NOT PUSH1 0x1F DUP3 ADD AND DUP3 ADD DUP1 PUSH1 0x40 MSTORE POP DUP2 ADD SWAP1 PUSH2 0x830 SWAP2 SWAP1 PUSH2 0x2138 JUMP JUMPDEST POP DUP8 PUSH20 0xFFFFFFFFFFFFFFFFFFFFFFFFFFFFFFFFFFFFFFFF AND PUSH32 0x5314098314219D6E1CE8E41FC5E6EC1CE2F06A9D583079FB6619AF9BF6EFDF41 DUP3 PUSH1 0x40 MLOAD PUSH2 0x877 SWAP2 SWAP1 PUSH2 0x1C17 JUMP JUMPDEST PUSH1 0x40 MLOAD DUP1 SWAP2 SUB SWAP1 LOG2 JUMPDEST POP POP POP POP POP POP POP POP POP POP POP POP POP POP JUMP JUMPDEST PUSH2 0x926 DUP2 PUSH1 0x40 MLOAD PUSH1 0x24 ADD PUSH2 0x8A4 SWAP2 SWAP1 PUSH2 0x21D8 JUMP JUMPDEST PUSH1 0x40 MLOAD PUSH1 0x20 DUP2 DUP4 SUB SUB DUP2 MSTORE SWAP1 PUSH1 0x40 MSTORE PUSH32 0x41304FAC00000000000000000000000000000000000000000000000000000000 PUSH28 0xFFFFFFFFFFFFFFFFFFFFFFFFFFFFFFFFFFFFFFFFFFFFFFFFFFFFFFFF NOT AND PUSH1 0x20 DUP3 ADD DUP1 MLOAD PUSH28 0xFFFFFFFFFFFFFFFFFFFFFFFFFFFFFFFFFFFFFFFFFFFFFFFFFFFFFFFF DUP4 DUP2 DUP4 AND OR DUP4 MSTORE POP POP POP POP PUSH2 0x14F1 JUMP JUMPDEST POP JUMP JUMPDEST PUSH2 0x9C5 DUP5 DUP5 DUP5 DUP5 PUSH1 0x40 MLOAD PUSH1 0x24 ADD PUSH2 0x943 SWAP5 SWAP4 SWAP3 SWAP2 SWAP1 PUSH2 0x21F8 JUMP JUMPDEST PUSH1 0x40 MLOAD PUSH1 0x20 DUP2 DUP4 SUB SUB DUP2 MSTORE SWAP1 PUSH1 0x40 MSTORE PUSH32 0xF8F51B1E00000000000000000000000000000000000000000000000000000000 PUSH28 0xFFFFFFFFFFFFFFFFFFFFFFFFFFFFFFFFFFFFFFFFFFFFFFFFFFFFFFFF NOT AND PUSH1 0x20 DUP3 ADD DUP1 MLOAD PUSH28 0xFFFFFFFFFFFFFFFFFFFFFFFFFFFFFFFFFFFFFFFFFFFFFFFFFFFFFFFF DUP4 DUP2 DUP4 AND OR DUP4 MSTORE POP POP POP POP PUSH2 0x14F1 JUMP JUMPDEST POP POP POP POP JUMP JUMPDEST PUSH0 DUP1 DUP6 PUSH20 0xFFFFFFFFFFFFFFFFFFFFFFFFFFFFFFFFFFFFFFFF AND PUSH4 0x95EA7B3 PUSH32 0x0 DUP6 PUSH1 0x40 MLOAD DUP4 PUSH4 0xFFFFFFFF AND PUSH1 0xE0 SHL DUP2 MSTORE PUSH1 0x4 ADD PUSH2 0xA28 SWAP3 SWAP2 SWAP1 PUSH2 0x20DC JUMP JUMPDEST PUSH1 0x20 PUSH1 0x40 MLOAD DUP1 DUP4 SUB DUP2 PUSH0 DUP8 GAS CALL ISZERO DUP1 ISZERO PUSH2 0xA44 JUMPI RETURNDATASIZE PUSH0 DUP1 RETURNDATACOPY RETURNDATASIZE PUSH0 REVERT JUMPDEST POP POP POP POP PUSH1 0x40 MLOAD RETURNDATASIZE PUSH1 0x1F NOT PUSH1 0x1F DUP3 ADD AND DUP3 ADD DUP1 PUSH1 0x40 MSTORE POP DUP2 ADD SWAP1 PUSH2 0xA68 SWAP2 SWAP1 PUSH2 0x2138 JUMP JUMPDEST POP PUSH0 PUSH1 0x40 MLOAD DUP1 PUSH2 0x100 ADD PUSH1 0x40 MSTORE DUP1 DUP9 PUSH20 0xFFFFFFFFFFFFFFFFFFFFFFFFFFFFFFFFFFFFFFFF AND DUP2 MSTORE PUSH1 0x20 ADD DUP8 PUSH20 0xFFFFFFFFFFFFFFFFFFFFFFFFFFFFFFFFFFFFFFFF AND DUP2 MSTORE PUSH1 0x20 ADD DUP7 PUSH3 0xFFFFFF AND DUP2 MSTORE PUSH1 0x20 ADD ADDRESS PUSH20 0xFFFFFFFFFFFFFFFFFFFFFFFFFFFFFFFFFFFFFFFF AND DUP2 MSTORE PUSH1 0x20 ADD PUSH2 0x258 TIMESTAMP PUSH2 0xAE3 SWAP2 SWAP1 PUSH2 0x20A9 JUMP JUMPDEST DUP2 MSTORE PUSH1 0x20 ADD DUP6 DUP2 MSTORE PUSH1 0x20 ADD PUSH1 0x1 DUP2 MSTORE PUSH1 0x20 ADD PUSH0 PUSH20 0xFFFFFFFFFFFFFFFFFFFFFFFFFFFFFFFFFFFFFFFF AND DUP2 MSTORE POP SWAP1 POP PUSH2 0xB4F PUSH1 0x40 MLOAD DUP1 PUSH1 0x40 ADD PUSH1 0x40 MSTORE DUP1 PUSH1 0x14 DUP2 MSTORE PUSH1 0x20 ADD PUSH32 0x496E7369646520746865207633206D6574686F64000000000000000000000000 DUP2 MSTORE POP PUSH2 0x890 JUMP JUMPDEST PUSH2 0xC05 PUSH1 0x40 MLOAD DUP1 PUSH1 0x40 ADD PUSH1 0x40 MSTORE DUP1 PUSH1 0xD DUP2 MSTORE PUSH1 0x20 ADD PUSH32 0x42616C616E6365206F66203A2000000000000000000000000000000000000000 DUP2 MSTORE POP DUP9 PUSH20 0xFFFFFFFFFFFFFFFFFFFFFFFFFFFFFFFFFFFFFFFF AND PUSH4 0x70A08231 CALLER PUSH1 0x40 MLOAD DUP3 PUSH4 0xFFFFFFFF AND PUSH1 0xE0 SHL DUP2 MSTORE PUSH1 0x4 ADD PUSH2 0xBC1 SWAP2 SWAP1 PUSH2 0x2242 JUMP JUMPDEST PUSH1 0x20 PUSH1 0x40 MLOAD DUP1 DUP4 SUB DUP2 DUP7 GAS STATICCALL ISZERO DUP1 ISZERO PUSH2 0xBDC JUMPI RETURNDATASIZE PUSH0 DUP1 RETURNDATACOPY RETURNDATASIZE PUSH0 REVERT JUMPDEST POP POP POP POP PUSH1 0x40 MLOAD RETURNDATASIZE PUSH1 0x1F NOT PUSH1 0x1F DUP3 ADD AND DUP3 ADD DUP1 PUSH1 0x40 MSTORE POP DUP2 ADD SWAP1 PUSH2 0xC00 SWAP2 SWAP1 PUSH2 0x226F JUMP JUMPDEST PUSH2 0x150B JUMP JUMPDEST PUSH2 0xCDD PUSH1 0x40 MLOAD DUP1 PUSH1 0x40 ADD PUSH1 0x40 MSTORE DUP1 PUSH1 0xC DUP2 MSTORE PUSH1 0x20 ADD PUSH32 0x416C6C6F77616E6365203A200000000000000000000000000000000000000000 DUP2 MSTORE POP DUP9 PUSH20 0xFFFFFFFFFFFFFFFFFFFFFFFFFFFFFFFFFFFFFFFF AND PUSH4 0xDD62ED3E ADDRESS PUSH32 0x0 PUSH1 0x40 MLOAD DUP4 PUSH4 0xFFFFFFFF AND PUSH1 0xE0 SHL DUP2 MSTORE PUSH1 0x4 ADD PUSH2 0xC99 SWAP3 SWAP2 SWAP1 PUSH2 0x229A JUMP JUMPDEST PUSH1 0x20 PUSH1 0x40 MLOAD DUP1 DUP4 SUB DUP2 DUP7 GAS STATICCALL ISZERO DUP1 ISZERO PUSH2 0xCB4 JUMPI RETURNDATASIZE PUSH0 DUP1 RETURNDATACOPY RETURNDATASIZE PUSH0 REVERT JUMPDEST POP POP POP POP PUSH1 0x40 MLOAD RETURNDATASIZE PUSH1 0x1F NOT PUSH1 0x1F DUP3 ADD AND DUP3 ADD DUP1 PUSH1 0x40 MSTORE POP DUP2 ADD SWAP1 PUSH2 0xCD8 SWAP2 SWAP1 PUSH2 0x226F JUMP JUMPDEST PUSH2 0x150B JUMP JUMPDEST PUSH32 0x0 PUSH20 0xFFFFFFFFFFFFFFFFFFFFFFFFFFFFFFFFFFFFFFFF AND PUSH4 0x414BF389 DUP3 PUSH1 0x40 MLOAD DUP3 PUSH4 0xFFFFFFFF AND PUSH1 0xE0 SHL DUP2 MSTORE PUSH1 0x4 ADD PUSH2 0xD36 SWAP2 SWAP1 PUSH2 0x238E JUMP JUMPDEST PUSH1 0x20 PUSH1 0x40 MLOAD DUP1 DUP4 SUB DUP2 PUSH0 DUP8 GAS CALL ISZERO DUP1 ISZERO PUSH2 0xD52 JUMPI RETURNDATASIZE PUSH0 DUP1 RETURNDATACOPY RETURNDATASIZE PUSH0 REVERT JUMPDEST POP POP POP POP PUSH1 0x40 MLOAD RETURNDATASIZE PUSH1 0x1F NOT PUSH1 0x1F DUP3 ADD AND DUP3 ADD DUP1 PUSH1 0x40 MSTORE POP DUP2 ADD SWAP1 PUSH2 0xD76 SWAP2 SWAP1 PUSH2 0x226F JUMP JUMPDEST SWAP2 POP PUSH2 0xDB6 PUSH1 0x40 MLOAD DUP1 PUSH1 0x40 ADD PUSH1 0x40 MSTORE DUP1 PUSH1 0xD DUP2 MSTORE PUSH1 0x20 ADD PUSH32 0x4166746572207633207377617000000000000000000000000000000000000000 DUP2 MSTORE POP PUSH2 0x890 JUMP JUMPDEST PUSH1 0x1 PUSH0 SWAP3 POP SWAP3 POP POP SWAP5 POP SWAP5 SWAP3 POP POP POP JUMP JUMPDEST PUSH0 DUP1 PUSH1 0x2 PUSH8 0xFFFFFFFFFFFFFFFF DUP2 GT ISZERO PUSH2 0xDE4 JUMPI PUSH2 0xDE3 PUSH2 0x173E JUMP JUMPDEST JUMPDEST PUSH1 0x40 MLOAD SWAP1 DUP1 DUP3 MSTORE DUP1 PUSH1 0x20 MUL PUSH1 0x20 ADD DUP3 ADD PUSH1 0x40 MSTORE DUP1 ISZERO PUSH2 0xE12 JUMPI DUP2 PUSH1 0x20 ADD PUSH1 0x20 DUP3 MUL DUP1 CALLDATASIZE DUP4 CALLDATACOPY DUP1 DUP3 ADD SWAP2 POP POP SWAP1 POP JUMPDEST POP SWAP1 POP DUP5 DUP2 PUSH0 DUP2 MLOAD DUP2 LT PUSH2 0xE29 JUMPI PUSH2 0xE28 PUSH2 0x1B3D JUMP JUMPDEST JUMPDEST PUSH1 0x20 MUL PUSH1 0x20 ADD ADD SWAP1 PUSH20 0xFFFFFFFFFFFFFFFFFFFFFFFFFFFFFFFFFFFFFFFF AND SWAP1 DUP2 PUSH20 0xFFFFFFFFFFFFFFFFFFFFFFFFFFFFFFFFFFFFFFFF AND DUP2 MSTORE POP POP DUP4 DUP2 PUSH1 0x1 DUP2 MLOAD DUP2 LT PUSH2 0xE78 JUMPI PUSH2 0xE77 PUSH2 0x1B3D JUMP JUMPDEST JUMPDEST PUSH1 0x20 MUL PUSH1 0x20 ADD ADD SWAP1 PUSH20 0xFFFFFFFFFFFFFFFFFFFFFFFFFFFFFFFFFFFFFFFF AND SWAP1 DUP2 PUSH20 0xFFFFFFFFFFFFFFFFFFFFFFFFFFFFFFFFFFFFFFFF AND DUP2 MSTORE POP POP DUP5 PUSH20 0xFFFFFFFFFFFFFFFFFFFFFFFFFFFFFFFFFFFFFFFF AND PUSH4 0x95EA7B3 PUSH1 0x1 PUSH0 SWAP1 SLOAD SWAP1 PUSH2 0x100 EXP SWAP1 DIV PUSH20 0xFFFFFFFFFFFFFFFFFFFFFFFFFFFFFFFFFFFFFFFF AND PUSH1 0xFD PUSH1 0x40 MLOAD DUP4 PUSH4 0xFFFFFFFF AND PUSH1 0xE0 SHL DUP2 MSTORE PUSH1 0x4 ADD PUSH2 0xF0F SWAP3 SWAP2 SWAP1 PUSH2 0x23E1 JUMP JUMPDEST PUSH1 0x20 PUSH1 0x40 MLOAD DUP1 DUP4 SUB DUP2 PUSH0 DUP8 GAS CALL ISZERO DUP1 ISZERO PUSH2 0xF2B JUMPI RETURNDATASIZE PUSH0 DUP1 RETURNDATACOPY RETURNDATASIZE PUSH0 REVERT JUMPDEST POP POP POP POP PUSH1 0x40 MLOAD RETURNDATASIZE PUSH1 0x1F NOT PUSH1 0x1F DUP3 ADD AND DUP3 ADD DUP1 PUSH1 0x40 MSTORE POP DUP2 ADD SWAP1 PUSH2 0xF4F SWAP2 SWAP1 PUSH2 0x2138 JUMP JUMPDEST POP PUSH2 0x1006 PUSH1 0x40 MLOAD DUP1 PUSH1 0x40 ADD PUSH1 0x40 MSTORE DUP1 PUSH1 0xD DUP2 MSTORE PUSH1 0x20 ADD PUSH32 0x42616C616E6365206F66203A2000000000000000000000000000000000000000 DUP2 MSTORE POP DUP7 PUSH20 0xFFFFFFFFFFFFFFFFFFFFFFFFFFFFFFFFFFFFFFFF AND PUSH4 0x70A08231 ADDRESS PUSH1 0x40 MLOAD DUP3 PUSH4 0xFFFFFFFF AND PUSH1 0xE0 SHL DUP2 MSTORE PUSH1 0x4 ADD PUSH2 0xFC2 SWAP2 SWAP1 PUSH2 0x2242 JUMP JUMPDEST PUSH1 0x20 PUSH1 0x40 MLOAD DUP1 DUP4 SUB DUP2 DUP7 GAS STATICCALL ISZERO DUP1 ISZERO PUSH2 0xFDD JUMPI RETURNDATASIZE PUSH0 DUP1 RETURNDATACOPY RETURNDATASIZE PUSH0 REVERT JUMPDEST POP POP POP POP PUSH1 0x40 MLOAD RETURNDATASIZE PUSH1 0x1F NOT PUSH1 0x1F DUP3 ADD AND DUP3 ADD DUP1 PUSH1 0x40 MSTORE POP DUP2 ADD SWAP1 PUSH2 0x1001 SWAP2 SWAP1 PUSH2 0x226F JUMP JUMPDEST PUSH2 0x150B JUMP JUMPDEST PUSH0 PUSH1 0x1 PUSH0 SWAP1 SLOAD SWAP1 PUSH2 0x100 EXP SWAP1 DIV PUSH20 0xFFFFFFFFFFFFFFFFFFFFFFFFFFFFFFFFFFFFFFFF AND PUSH20 0xFFFFFFFFFFFFFFFFFFFFFFFFFFFFFFFFFFFFFFFF AND PUSH4 0x38ED1739 PUSH1 0xA DUP7 PUSH2 0x1051 SWAP2 SWAP1 PUSH2 0x2435 JUMP JUMPDEST PUSH1 0x1 DUP6 ADDRESS PUSH2 0x258 TIMESTAMP PUSH2 0x1063 SWAP2 SWAP1 PUSH2 0x20A9 JUMP JUMPDEST PUSH1 0x40 MLOAD DUP7 PUSH4 0xFFFFFFFF AND PUSH1 0xE0 SHL DUP2 MSTORE PUSH1 0x4 ADD PUSH2 0x1083 SWAP6 SWAP5 SWAP4 SWAP3 SWAP2 SWAP1 PUSH2 0x2536 JUMP JUMPDEST PUSH0 PUSH1 0x40 MLOAD DUP1 DUP4 SUB DUP2 PUSH0 DUP8 GAS CALL ISZERO DUP1 ISZERO PUSH2 0x109E JUMPI RETURNDATASIZE PUSH0 DUP1 RETURNDATACOPY RETURNDATASIZE PUSH0 REVERT JUMPDEST POP POP POP POP PUSH1 0x40 MLOAD RETURNDATASIZE PUSH0 DUP3 RETURNDATACOPY RETURNDATASIZE PUSH1 0x1F NOT PUSH1 0x1F DUP3 ADD AND DUP3 ADD DUP1 PUSH1 0x40 MSTORE POP DUP2 ADD SWAP1 PUSH2 0x10C6 SWAP2 SWAP1 PUSH2 0x2623 JUMP JUMPDEST SWAP1 POP PUSH2 0x1106 PUSH1 0x40 MLOAD DUP1 PUSH1 0x40 ADD PUSH1 0x40 MSTORE DUP1 PUSH1 0xC DUP2 MSTORE PUSH1 0x20 ADD PUSH32 0x416674657253776170203A200000000000000000000000000000000000000000 DUP2 MSTORE POP PUSH2 0x890 JUMP JUMPDEST DUP1 PUSH1 0x1 DUP2 MLOAD DUP2 LT PUSH2 0x111A JUMPI PUSH2 0x1119 PUSH2 0x1B3D JUMP JUMPDEST JUMPDEST PUSH1 0x20 MUL PUSH1 0x20 ADD ADD MLOAD SWAP3 POP POP POP SWAP4 SWAP3 POP POP POP JUMP JUMPDEST PUSH0 DUP4 PUSH20 0xFFFFFFFFFFFFFFFFFFFFFFFFFFFFFFFFFFFFFFFF AND PUSH4 0x95EA7B3 PUSH1 0x2 PUSH0 SWAP1 SLOAD SWAP1 PUSH2 0x100 EXP SWAP1 DIV PUSH20 0xFFFFFFFFFFFFFFFFFFFFFFFFFFFFFFFFFFFFFFFF AND DUP5 PUSH1 0x40 MLOAD DUP4 PUSH4 0xFFFFFFFF AND PUSH1 0xE0 SHL DUP2 MSTORE PUSH1 0x4 ADD PUSH2 0x118A SWAP3 SWAP2 SWAP1 PUSH2 0x20DC JUMP JUMPDEST PUSH1 0x20 PUSH1 0x40 MLOAD DUP1 DUP4 SUB DUP2 PUSH0 DUP8 GAS CALL ISZERO DUP1 ISZERO PUSH2 0x11A6 JUMPI RETURNDATASIZE PUSH0 DUP1 RETURNDATACOPY RETURNDATASIZE PUSH0 REVERT JUMPDEST POP POP POP POP PUSH1 0x40 MLOAD RETURNDATASIZE PUSH1 0x1F NOT PUSH1 0x1F DUP3 ADD AND DUP3 ADD DUP1 PUSH1 0x40 MSTORE POP DUP2 ADD SWAP1 PUSH2 0x11CA SWAP2 SWAP1 PUSH2 0x2138 JUMP JUMPDEST POP PUSH0 PUSH1 0x2 PUSH8 0xFFFFFFFFFFFFFFFF DUP2 GT ISZERO PUSH2 0x11E7 JUMPI PUSH2 0x11E6 PUSH2 0x173E JUMP JUMPDEST JUMPDEST PUSH1 0x40 MLOAD SWAP1 DUP1 DUP3 MSTORE DUP1 PUSH1 0x20 MUL PUSH1 0x20 ADD DUP3 ADD PUSH1 0x40 MSTORE DUP1 ISZERO PUSH2 0x1215 JUMPI DUP2 PUSH1 0x20 ADD PUSH1 0x20 DUP3 MUL DUP1 CALLDATASIZE DUP4 CALLDATACOPY DUP1 DUP3 ADD SWAP2 POP POP SWAP1 POP JUMPDEST POP SWAP1 POP DUP5 DUP2 PUSH0 DUP2 MLOAD DUP2 LT PUSH2 0x122C JUMPI PUSH2 0x122B PUSH2 0x1B3D JUMP JUMPDEST JUMPDEST PUSH1 0x20 MUL PUSH1 0x20 ADD ADD SWAP1 PUSH20 0xFFFFFFFFFFFFFFFFFFFFFFFFFFFFFFFFFFFFFFFF AND SWAP1 DUP2 PUSH20 0xFFFFFFFFFFFFFFFFFFFFFFFFFFFFFFFFFFFFFFFF AND DUP2 MSTORE POP POP DUP4 DUP2 PUSH1 0x1 DUP2 MLOAD DUP2 LT PUSH2 0x127B JUMPI PUSH2 0x127A PUSH2 0x1B3D JUMP JUMPDEST JUMPDEST PUSH1 0x20 MUL PUSH1 0x20 ADD ADD SWAP1 PUSH20 0xFFFFFFFFFFFFFFFFFFFFFFFFFFFFFFFFFFFFFFFF AND SWAP1 DUP2 PUSH20 0xFFFFFFFFFFFFFFFFFFFFFFFFFFFFFFFFFFFFFFFF AND DUP2 MSTORE POP POP PUSH0 PUSH1 0x2 PUSH0 SWAP1 SLOAD SWAP1 PUSH2 0x100 EXP SWAP1 DIV PUSH20 0xFFFFFFFFFFFFFFFFFFFFFFFFFFFFFFFFFFFFFFFF AND PUSH20 0xFFFFFFFFFFFFFFFFFFFFFFFFFFFFFFFFFFFFFFFF AND PUSH4 0xD06CA61F DUP6 DUP5 PUSH1 0x40 MLOAD DUP4 PUSH4 0xFFFFFFFF AND PUSH1 0xE0 SHL DUP2 MSTORE PUSH1 0x4 ADD PUSH2 0x1312 SWAP3 SWAP2 SWAP1 PUSH2 0x266A JUMP JUMPDEST PUSH0 PUSH1 0x40 MLOAD DUP1 DUP4 SUB DUP2 DUP7 GAS STATICCALL ISZERO DUP1 ISZERO PUSH2 0x132C JUMPI RETURNDATASIZE PUSH0 DUP1 RETURNDATACOPY RETURNDATASIZE PUSH0 REVERT JUMPDEST POP POP POP POP PUSH1 0x40 MLOAD RETURNDATASIZE PUSH0 DUP3 RETURNDATACOPY RETURNDATASIZE PUSH1 0x1F NOT PUSH1 0x1F DUP3 ADD AND DUP3 ADD DUP1 PUSH1 0x40 MSTORE POP DUP2 ADD SWAP1 PUSH2 0x1354 SWAP2 SWAP1 PUSH2 0x2623 JUMP JUMPDEST SWAP1 POP PUSH0 DUP2 PUSH1 0x1 DUP2 MLOAD DUP2 LT PUSH2 0x136B JUMPI PUSH2 0x136A PUSH2 0x1B3D JUMP JUMPDEST JUMPDEST PUSH1 0x20 MUL PUSH1 0x20 ADD ADD MLOAD SWAP1 POP PUSH0 PUSH1 0x2 PUSH0 SWAP1 SLOAD SWAP1 PUSH2 0x100 EXP SWAP1 DIV PUSH20 0xFFFFFFFFFFFFFFFFFFFFFFFFFFFFFFFFFFFFFFFF AND PUSH20 0xFFFFFFFFFFFFFFFFFFFFFFFFFFFFFFFFFFFFFFFF AND PUSH4 0x38ED1739 DUP8 DUP5 DUP8 ADDRESS TIMESTAMP PUSH1 0x40 MLOAD DUP7 PUSH4 0xFFFFFFFF AND PUSH1 0xE0 SHL DUP2 MSTORE PUSH1 0x4 ADD PUSH2 0x13D8 SWAP6 SWAP5 SWAP4 SWAP3 SWAP2 SWAP1 PUSH2 0x2698 JUMP JUMPDEST PUSH0 PUSH1 0x40 MLOAD DUP1 DUP4 SUB DUP2 PUSH0 DUP8 GAS CALL ISZERO DUP1 ISZERO PUSH2 0x13F3 JUMPI RETURNDATASIZE PUSH0 DUP1 RETURNDATACOPY RETURNDATASIZE PUSH0 REVERT JUMPDEST POP POP POP POP PUSH1 0x40 MLOAD RETURNDATASIZE PUSH0 DUP3 RETURNDATACOPY RETURNDATASIZE PUSH1 0x1F NOT PUSH1 0x1F DUP3 ADD AND DUP3 ADD DUP1 PUSH1 0x40 MSTORE POP DUP2 ADD SWAP1 PUSH2 0x141B SWAP2 SWAP1 PUSH2 0x2623 JUMP JUMPDEST SWAP1 POP DUP1 PUSH1 0x1 DUP3 MLOAD PUSH2 0x142C SWAP2 SWAP1 PUSH2 0x2163 JUMP JUMPDEST DUP2 MLOAD DUP2 LT PUSH2 0x143D JUMPI PUSH2 0x143C PUSH2 0x1B3D JUMP JUMPDEST JUMPDEST PUSH1 0x20 MUL PUSH1 0x20 ADD ADD MLOAD SWAP5 POP DUP7 PUSH20 0xFFFFFFFFFFFFFFFFFFFFFFFFFFFFFFFFFFFFFFFF AND DUP9 PUSH20 0xFFFFFFFFFFFFFFFFFFFFFFFFFFFFFFFFFFFFFFFF AND PUSH1 0x2 PUSH0 SWAP1 SLOAD SWAP1 PUSH2 0x100 EXP SWAP1 DIV PUSH20 0xFFFFFFFFFFFFFFFFFFFFFFFFFFFFFFFFFFFFFFFF AND PUSH20 0xFFFFFFFFFFFFFFFFFFFFFFFFFFFFFFFFFFFFFFFF AND PUSH32 0x764F0DC063C06F32D89A3F3AF80C0DB4BE8A090901F589A478B447E0A51F09F1 DUP10 DUP10 PUSH1 0x40 MLOAD PUSH2 0x14DE SWAP3 SWAP2 SWAP1 PUSH2 0x26F0 JUMP JUMPDEST PUSH1 0x40 MLOAD DUP1 SWAP2 SUB SWAP1 LOG4 POP POP POP POP SWAP4 SWAP3 POP POP POP JUMP JUMPDEST PUSH2 0x1508 DUP2 PUSH2 0x1500 PUSH2 0x15A7 PUSH2 0x15C6 JUMP JUMPDEST PUSH4 0xFFFFFFFF AND JUMP JUMPDEST POP JUMP JUMPDEST PUSH2 0x15A3 DUP3 DUP3 PUSH1 0x40 MLOAD PUSH1 0x24 ADD PUSH2 0x1521 SWAP3 SWAP2 SWAP1 PUSH2 0x2717 JUMP JUMPDEST PUSH1 0x40 MLOAD PUSH1 0x20 DUP2 DUP4 SUB SUB DUP2 MSTORE SWAP1 PUSH1 0x40 MSTORE PUSH32 0xB60E72CC00000000000000000000000000000000000000000000000000000000 PUSH28 0xFFFFFFFFFFFFFFFFFFFFFFFFFFFFFFFFFFFFFFFFFFFFFFFFFFFFFFFF NOT AND PUSH1 0x20 DUP3 ADD DUP1 MLOAD PUSH28 0xFFFFFFFFFFFFFFFFFFFFFFFFFFFFFFFFFFFFFFFFFFFFFFFFFFFFFFFF DUP4 DUP2 DUP4 AND OR DUP4 MSTORE POP POP POP POP PUSH2 0x14F1 JUMP JUMPDEST POP POP JUMP JUMPDEST PUSH0 PUSH11 0x636F6E736F6C652E6C6F67 SWAP1 POP PUSH0 DUP1 DUP4 MLOAD PUSH1 0x20 DUP6 ADD DUP5 GAS STATICCALL POP POP POP JUMP JUMPDEST PUSH2 0x15D1 DUP2 SWAP1 POP SWAP2 SWAP1 POP JUMP JUMPDEST PUSH2 0x15D9 PUSH2 0x2745 JUMP JUMPDEST JUMP JUMPDEST PUSH0 PUSH20 0xFFFFFFFFFFFFFFFFFFFFFFFFFFFFFFFFFFFFFFFF DUP3 AND SWAP1 POP SWAP2 SWAP1 POP JUMP JUMPDEST PUSH0 DUP2 SWAP1 POP SWAP2 SWAP1 POP JUMP JUMPDEST PUSH0 PUSH2 0x161D PUSH2 0x1618 PUSH2 0x1613 DUP5 PUSH2 0x15DB JUMP JUMPDEST PUSH2 0x15FA JUMP JUMPDEST PUSH2 0x15DB JUMP JUMPDEST SWAP1 POP SWAP2 SWAP1 POP JUMP JUMPDEST PUSH0 PUSH2 0x162E DUP3 PUSH2 0x1603 JUMP JUMPDEST SWAP1 POP SWAP2 SWAP1 POP JUMP JUMPDEST PUSH0 PUSH2 0x163F DUP3 PUSH2 0x1624 JUMP JUMPDEST SWAP1 POP SWAP2 SWAP1 POP JUMP JUMPDEST PUSH2 0x164F DUP2 PUSH2 0x1635 JUMP JUMPDEST DUP3 MSTORE POP POP JUMP JUMPDEST PUSH0 PUSH1 0x20 DUP3 ADD SWAP1 POP PUSH2 0x1668 PUSH0 DUP4 ADD DUP5 PUSH2 0x1646 JUMP JUMPDEST SWAP3 SWAP2 POP POP JUMP JUMPDEST PUSH0 PUSH2 0x1678 DUP3 PUSH2 0x1624 JUMP JUMPDEST SWAP1 POP SWAP2 SWAP1 POP JUMP JUMPDEST PUSH2 0x1688 DUP2 PUSH2 0x166E JUMP JUMPDEST DUP3 MSTORE POP POP JUMP JUMPDEST PUSH0 PUSH1 0x20 DUP3 ADD SWAP1 POP PUSH2 0x16A1 PUSH0 DUP4 ADD DUP5 PUSH2 0x167F JUMP JUMPDEST SWAP3 SWAP2 POP POP JUMP JUMPDEST PUSH0 PUSH2 0x16B1 DUP3 PUSH2 0x1624 JUMP JUMPDEST SWAP1 POP SWAP2 SWAP1 POP JUMP JUMPDEST PUSH2 0x16C1 DUP2 PUSH2 0x16A7 JUMP JUMPDEST DUP3 MSTORE POP POP JUMP JUMPDEST PUSH0 PUSH1 0x20 DUP3 ADD SWAP1 POP PUSH2 0x16DA PUSH0 DUP4 ADD DUP5 PUSH2 0x16B8 JUMP JUMPDEST SWAP3 SWAP2 POP POP JUMP JUMPDEST PUSH0 PUSH2 0x16EA DUP3 PUSH2 0x1624 JUMP JUMPDEST SWAP1 POP SWAP2 SWAP1 POP JUMP JUMPDEST PUSH2 0x16FA DUP2 PUSH2 0x16E0 JUMP JUMPDEST DUP3 MSTORE POP POP JUMP JUMPDEST PUSH0 PUSH1 0x20 DUP3 ADD SWAP1 POP PUSH2 0x1713 PUSH0 DUP4 ADD DUP5 PUSH2 0x16F1 JUMP JUMPDEST SWAP3 SWAP2 POP POP JUMP JUMPDEST PUSH0 PUSH1 0x40 MLOAD SWAP1 POP SWAP1 JUMP JUMPDEST PUSH0 DUP1 REVERT JUMPDEST PUSH0 DUP1 REVERT JUMPDEST PUSH0 DUP1 REVERT JUMPDEST PUSH0 PUSH1 0x1F NOT PUSH1 0x1F DUP4 ADD AND SWAP1 POP SWAP2 SWAP1 POP JUMP JUMPDEST PUSH32 0x4E487B7100000000000000000000000000000000000000000000000000000000 PUSH0 MSTORE PUSH1 0x41 PUSH1 0x4 MSTORE PUSH1 0x24 PUSH0 REVERT JUMPDEST PUSH2 0x1774 DUP3 PUSH2 0x172E JUMP JUMPDEST DUP2 ADD DUP2 DUP2 LT PUSH8 0xFFFFFFFFFFFFFFFF DUP3 GT OR ISZERO PUSH2 0x1793 JUMPI PUSH2 0x1792 PUSH2 0x173E JUMP JUMPDEST JUMPDEST DUP1 PUSH1 0x40 MSTORE POP POP POP JUMP JUMPDEST PUSH0 PUSH2 0x17A5 PUSH2 0x1719 JUMP JUMPDEST SWAP1 POP PUSH2 0x17B1 DUP3 DUP3 PUSH2 0x176B JUMP JUMPDEST SWAP2 SWAP1 POP JUMP JUMPDEST PUSH0 PUSH8 0xFFFFFFFFFFFFFFFF DUP3 GT ISZERO PUSH2 0x17D0 JUMPI PUSH2 0x17CF PUSH2 0x173E JUMP JUMPDEST JUMPDEST PUSH1 0x20 DUP3 MUL SWAP1 POP PUSH1 0x20 DUP2 ADD SWAP1 POP SWAP2 SWAP1 POP JUMP JUMPDEST PUSH0 DUP1 REVERT JUMPDEST PUSH0 PUSH2 0x17EF DUP3 PUSH2 0x15DB JUMP JUMPDEST SWAP1 POP SWAP2 SWAP1 POP JUMP JUMPDEST PUSH0 PUSH2 0x1800 DUP3 PUSH2 0x17E5 JUMP JUMPDEST SWAP1 POP SWAP2 SWAP1 POP JUMP JUMPDEST PUSH2 0x1810 DUP2 PUSH2 0x17F6 JUMP JUMPDEST DUP2 EQ PUSH2 0x181A JUMPI PUSH0 DUP1 REVERT JUMPDEST POP JUMP JUMPDEST PUSH0 DUP2 CALLDATALOAD SWAP1 POP PUSH2 0x182B DUP2 PUSH2 0x1807 JUMP JUMPDEST SWAP3 SWAP2 POP POP JUMP JUMPDEST PUSH0 PUSH2 0x1843 PUSH2 0x183E DUP5 PUSH2 0x17B6 JUMP JUMPDEST PUSH2 0x179C JUMP JUMPDEST SWAP1 POP DUP1 DUP4 DUP3 MSTORE PUSH1 0x20 DUP3 ADD SWAP1 POP PUSH1 0x20 DUP5 MUL DUP4 ADD DUP6 DUP2 GT ISZERO PUSH2 0x1866 JUMPI PUSH2 0x1865 PUSH2 0x17E1 JUMP JUMPDEST JUMPDEST DUP4 JUMPDEST DUP2 DUP2 LT ISZERO PUSH2 0x188F JUMPI DUP1 PUSH2 0x187B DUP9 DUP3 PUSH2 0x181D JUMP JUMPDEST DUP5 MSTORE PUSH1 0x20 DUP5 ADD SWAP4 POP POP PUSH1 0x20 DUP2 ADD SWAP1 POP PUSH2 0x1868 JUMP JUMPDEST POP POP POP SWAP4 SWAP3 POP POP POP JUMP JUMPDEST PUSH0 DUP3 PUSH1 0x1F DUP4 ADD SLT PUSH2 0x18AD JUMPI PUSH2 0x18AC PUSH2 0x172A JUMP JUMPDEST JUMPDEST DUP2 CALLDATALOAD PUSH2 0x18BD DUP5 DUP3 PUSH1 0x20 DUP7 ADD PUSH2 0x1831 JUMP JUMPDEST SWAP2 POP POP SWAP3 SWAP2 POP POP JUMP JUMPDEST PUSH0 PUSH8 0xFFFFFFFFFFFFFFFF DUP3 GT ISZERO PUSH2 0x18E0 JUMPI PUSH2 0x18DF PUSH2 0x173E JUMP JUMPDEST JUMPDEST PUSH1 0x20 DUP3 MUL SWAP1 POP PUSH1 0x20 DUP2 ADD SWAP1 POP SWAP2 SWAP1 POP JUMP JUMPDEST PUSH0 DUP2 SWAP1 POP SWAP2 SWAP1 POP JUMP JUMPDEST PUSH2 0x1903 DUP2 PUSH2 0x18F1 JUMP JUMPDEST DUP2 EQ PUSH2 0x190D JUMPI PUSH0 DUP1 REVERT JUMPDEST POP JUMP JUMPDEST PUSH0 DUP2 CALLDATALOAD SWAP1 POP PUSH2 0x191E DUP2 PUSH2 0x18FA JUMP JUMPDEST SWAP3 SWAP2 POP POP JUMP JUMPDEST PUSH0 PUSH2 0x1936 PUSH2 0x1931 DUP5 PUSH2 0x18C6 JUMP JUMPDEST PUSH2 0x179C JUMP JUMPDEST SWAP1 POP DUP1 DUP4 DUP3 MSTORE PUSH1 0x20 DUP3 ADD SWAP1 POP PUSH1 0x20 DUP5 MUL DUP4 ADD DUP6 DUP2 GT ISZERO PUSH2 0x1959 JUMPI PUSH2 0x1958 PUSH2 0x17E1 JUMP JUMPDEST JUMPDEST DUP4 JUMPDEST DUP2 DUP2 LT ISZERO PUSH2 0x1982 JUMPI DUP1 PUSH2 0x196E DUP9 DUP3 PUSH2 0x1910 JUMP JUMPDEST DUP5 MSTORE PUSH1 0x20 DUP5 ADD SWAP4 POP POP PUSH1 0x20 DUP2 ADD SWAP1 POP PUSH2 0x195B JUMP JUMPDEST POP POP POP SWAP4 SWAP3 POP POP POP JUMP JUMPDEST PUSH0 DUP3 PUSH1 0x1F DUP4 ADD SLT PUSH2 0x19A0 JUMPI PUSH2 0x199F PUSH2 0x172A JUMP JUMPDEST JUMPDEST DUP2 CALLDATALOAD PUSH2 0x19B0 DUP5 DUP3 PUSH1 0x20 DUP7 ADD PUSH2 0x1924 JUMP JUMPDEST SWAP2 POP POP SWAP3 SWAP2 POP POP JUMP JUMPDEST PUSH0 DUP1 REVERT JUMPDEST PUSH0 PUSH8 0xFFFFFFFFFFFFFFFF DUP3 GT ISZERO PUSH2 0x19D7 JUMPI PUSH2 0x19D6 PUSH2 0x173E JUMP JUMPDEST JUMPDEST PUSH2 0x19E0 DUP3 PUSH2 0x172E JUMP JUMPDEST SWAP1 POP PUSH1 0x20 DUP2 ADD SWAP1 POP SWAP2 SWAP1 POP JUMP JUMPDEST DUP3 DUP2 DUP4 CALLDATACOPY PUSH0 DUP4 DUP4 ADD MSTORE POP POP POP JUMP JUMPDEST PUSH0 PUSH2 0x1A0D PUSH2 0x1A08 DUP5 PUSH2 0x19BD JUMP JUMPDEST PUSH2 0x179C JUMP JUMPDEST SWAP1 POP DUP3 DUP2 MSTORE PUSH1 0x20 DUP2 ADD DUP5 DUP5 DUP5 ADD GT ISZERO PUSH2 0x1A29 JUMPI PUSH2 0x1A28 PUSH2 0x19B9 JUMP JUMPDEST JUMPDEST PUSH2 0x1A34 DUP5 DUP3 DUP6 PUSH2 0x19ED JUMP JUMPDEST POP SWAP4 SWAP3 POP POP POP JUMP JUMPDEST PUSH0 DUP3 PUSH1 0x1F DUP4 ADD SLT PUSH2 0x1A50 JUMPI PUSH2 0x1A4F PUSH2 0x172A JUMP JUMPDEST JUMPDEST DUP2 CALLDATALOAD PUSH2 0x1A60 DUP5 DUP3 PUSH1 0x20 DUP7 ADD PUSH2 0x19FB JUMP JUMPDEST SWAP2 POP POP SWAP3 SWAP2 POP POP JUMP JUMPDEST PUSH0 DUP1 PUSH0 DUP1 PUSH1 0x80 DUP6 DUP8 SUB SLT ISZERO PUSH2 0x1A81 JUMPI PUSH2 0x1A80 PUSH2 0x1722 JUMP JUMPDEST JUMPDEST PUSH0 DUP6 ADD CALLDATALOAD PUSH8 0xFFFFFFFFFFFFFFFF DUP2 GT ISZERO PUSH2 0x1A9E JUMPI PUSH2 0x1A9D PUSH2 0x1726 JUMP JUMPDEST JUMPDEST PUSH2 0x1AAA DUP8 DUP3 DUP9 ADD PUSH2 0x1899 JUMP JUMPDEST SWAP5 POP POP PUSH1 0x20 DUP6 ADD CALLDATALOAD PUSH8 0xFFFFFFFFFFFFFFFF DUP2 GT ISZERO PUSH2 0x1ACB JUMPI PUSH2 0x1ACA PUSH2 0x1726 JUMP JUMPDEST JUMPDEST PUSH2 0x1AD7 DUP8 DUP3 DUP9 ADD PUSH2 0x198C JUMP JUMPDEST SWAP4 POP POP PUSH1 0x40 DUP6 ADD CALLDATALOAD PUSH8 0xFFFFFFFFFFFFFFFF DUP2 GT ISZERO PUSH2 0x1AF8 JUMPI PUSH2 0x1AF7 PUSH2 0x1726 JUMP JUMPDEST JUMPDEST PUSH2 0x1B04 DUP8 DUP3 DUP9 ADD PUSH2 0x198C JUMP JUMPDEST SWAP3 POP POP PUSH1 0x60 DUP6 ADD CALLDATALOAD PUSH8 0xFFFFFFFFFFFFFFFF DUP2 GT ISZERO PUSH2 0x1B25 JUMPI PUSH2 0x1B24 PUSH2 0x1726 JUMP JUMPDEST JUMPDEST PUSH2 0x1B31 DUP8 DUP3 DUP9 ADD PUSH2 0x1A3C JUMP JUMPDEST SWAP2 POP POP SWAP3 SWAP6 SWAP2 SWAP5 POP SWAP3 POP JUMP JUMPDEST PUSH32 0x4E487B7100000000000000000000000000000000000000000000000000000000 PUSH0 MSTORE PUSH1 0x32 PUSH1 0x4 MSTORE PUSH1 0x24 PUSH0 REVERT JUMPDEST PUSH0 DUP3 DUP3 MSTORE PUSH1 0x20 DUP3 ADD SWAP1 POP SWAP3 SWAP2 POP POP JUMP JUMPDEST PUSH32 0x546F6B656E7320616E6420616D6F756E74732061727261792073697A65206D69 PUSH0 DUP3 ADD MSTORE PUSH32 0x736D617463680000000000000000000000000000000000000000000000000000 PUSH1 0x20 DUP3 ADD MSTORE POP JUMP JUMPDEST PUSH0 PUSH2 0x1BD4 PUSH1 0x26 DUP4 PUSH2 0x1B6A JUMP JUMPDEST SWAP2 POP PUSH2 0x1BDF DUP3 PUSH2 0x1B7A JUMP JUMPDEST PUSH1 0x40 DUP3 ADD SWAP1 POP SWAP2 SWAP1 POP JUMP JUMPDEST PUSH0 PUSH1 0x20 DUP3 ADD SWAP1 POP DUP2 DUP2 SUB PUSH0 DUP4 ADD MSTORE PUSH2 0x1C01 DUP2 PUSH2 0x1BC8 JUMP JUMPDEST SWAP1 POP SWAP2 SWAP1 POP JUMP JUMPDEST PUSH2 0x1C11 DUP2 PUSH2 0x18F1 JUMP JUMPDEST DUP3 MSTORE POP POP JUMP JUMPDEST PUSH0 PUSH1 0x20 DUP3 ADD SWAP1 POP PUSH2 0x1C2A PUSH0 DUP4 ADD DUP5 PUSH2 0x1C08 JUMP JUMPDEST SWAP3 SWAP2 POP POP JUMP JUMPDEST PUSH2 0x1C39 DUP2 PUSH2 0x17E5 JUMP JUMPDEST DUP3 MSTORE POP POP JUMP JUMPDEST PUSH0 DUP2 SWAP1 POP SWAP2 SWAP1 POP JUMP JUMPDEST PUSH0 PUSH2 0xFFFF DUP3 AND SWAP1 POP SWAP2 SWAP1 POP JUMP JUMPDEST PUSH0 PUSH2 0x1C6F PUSH2 0x1C6A PUSH2 0x1C65 DUP5 PUSH2 0x1C3F JUMP JUMPDEST PUSH2 0x15FA JUMP JUMPDEST PUSH2 0x1C48 JUMP JUMPDEST SWAP1 POP SWAP2 SWAP1 POP JUMP JUMPDEST PUSH2 0x1C7F DUP2 PUSH2 0x1C55 JUMP JUMPDEST DUP3 MSTORE POP POP JUMP JUMPDEST PUSH0 PUSH1 0x60 DUP3 ADD SWAP1 POP PUSH2 0x1C98 PUSH0 DUP4 ADD DUP7 PUSH2 0x1C30 JUMP JUMPDEST PUSH2 0x1CA5 PUSH1 0x20 DUP4 ADD DUP6 PUSH2 0x1C30 JUMP JUMPDEST PUSH2 0x1CB2 PUSH1 0x40 DUP4 ADD DUP5 PUSH2 0x1C76 JUMP JUMPDEST SWAP5 SWAP4 POP POP POP POP JUMP JUMPDEST PUSH0 PUSH2 0x1CC4 DUP3 PUSH2 0x1624 JUMP JUMPDEST SWAP1 POP SWAP2 SWAP1 POP JUMP JUMPDEST PUSH2 0x1CD4 DUP2 PUSH2 0x1CBA JUMP JUMPDEST DUP3 MSTORE POP POP JUMP JUMPDEST PUSH0 DUP2 MLOAD SWAP1 POP SWAP2 SWAP1 POP JUMP JUMPDEST PUSH0 DUP3 DUP3 MSTORE PUSH1 0x20 DUP3 ADD SWAP1 POP SWAP3 SWAP2 POP POP JUMP JUMPDEST PUSH0 DUP2 SWAP1 POP PUSH1 0x20 DUP3 ADD SWAP1 POP SWAP2 SWAP1 POP JUMP JUMPDEST PUSH0 PUSH2 0x1D0D DUP3 PUSH2 0x1624 JUMP JUMPDEST SWAP1 POP SWAP2 SWAP1 POP JUMP JUMPDEST PUSH2 0x1D1D DUP2 PUSH2 0x1D03 JUMP JUMPDEST DUP3 MSTORE POP POP JUMP JUMPDEST PUSH0 PUSH2 0x1D2E DUP4 DUP4 PUSH2 0x1D14 JUMP JUMPDEST PUSH1 0x20 DUP4 ADD SWAP1 POP SWAP3 SWAP2 POP POP JUMP JUMPDEST PUSH0 PUSH1 0x20 DUP3 ADD SWAP1 POP SWAP2 SWAP1 POP JUMP JUMPDEST PUSH0 PUSH2 0x1D50 DUP3 PUSH2 0x1CDA JUMP JUMPDEST PUSH2 0x1D5A DUP2 DUP6 PUSH2 0x1CE4 JUMP JUMPDEST SWAP4 POP PUSH2 0x1D65 DUP4 PUSH2 0x1CF4 JUMP JUMPDEST DUP1 PUSH0 JUMPDEST DUP4 DUP2 LT ISZERO PUSH2 0x1D95 JUMPI DUP2 MLOAD PUSH2 0x1D7C DUP9 DUP3 PUSH2 0x1D23 JUMP JUMPDEST SWAP8 POP PUSH2 0x1D87 DUP4 PUSH2 0x1D3A JUMP JUMPDEST SWAP3 POP POP PUSH1 0x1 DUP2 ADD SWAP1 POP PUSH2 0x1D68 JUMP JUMPDEST POP DUP6 SWAP4 POP POP POP POP SWAP3 SWAP2 POP POP JUMP JUMPDEST PUSH0 DUP2 MLOAD SWAP1 POP SWAP2 SWAP1 POP JUMP JUMPDEST PUSH0 DUP3 DUP3 MSTORE PUSH1 0x20 DUP3 ADD SWAP1 POP SWAP3 SWAP2 POP POP JUMP JUMPDEST PUSH0 DUP2 SWAP1 POP PUSH1 0x20 DUP3 ADD SWAP1 POP SWAP2 SWAP1 POP JUMP JUMPDEST PUSH2 0x1DD4 DUP2 PUSH2 0x18F1 JUMP JUMPDEST DUP3 MSTORE POP POP JUMP JUMPDEST PUSH0 PUSH2 0x1DE5 DUP4 DUP4 PUSH2 0x1DCB JUMP JUMPDEST PUSH1 0x20 DUP4 ADD SWAP1 POP SWAP3 SWAP2 POP POP JUMP JUMPDEST PUSH0 PUSH1 0x20 DUP3 ADD SWAP1 POP SWAP2 SWAP1 POP JUMP JUMPDEST PUSH0 PUSH2 0x1E07 DUP3 PUSH2 0x1DA2 JUMP JUMPDEST PUSH2 0x1E11 DUP2 DUP6 PUSH2 0x1DAC JUMP JUMPDEST SWAP4 POP PUSH2 0x1E1C DUP4 PUSH2 0x1DBC JUMP JUMPDEST DUP1 PUSH0 JUMPDEST DUP4 DUP2 LT ISZERO PUSH2 0x1E4C JUMPI DUP2 MLOAD PUSH2 0x1E33 DUP9 DUP3 PUSH2 0x1DDA JUMP JUMPDEST SWAP8 POP PUSH2 0x1E3E DUP4 PUSH2 0x1DF1 JUMP JUMPDEST SWAP3 POP POP PUSH1 0x1 DUP2 ADD SWAP1 POP PUSH2 0x1E1F JUMP JUMPDEST POP DUP6 SWAP4 POP POP POP POP SWAP3 SWAP2 POP POP JUMP JUMPDEST PUSH0 DUP2 MLOAD SWAP1 POP SWAP2 SWAP1 POP JUMP JUMPDEST PUSH0 DUP3 DUP3 MSTORE PUSH1 0x20 DUP3 ADD SWAP1 POP SWAP3 SWAP2 POP POP JUMP JUMPDEST PUSH0 JUMPDEST DUP4 DUP2 LT ISZERO PUSH2 0x1E90 JUMPI DUP1 DUP3 ADD MLOAD DUP2 DUP5 ADD MSTORE PUSH1 0x20 DUP2 ADD SWAP1 POP PUSH2 0x1E75 JUMP JUMPDEST PUSH0 DUP5 DUP5 ADD MSTORE POP POP POP POP JUMP JUMPDEST PUSH0 PUSH2 0x1EA5 DUP3 PUSH2 0x1E59 JUMP JUMPDEST PUSH2 0x1EAF DUP2 DUP6 PUSH2 0x1E63 JUMP JUMPDEST SWAP4 POP PUSH2 0x1EBF DUP2 DUP6 PUSH1 0x20 DUP7 ADD PUSH2 0x1E73 JUMP JUMPDEST PUSH2 0x1EC8 DUP2 PUSH2 0x172E JUMP JUMPDEST DUP5 ADD SWAP2 POP POP SWAP3 SWAP2 POP POP JUMP JUMPDEST PUSH0 PUSH1 0x80 DUP3 ADD SWAP1 POP PUSH2 0x1EE6 PUSH0 DUP4 ADD DUP8 PUSH2 0x1CCB JUMP JUMPDEST DUP2 DUP2 SUB PUSH1 0x20 DUP4 ADD MSTORE PUSH2 0x1EF8 DUP2 DUP7 PUSH2 0x1D46 JUMP JUMPDEST SWAP1 POP DUP2 DUP2 SUB PUSH1 0x40 DUP4 ADD MSTORE PUSH2 0x1F0C DUP2 DUP6 PUSH2 0x1DFD JUMP JUMPDEST SWAP1 POP DUP2 DUP2 SUB PUSH1 0x60 DUP4 ADD MSTORE PUSH2 0x1F20 DUP2 DUP5 PUSH2 0x1E9B JUMP JUMPDEST SWAP1 POP SWAP6 SWAP5 POP POP POP POP POP JUMP JUMPDEST PUSH32 0x43616C6C6261636B2066726F6D20756E617574686F72697A656420736F757263 PUSH0 DUP3 ADD MSTORE PUSH32 0x6500000000000000000000000000000000000000000000000000000000000000 PUSH1 0x20 DUP3 ADD MSTORE POP JUMP JUMPDEST PUSH0 PUSH2 0x1F85 PUSH1 0x21 DUP4 PUSH2 0x1B6A JUMP JUMPDEST SWAP2 POP PUSH2 0x1F90 DUP3 PUSH2 0x1F2B JUMP JUMPDEST PUSH1 0x40 DUP3 ADD SWAP1 POP SWAP2 SWAP1 POP JUMP JUMPDEST PUSH0 PUSH1 0x20 DUP3 ADD SWAP1 POP DUP2 DUP2 SUB PUSH0 DUP4 ADD MSTORE PUSH2 0x1FB2 DUP2 PUSH2 0x1F79 JUMP JUMPDEST SWAP1 POP SWAP2 SWAP1 POP JUMP JUMPDEST PUSH0 PUSH2 0x1FC3 DUP3 PUSH2 0x15DB JUMP JUMPDEST SWAP1 POP SWAP2 SWAP1 POP JUMP JUMPDEST PUSH2 0x1FD3 DUP2 PUSH2 0x1FB9 JUMP JUMPDEST DUP2 EQ PUSH2 0x1FDD JUMPI PUSH0 DUP1 REVERT JUMPDEST POP JUMP JUMPDEST PUSH0 DUP2 MLOAD SWAP1 POP PUSH2 0x1FEE DUP2 PUSH2 0x1FCA JUMP JUMPDEST SWAP3 SWAP2 POP POP JUMP JUMPDEST PUSH0 PUSH3 0xFFFFFF DUP3 AND SWAP1 POP SWAP2 SWAP1 POP JUMP JUMPDEST PUSH2 0x200B DUP2 PUSH2 0x1FF4 JUMP JUMPDEST DUP2 EQ PUSH2 0x2015 JUMPI PUSH0 DUP1 REVERT JUMPDEST POP JUMP JUMPDEST PUSH0 DUP2 MLOAD SWAP1 POP PUSH2 0x2026 DUP2 PUSH2 0x2002 JUMP JUMPDEST SWAP3 SWAP2 POP POP JUMP JUMPDEST PUSH0 DUP1 PUSH0 PUSH1 0x60 DUP5 DUP7 SUB SLT ISZERO PUSH2 0x2043 JUMPI PUSH2 0x2042 PUSH2 0x1722 JUMP JUMPDEST JUMPDEST PUSH0 PUSH2 0x2050 DUP7 DUP3 DUP8 ADD PUSH2 0x1FE0 JUMP JUMPDEST SWAP4 POP POP PUSH1 0x20 PUSH2 0x2061 DUP7 DUP3 DUP8 ADD PUSH2 0x1FE0 JUMP JUMPDEST SWAP3 POP POP PUSH1 0x40 PUSH2 0x2072 DUP7 DUP3 DUP8 ADD PUSH2 0x2018 JUMP JUMPDEST SWAP2 POP POP SWAP3 POP SWAP3 POP SWAP3 JUMP JUMPDEST PUSH32 0x4E487B7100000000000000000000000000000000000000000000000000000000 PUSH0 MSTORE PUSH1 0x11 PUSH1 0x4 MSTORE PUSH1 0x24 PUSH0 REVERT JUMPDEST PUSH0 PUSH2 0x20B3 DUP3 PUSH2 0x18F1 JUMP JUMPDEST SWAP2 POP PUSH2 0x20BE DUP4 PUSH2 0x18F1 JUMP JUMPDEST SWAP3 POP DUP3 DUP3 ADD SWAP1 POP DUP1 DUP3 GT ISZERO PUSH2 0x20D6 JUMPI PUSH2 0x20D5 PUSH2 0x207C JUMP JUMPDEST JUMPDEST SWAP3 SWAP2 POP POP JUMP JUMPDEST PUSH0 PUSH1 0x40 DUP3 ADD SWAP1 POP PUSH2 0x20EF PUSH0 DUP4 ADD DUP6 PUSH2 0x1C30 JUMP JUMPDEST PUSH2 0x20FC PUSH1 0x20 DUP4 ADD DUP5 PUSH2 0x1C08 JUMP JUMPDEST SWAP4 SWAP3 POP POP POP JUMP JUMPDEST PUSH0 DUP2 ISZERO ISZERO SWAP1 POP SWAP2 SWAP1 POP JUMP JUMPDEST PUSH2 0x2117 DUP2 PUSH2 0x2103 JUMP JUMPDEST DUP2 EQ PUSH2 0x2121 JUMPI PUSH0 DUP1 REVERT JUMPDEST POP JUMP JUMPDEST PUSH0 DUP2 MLOAD SWAP1 POP PUSH2 0x2132 DUP2 PUSH2 0x210E JUMP JUMPDEST SWAP3 SWAP2 POP POP JUMP JUMPDEST PUSH0 PUSH1 0x20 DUP3 DUP5 SUB SLT ISZERO PUSH2 0x214D JUMPI PUSH2 0x214C PUSH2 0x1722 JUMP JUMPDEST JUMPDEST PUSH0 PUSH2 0x215A DUP5 DUP3 DUP6 ADD PUSH2 0x2124 JUMP JUMPDEST SWAP2 POP POP SWAP3 SWAP2 POP POP JUMP JUMPDEST PUSH0 PUSH2 0x216D DUP3 PUSH2 0x18F1 JUMP JUMPDEST SWAP2 POP PUSH2 0x2178 DUP4 PUSH2 0x18F1 JUMP JUMPDEST SWAP3 POP DUP3 DUP3 SUB SWAP1 POP DUP2 DUP2 GT ISZERO PUSH2 0x2190 JUMPI PUSH2 0x218F PUSH2 0x207C JUMP JUMPDEST JUMPDEST SWAP3 SWAP2 POP POP JUMP JUMPDEST PUSH0 DUP2 MLOAD SWAP1 POP SWAP2 SWAP1 POP JUMP JUMPDEST PUSH0 PUSH2 0x21AA DUP3 PUSH2 0x2196 JUMP JUMPDEST PUSH2 0x21B4 DUP2 DUP6 PUSH2 0x1B6A JUMP JUMPDEST SWAP4 POP PUSH2 0x21C4 DUP2 DUP6 PUSH1 0x20 DUP7 ADD PUSH2 0x1E73 JUMP JUMPDEST PUSH2 0x21CD DUP2 PUSH2 0x172E JUMP JUMPDEST DUP5 ADD SWAP2 POP POP SWAP3 SWAP2 POP POP JUMP JUMPDEST PUSH0 PUSH1 0x20 DUP3 ADD SWAP1 POP DUP2 DUP2 SUB PUSH0 DUP4 ADD MSTORE PUSH2 0x21F0 DUP2 DUP5 PUSH2 0x21A0 JUMP JUMPDEST SWAP1 POP SWAP3 SWAP2 POP POP JUMP JUMPDEST PUSH0 PUSH1 0x80 DUP3 ADD SWAP1 POP DUP2 DUP2 SUB PUSH0 DUP4 ADD MSTORE PUSH2 0x2210 DUP2 DUP8 PUSH2 0x21A0 JUMP JUMPDEST SWAP1 POP PUSH2 0x221F PUSH1 0x20 DUP4 ADD DUP7 PUSH2 0x1C30 JUMP JUMPDEST PUSH2 0x222C PUSH1 0x40 DUP4 ADD DUP6 PUSH2 0x1C08 JUMP JUMPDEST PUSH2 0x2239 PUSH1 0x60 DUP4 ADD DUP5 PUSH2 0x1C08 JUMP JUMPDEST SWAP6 SWAP5 POP POP POP POP POP JUMP JUMPDEST PUSH0 PUSH1 0x20 DUP3 ADD SWAP1 POP PUSH2 0x2255 PUSH0 DUP4 ADD DUP5 PUSH2 0x1C30 JUMP JUMPDEST SWAP3 SWAP2 POP POP JUMP JUMPDEST PUSH0 DUP2 MLOAD SWAP1 POP PUSH2 0x2269 DUP2 PUSH2 0x18FA JUMP JUMPDEST SWAP3 SWAP2 POP POP JUMP JUMPDEST PUSH0 PUSH1 0x20 DUP3 DUP5 SUB SLT ISZERO PUSH2 0x2284 JUMPI PUSH2 0x2283 PUSH2 0x1722 JUMP JUMPDEST JUMPDEST PUSH0 PUSH2 0x2291 DUP5 DUP3 DUP6 ADD PUSH2 0x225B JUMP JUMPDEST SWAP2 POP POP SWAP3 SWAP2 POP POP JUMP JUMPDEST PUSH0 PUSH1 0x40 DUP3 ADD SWAP1 POP PUSH2 0x22AD PUSH0 DUP4 ADD DUP6 PUSH2 0x1C30 JUMP JUMPDEST PUSH2 0x22BA PUSH1 0x20 DUP4 ADD DUP5 PUSH2 0x1C30 JUMP JUMPDEST SWAP4 SWAP3 POP POP POP JUMP JUMPDEST PUSH2 0x22CA DUP2 PUSH2 0x17E5 JUMP JUMPDEST DUP3 MSTORE POP POP JUMP JUMPDEST PUSH2 0x22D9 DUP2 PUSH2 0x1FF4 JUMP JUMPDEST DUP3 MSTORE POP POP JUMP JUMPDEST PUSH2 0x22E8 DUP2 PUSH2 0x15DB JUMP JUMPDEST DUP3 MSTORE POP POP JUMP JUMPDEST PUSH2 0x100 DUP3 ADD PUSH0 DUP3 ADD MLOAD PUSH2 0x2303 PUSH0 DUP6 ADD DUP3 PUSH2 0x22C1 JUMP JUMPDEST POP PUSH1 0x20 DUP3 ADD MLOAD PUSH2 0x2316 PUSH1 0x20 DUP6 ADD DUP3 PUSH2 0x22C1 JUMP JUMPDEST POP PUSH1 0x40 DUP3 ADD MLOAD PUSH2 0x2329 PUSH1 0x40 DUP6 ADD DUP3 PUSH2 0x22D0 JUMP JUMPDEST POP PUSH1 0x60 DUP3 ADD MLOAD PUSH2 0x233C PUSH1 0x60 DUP6 ADD DUP3 PUSH2 0x22C1 JUMP JUMPDEST POP PUSH1 0x80 DUP3 ADD MLOAD PUSH2 0x234F PUSH1 0x80 DUP6 ADD DUP3 PUSH2 0x1DCB JUMP JUMPDEST POP PUSH1 0xA0 DUP3 ADD MLOAD PUSH2 0x2362 PUSH1 0xA0 DUP6 ADD DUP3 PUSH2 0x1DCB JUMP JUMPDEST POP PUSH1 0xC0 DUP3 ADD MLOAD PUSH2 0x2375 PUSH1 0xC0 DUP6 ADD DUP3 PUSH2 0x1DCB JUMP JUMPDEST POP PUSH1 0xE0 DUP3 ADD MLOAD PUSH2 0x2388 PUSH1 0xE0 DUP6 ADD DUP3 PUSH2 0x22DF JUMP JUMPDEST POP POP POP POP JUMP JUMPDEST PUSH0 PUSH2 0x100 DUP3 ADD SWAP1 POP PUSH2 0x23A2 PUSH0 DUP4 ADD DUP5 PUSH2 0x22EE JUMP JUMPDEST SWAP3 SWAP2 POP POP JUMP JUMPDEST PUSH0 DUP2 SWAP1 POP SWAP2 SWAP1 POP JUMP JUMPDEST PUSH0 PUSH2 0x23CB PUSH2 0x23C6 PUSH2 0x23C1 DUP5 PUSH2 0x23A8 JUMP JUMPDEST PUSH2 0x15FA JUMP JUMPDEST PUSH2 0x18F1 JUMP JUMPDEST SWAP1 POP SWAP2 SWAP1 POP JUMP JUMPDEST PUSH2 0x23DB DUP2 PUSH2 0x23B1 JUMP JUMPDEST DUP3 MSTORE POP POP JUMP JUMPDEST PUSH0 PUSH1 0x40 DUP3 ADD SWAP1 POP PUSH2 0x23F4 PUSH0 DUP4 ADD DUP6 PUSH2 0x1C30 JUMP JUMPDEST PUSH2 0x2401 PUSH1 0x20 DUP4 ADD DUP5 PUSH2 0x23D2 JUMP JUMPDEST SWAP4 SWAP3 POP POP POP JUMP JUMPDEST PUSH32 0x4E487B7100000000000000000000000000000000000000000000000000000000 PUSH0 MSTORE PUSH1 0x12 PUSH1 0x4 MSTORE PUSH1 0x24 PUSH0 REVERT JUMPDEST PUSH0 PUSH2 0x243F DUP3 PUSH2 0x18F1 JUMP JUMPDEST SWAP2 POP PUSH2 0x244A DUP4 PUSH2 0x18F1 JUMP JUMPDEST SWAP3 POP DUP3 PUSH2 0x245A JUMPI PUSH2 0x2459 PUSH2 0x2408 JUMP JUMPDEST JUMPDEST DUP3 DUP3 DIV SWAP1 POP SWAP3 SWAP2 POP POP JUMP JUMPDEST PUSH0 DUP2 SWAP1 POP SWAP2 SWAP1 POP JUMP JUMPDEST PUSH0 PUSH2 0x2488 PUSH2 0x2483 PUSH2 0x247E DUP5 PUSH2 0x2465 JUMP JUMPDEST PUSH2 0x15FA JUMP JUMPDEST PUSH2 0x18F1 JUMP JUMPDEST SWAP1 POP SWAP2 SWAP1 POP JUMP JUMPDEST PUSH2 0x2498 DUP2 PUSH2 0x246E JUMP JUMPDEST DUP3 MSTORE POP POP JUMP JUMPDEST PUSH0 DUP2 MLOAD SWAP1 POP SWAP2 SWAP1 POP JUMP JUMPDEST PUSH0 DUP2 SWAP1 POP PUSH1 0x20 DUP3 ADD SWAP1 POP SWAP2 SWAP1 POP JUMP JUMPDEST PUSH0 PUSH2 0x24C2 DUP4 DUP4 PUSH2 0x22C1 JUMP JUMPDEST PUSH1 0x20 DUP4 ADD SWAP1 POP SWAP3 SWAP2 POP POP JUMP JUMPDEST PUSH0 PUSH1 0x20 DUP3 ADD SWAP1 POP SWAP2 SWAP1 POP JUMP JUMPDEST PUSH0 PUSH2 0x24E4 DUP3 PUSH2 0x249E JUMP JUMPDEST PUSH2 0x24EE DUP2 DUP6 PUSH2 0x1CE4 JUMP JUMPDEST SWAP4 POP PUSH2 0x24F9 DUP4 PUSH2 0x24A8 JUMP JUMPDEST DUP1 PUSH0 JUMPDEST DUP4 DUP2 LT ISZERO PUSH2 0x2529 JUMPI DUP2 MLOAD PUSH2 0x2510 DUP9 DUP3 PUSH2 0x24B7 JUMP JUMPDEST SWAP8 POP PUSH2 0x251B DUP4 PUSH2 0x24CE JUMP JUMPDEST SWAP3 POP POP PUSH1 0x1 DUP2 ADD SWAP1 POP PUSH2 0x24FC JUMP JUMPDEST POP DUP6 SWAP4 POP POP POP POP SWAP3 SWAP2 POP POP JUMP JUMPDEST PUSH0 PUSH1 0xA0 DUP3 ADD SWAP1 POP PUSH2 0x2549 PUSH0 DUP4 ADD DUP9 PUSH2 0x1C08 JUMP JUMPDEST PUSH2 0x2556 PUSH1 0x20 DUP4 ADD DUP8 PUSH2 0x248F JUMP JUMPDEST DUP2 DUP2 SUB PUSH1 0x40 DUP4 ADD MSTORE PUSH2 0x2568 DUP2 DUP7 PUSH2 0x24DA JUMP JUMPDEST SWAP1 POP PUSH2 0x2577 PUSH1 0x60 DUP4 ADD DUP6 PUSH2 0x1C30 JUMP JUMPDEST PUSH2 0x2584 PUSH1 0x80 DUP4 ADD DUP5 PUSH2 0x1C08 JUMP JUMPDEST SWAP7 SWAP6 POP POP POP POP POP POP JUMP JUMPDEST PUSH0 PUSH2 0x25A0 PUSH2 0x259B DUP5 PUSH2 0x18C6 JUMP JUMPDEST PUSH2 0x179C JUMP JUMPDEST SWAP1 POP DUP1 DUP4 DUP3 MSTORE PUSH1 0x20 DUP3 ADD SWAP1 POP PUSH1 0x20 DUP5 MUL DUP4 ADD DUP6 DUP2 GT ISZERO PUSH2 0x25C3 JUMPI PUSH2 0x25C2 PUSH2 0x17E1 JUMP JUMPDEST JUMPDEST DUP4 JUMPDEST DUP2 DUP2 LT ISZERO PUSH2 0x25EC JUMPI DUP1 PUSH2 0x25D8 DUP9 DUP3 PUSH2 0x225B JUMP JUMPDEST DUP5 MSTORE PUSH1 0x20 DUP5 ADD SWAP4 POP POP PUSH1 0x20 DUP2 ADD SWAP1 POP PUSH2 0x25C5 JUMP JUMPDEST POP POP POP SWAP4 SWAP3 POP POP POP JUMP JUMPDEST PUSH0 DUP3 PUSH1 0x1F DUP4 ADD SLT PUSH2 0x260A JUMPI PUSH2 0x2609 PUSH2 0x172A JUMP JUMPDEST JUMPDEST DUP2 MLOAD PUSH2 0x261A DUP5 DUP3 PUSH1 0x20 DUP7 ADD PUSH2 0x258E JUMP JUMPDEST SWAP2 POP POP SWAP3 SWAP2 POP POP JUMP JUMPDEST PUSH0 PUSH1 0x20 DUP3 DUP5 SUB SLT ISZERO PUSH2 0x2638 JUMPI PUSH2 0x2637 PUSH2 0x1722 JUMP JUMPDEST JUMPDEST PUSH0 DUP3 ADD MLOAD PUSH8 0xFFFFFFFFFFFFFFFF DUP2 GT ISZERO PUSH2 0x2655 JUMPI PUSH2 0x2654 PUSH2 0x1726 JUMP JUMPDEST JUMPDEST PUSH2 0x2661 DUP5 DUP3 DUP6 ADD PUSH2 0x25F6 JUMP JUMPDEST SWAP2 POP POP SWAP3 SWAP2 POP POP JUMP JUMPDEST PUSH0 PUSH1 0x40 DUP3 ADD SWAP1 POP PUSH2 0x267D PUSH0 DUP4 ADD DUP6 PUSH2 0x1C08 JUMP JUMPDEST DUP2 DUP2 SUB PUSH1 0x20 DUP4 ADD MSTORE PUSH2 0x268F DUP2 DUP5 PUSH2 0x24DA JUMP JUMPDEST SWAP1 POP SWAP4 SWAP3 POP POP POP JUMP JUMPDEST PUSH0 PUSH1 0xA0 DUP3 ADD SWAP1 POP PUSH2 0x26AB PUSH0 DUP4 ADD DUP9 PUSH2 0x1C08 JUMP JUMPDEST PUSH2 0x26B8 PUSH1 0x20 DUP4 ADD DUP8 PUSH2 0x1C08 JUMP JUMPDEST DUP2 DUP2 SUB PUSH1 0x40 DUP4 ADD MSTORE PUSH2 0x26CA DUP2 DUP7 PUSH2 0x24DA JUMP JUMPDEST SWAP1 POP PUSH2 0x26D9 PUSH1 0x60 DUP4 ADD DUP6 PUSH2 0x1C30 JUMP JUMPDEST PUSH2 0x26E6 PUSH1 0x80 DUP4 ADD DUP5 PUSH2 0x1C08 JUMP JUMPDEST SWAP7 SWAP6 POP POP POP POP POP POP JUMP JUMPDEST PUSH0 PUSH1 0x40 DUP3 ADD SWAP1 POP PUSH2 0x2703 PUSH0 DUP4 ADD DUP6 PUSH2 0x1C08 JUMP JUMPDEST PUSH2 0x2710 PUSH1 0x20 DUP4 ADD DUP5 PUSH2 0x1C08 JUMP JUMPDEST SWAP4 SWAP3 POP POP POP JUMP JUMPDEST PUSH0 PUSH1 0x40 DUP3 ADD SWAP1 POP DUP2 DUP2 SUB PUSH0 DUP4 ADD MSTORE PUSH2 0x272F DUP2 DUP6 PUSH2 0x21A0 JUMP JUMPDEST SWAP1 POP PUSH2 0x273E PUSH1 0x20 DUP4 ADD DUP5 PUSH2 0x1C08 JUMP JUMPDEST SWAP4 SWAP3 POP POP POP JUMP JUMPDEST PUSH32 0x4E487B7100000000000000000000000000000000000000000000000000000000 PUSH0 MSTORE PUSH1 0x51 PUSH1 0x4 MSTORE PUSH1 0x24 PUSH0 REVERT INVALID LOG2 PUSH5 0x6970667358 0x22 SLT KECCAK256 0xF 0x2E DUP14 0xAD 0x23 CHAINID PUSH19 0xC2C1B3733748E4A58F010FC97F1C9DE6500F07 0xC1 0x2E 0xF7 0xC1 0xC8 0x4D PUSH5 0x736F6C6343 STOP ADDMOD AND STOP CALLER "
		},
		"gasEstimates": {
			"creation": {
				"codeDepositCost": "2030400",
				"executionCost": "infinite",
				"totalCost": "infinite"
			},
			"external": {
				"balancerVault()": "infinite",
				"initiateArbitrage()": "infinite",
				"quoter()": "infinite",
				"receiveFlashLoan(address[],uint256[],uint256[],bytes)": "infinite",
				"sushiswapRouter()": "infinite",
				"uniswapV2Router()": "infinite",
				"uniswapV3Router()": "infinite"
			},
			"internal": {
				"_swapOnUniswapV2(address,address,uint256)": "infinite",
				"_trySwapOnUniswapV3(address,address,uint24,uint256)": "infinite",
				"sellOnSushiSwap(address,address,uint256)": "infinite"
			}
		},
		"methodIdentifiers": {
			"balancerVault()": "158274a5",
			"initiateArbitrage()": "57099985",
			"quoter()": "c6bbd5a7",
			"receiveFlashLoan(address[],uint256[],uint256[],bytes)": "f04f2707",
			"sushiswapRouter()": "e9240c2d",
			"uniswapV2Router()": "1694505e",
			"uniswapV3Router()": "2c76d7a6"
		}
	},
	"abi": [
		{
			"inputs": [],
			"stateMutability": "nonpayable",
			"type": "constructor"
		},
		{
			"anonymous": false,
			"inputs": [
				{
					"indexed": true,
					"internalType": "address",
					"name": "token0",
					"type": "address"
				},
				{
					"indexed": true,
					"internalType": "address",
					"name": "token1",
					"type": "address"
				},
				{
					"indexed": false,
					"internalType": "uint256",
					"name": "amountToken0",
					"type": "uint256"
				},
				{
					"indexed": false,
					"internalType": "uint256",
					"name": "amountToken1",
					"type": "uint256"
				}
			],
			"name": "ArbitrageExecuted",
			"type": "event"
		},
		{
			"anonymous": false,
			"inputs": [
				{
					"indexed": true,
					"internalType": "address",
					"name": "token",
					"type": "address"
				},
				{
					"indexed": false,
					"internalType": "uint256",
					"name": "amount",
					"type": "uint256"
				}
			],
			"name": "FlashLoanInitiated",
			"type": "event"
		},
		{
			"anonymous": false,
			"inputs": [
				{
					"indexed": true,
					"internalType": "address",
					"name": "token",
					"type": "address"
				},
				{
					"indexed": false,
					"internalType": "uint256",
					"name": "amount",
					"type": "uint256"
				}
			],
			"name": "LoanRepaid",
			"type": "event"
		},
		{
			"anonymous": false,
			"inputs": [
				{
					"indexed": true,
					"internalType": "address",
					"name": "token",
					"type": "address"
				},
				{
					"indexed": false,
					"internalType": "uint256",
					"name": "profit",
					"type": "uint256"
				}
			],
			"name": "Profit",
			"type": "event"
		},
		{
			"anonymous": false,
			"inputs": [
				{
					"indexed": true,
					"internalType": "address",
					"name": "platform",
					"type": "address"
				},
				{
					"indexed": true,
					"internalType": "address",
					"name": "tokenIn",
					"type": "address"
				},
				{
					"indexed": true,
					"internalType": "address",
					"name": "tokenOut",
					"type": "address"
				},
				{
					"indexed": false,
					"internalType": "uint256",
					"name": "amountIn",
					"type": "uint256"
				},
				{
					"indexed": false,
					"internalType": "uint256",
					"name": "amountOut",
					"type": "uint256"
				}
			],
			"name": "SwapExecuted",
			"type": "event"
		},
		{
			"inputs": [],
			"name": "balancerVault",
			"outputs": [
				{
					"internalType": "contract IVault",
					"name": "",
					"type": "address"
				}
			],
			"stateMutability": "view",
			"type": "function"
		},
		{
			"inputs": [],
			"name": "initiateArbitrage",
			"outputs": [],
			"stateMutability": "nonpayable",
			"type": "function"
		},
		{
			"inputs": [],
			"name": "quoter",
			"outputs": [
				{
					"internalType": "contract IQuoter",
					"name": "",
					"type": "address"
				}
			],
			"stateMutability": "view",
			"type": "function"
		},
		{
			"inputs": [
				{
					"internalType": "contract IERC20[]",
					"name": "tokens",
					"type": "address[]"
				},
				{
					"internalType": "uint256[]",
					"name": "amounts",
					"type": "uint256[]"
				},
				{
					"internalType": "uint256[]",
					"name": "feeAmounts",
					"type": "uint256[]"
				},
				{
					"internalType": "bytes",
					"name": "userData",
					"type": "bytes"
				}
			],
			"name": "receiveFlashLoan",
			"outputs": [],
			"stateMutability": "nonpayable",
			"type": "function"
		},
		{
			"inputs": [],
			"name": "sushiswapRouter",
			"outputs": [
				{
					"internalType": "contract IUniswapV2Router02",
					"name": "",
					"type": "address"
				}
			],
			"stateMutability": "view",
			"type": "function"
		},
		{
			"inputs": [],
			"name": "uniswapV2Router",
			"outputs": [
				{
					"internalType": "contract IUniswapV2Router02",
					"name": "",
					"type": "address"
				}
			],
			"stateMutability": "view",
			"type": "function"
		},
		{
			"inputs": [],
			"name": "uniswapV3Router",
			"outputs": [
				{
					"internalType": "contract ISwapRouter",
					"name": "",
					"type": "address"
				}
			],
			"stateMutability": "view",
			"type": "function"
		}
	]
}