{
  "_format": "hh-sol-artifact-1",
  "contractName": "ArbitrageBot",
  "sourceName": "contracts/ArbitrageBot.sol",
  "abi": [
    {
      "inputs": [],
      "stateMutability": "nonpayable",
      "type": "constructor"
    },
    {
      "anonymous": false,
      "inputs": [
        {
          "indexed": true,
          "internalType": "address",
          "name": "token0",
          "type": "address"
        },
        {
          "indexed": true,
          "internalType": "address",
          "name": "token1",
          "type": "address"
        },
        {
          "indexed": false,
          "internalType": "uint256",
          "name": "amountToken0",
          "type": "uint256"
        },
        {
          "indexed": false,
          "internalType": "uint256",
          "name": "amountToken1",
          "type": "uint256"
        }
      ],
      "name": "ArbitrageExecuted",
      "type": "event"
    },
    {
      "anonymous": false,
      "inputs": [
        {
          "indexed": true,
          "internalType": "address",
          "name": "token",
          "type": "address"
        },
        {
          "indexed": false,
          "internalType": "uint256",
          "name": "amount",
          "type": "uint256"
        }
      ],
      "name": "FlashLoanInitiated",
      "type": "event"
    },
    {
      "anonymous": false,
      "inputs": [
        {
          "indexed": true,
          "internalType": "address",
          "name": "token",
          "type": "address"
        },
        {
          "indexed": false,
          "internalType": "uint256",
          "name": "amount",
          "type": "uint256"
        }
      ],
      "name": "LoanRepaid",
      "type": "event"
    },
    {
      "anonymous": false,
      "inputs": [
        {
          "indexed": true,
          "internalType": "address",
          "name": "token",
          "type": "address"
        },
        {
          "indexed": false,
          "internalType": "uint256",
          "name": "profit",
          "type": "uint256"
        }
      ],
      "name": "Profit",
      "type": "event"
    },
    {
      "anonymous": false,
      "inputs": [
        {
          "indexed": true,
          "internalType": "address",
          "name": "platform",
          "type": "address"
        },
        {
          "indexed": true,
          "internalType": "address",
          "name": "tokenIn",
          "type": "address"
        },
        {
          "indexed": true,
          "internalType": "address",
          "name": "tokenOut",
          "type": "address"
        },
        {
          "indexed": false,
          "internalType": "uint256",
          "name": "amountIn",
          "type": "uint256"
        },
        {
          "indexed": false,
          "internalType": "uint256",
          "name": "amountOut",
          "type": "uint256"
        }
      ],
      "name": "SwapExecuted",
      "type": "event"
    },
    {
      "inputs": [],
      "name": "balancerVault",
      "outputs": [
        {
          "internalType": "contract IVault",
          "name": "",
          "type": "address"
        }
      ],
      "stateMutability": "view",
      "type": "function"
    },
    {
      "inputs": [
        {
          "internalType": "address[]",
          "name": "_pair",
          "type": "address[]"
        },
        {
          "internalType": "uint256",
          "name": "_quantity",
          "type": "uint256"
        },
        {
          "internalType": "uint24",
          "name": "_feeTier",
          "type": "uint24"
        },
        {
          "internalType": "uint24",
          "name": "_tradePath",
          "type": "uint24"
        }
      ],
      "name": "initiateArbitrage",
      "outputs": [],
      "stateMutability": "nonpayable",
      "type": "function"
    },
    {
      "inputs": [
        {
          "internalType": "contract IERC20[]",
          "name": "tokens",
          "type": "address[]"
        },
        {
          "internalType": "uint256[]",
          "name": "amounts",
          "type": "uint256[]"
        },
        {
          "internalType": "uint256[]",
          "name": "feeAmounts",
          "type": "uint256[]"
        },
        {
          "internalType": "bytes",
          "name": "userData",
          "type": "bytes"
        }
      ],
      "name": "receiveFlashLoan",
      "outputs": [],
      "stateMutability": "nonpayable",
      "type": "function"
    },
    {
      "inputs": [],
      "name": "sushiswapRouter",
      "outputs": [
        {
          "internalType": "contract IUniswapV2Router02",
          "name": "",
          "type": "address"
        }
      ],
      "stateMutability": "view",
      "type": "function"
    },
    {
      "inputs": [],
      "name": "uniswapV2Router",
      "outputs": [
        {
          "internalType": "contract IUniswapV2Router02",
          "name": "",
          "type": "address"
        }
      ],
      "stateMutability": "view",
      "type": "function"
    },
    {
      "inputs": [],
      "name": "uniswapV3Router",
      "outputs": [
        {
          "internalType": "contract ISwapRouter",
          "name": "",
          "type": "address"
        }
      ],
      "stateMutability": "view",
      "type": "function"
    }
  ],
  "bytecode": "0x60a060405234801561001057600080fd5b5073ba12222222228d8ba445958a75a0704d566bf2c86000806101000a81548173ffffffffffffffffffffffffffffffffffffffff021916908373ffffffffffffffffffffffffffffffffffffffff16021790555073e592427a0aece92de3edee1f18e0157c0586156473ffffffffffffffffffffffffffffffffffffffff1660808173ffffffffffffffffffffffffffffffffffffffff1681525050737a250d5630b4cf539739df2c5dacb4c659f2488d600160006101000a81548173ffffffffffffffffffffffffffffffffffffffff021916908373ffffffffffffffffffffffffffffffffffffffff160217905550731b02da8cb0d097eb8d57a175b88c7d8b47997506600260006101000a81548173ffffffffffffffffffffffffffffffffffffffff021916908373ffffffffffffffffffffffffffffffffffffffff160217905550608051612a7e610180600039600081816101630152818161115c01526112970152612a7e6000f3fe608060405234801561001057600080fd5b50600436106100625760003560e01c8063158274a5146100675780631694505e146100855780632c76d7a6146100a3578063a9ceda61146100c1578063e9240c2d146100dd578063f04f2707146100fb575b600080fd5b61006f610117565b60405161007c919061183f565b60405180910390f35b61008d61013b565b60405161009a919061187b565b60405180910390f35b6100ab610161565b6040516100b891906118b7565b60405180910390f35b6100db60048036038101906100d69190611aee565b610185565b005b6100e5610468565b6040516100f2919061187b565b60405180910390f35b61011560048036038101906101109190611dea565b61048e565b005b60008054906101000a900473ffffffffffffffffffffffffffffffffffffffff1681565b600160009054906101000a900473ffffffffffffffffffffffffffffffffffffffff1681565b7f000000000000000000000000000000000000000000000000000000000000000081565b6000600167ffffffffffffffff8111156101a2576101a16118fc565b5b6040519080825280602002602001820160405280156101d05781602001602082028036833780820191505090505b5090506000600167ffffffffffffffff8111156101f0576101ef6118fc565b5b60405190808252806020026020018201604052801561021e5781602001602082028036833780820191505090505b5090508560008151811061023557610234611ec1565b5b60200260200101518260008151811061025157610250611ec1565b5b602002602001019073ffffffffffffffffffffffffffffffffffffffff16908173ffffffffffffffffffffffffffffffffffffffff168152505084816000815181106102a05761029f611ec1565b5b60200260200101818152505080518251146102f0576040517f08c379a00000000000000000000000000000000000000000000000000000000081526004016102e790611f73565b60405180910390fd5b8160008151811061030457610303611ec1565b5b602002602001015173ffffffffffffffffffffffffffffffffffffffff167f591ad3206c771ad9f89e5fce3ba3fd39fe164da7093471fce70eaf468c495f3c8260008151811061035757610356611ec1565b5b602002602001015160405161036c9190611fa2565b60405180910390a260008054906101000a900473ffffffffffffffffffffffffffffffffffffffff1673ffffffffffffffffffffffffffffffffffffffff16635c38449e3084848a6000815181106103c7576103c6611ec1565b5b60200260200101518b6001815181106103e3576103e2611ec1565b5b60200260200101518a8a6040516020016104009493929190611fdb565b6040516020818303038152906040526040518563ffffffff1660e01b815260040161042e9493929190612257565b600060405180830381600087803b15801561044857600080fd5b505af115801561045c573d6000803e3d6000fd5b50505050505050505050565b600260009054906101000a900473ffffffffffffffffffffffffffffffffffffffff1681565b60008054906101000a900473ffffffffffffffffffffffffffffffffffffffff1673ffffffffffffffffffffffffffffffffffffffff163373ffffffffffffffffffffffffffffffffffffffff161461051c576040517f08c379a000000000000000000000000000000000000000000000000000000000815260040161051390612323565b60405180910390fd5b60008460008151811061053257610531611ec1565b5b6020026020010151905060008460008151811061055257610551611ec1565b5b60200260200101519050600080600080868060200190518101906105769190612396565b93509350935093506105be6040518060400160405280601481526020017f6465636f6465642076616c756573203a202564200000000000000000000000008152508585610b45565b6105fd6040518060400160405280601f81526020017f666c6173686c6f6e6520616d6f756e74207265636965766564203a202564200081525086610be4565b600061060c8585858986610c80565b905061064d6040518060400160405280601d81526020017f416d6f756e742072656369657665642061667465722073776170203a2000000081525082610be4565b60008573ffffffffffffffffffffffffffffffffffffffff166370a08231306040518263ffffffff1660e01b815260040161068891906123fd565b60206040518083038186803b1580156106a057600080fd5b505afa1580156106b4573d6000803e3d6000fd5b505050506040513d601f19601f820116820180604052508101906106d8919061242d565b905060008573ffffffffffffffffffffffffffffffffffffffff166370a08231306040518263ffffffff1660e01b815260040161071591906123fd565b60206040518083038186803b15801561072d57600080fd5b505afa158015610741573d6000803e3d6000fd5b505050506040513d601f19601f82011682018060405250810190610765919061242d565b90506107a66040518060400160405280601881526020017f436f6e7472617420546f6b656e302062616c616e6365203a000000000000000081525083610be4565b6107e56040518060400160405280601881526020017f436f6e7472617420546f6b656e312062616c616e6365203a000000000000000081525082610be4565b60008b6000815181106107fb576107fa611ec1565b5b60200260200101518961080e9190612489565b905083811115610853576040517f08c379a000000000000000000000000000000000000000000000000000000000815260040161084a9061252b565b60405180910390fd5b8973ffffffffffffffffffffffffffffffffffffffff1663a9059cbb60008054906101000a900473ffffffffffffffffffffffffffffffffffffffff16836040518363ffffffff1660e01b81526004016108ae92919061254b565b602060405180830381600087803b1580156108c857600080fd5b505af11580156108dc573d6000803e3d6000fd5b505050506040513d601f19601f8201168201806040525081019061090091906125ac565b508973ffffffffffffffffffffffffffffffffffffffff167fc200a1f31dd659e356e0f112c82558e25f49f7b0f84438691cd96f5cb3558823826040516109479190611fa2565b60405180910390a261098d6040518060400160405280600b81526020017f4c6f616e20526570616964000000000000000000000000000000000000000000815250611089565b60008873ffffffffffffffffffffffffffffffffffffffff166370a08231306040518263ffffffff1660e01b81526004016109c891906123fd565b60206040518083038186803b1580156109e057600080fd5b505afa1580156109f4573d6000803e3d6000fd5b505050506040513d601f19601f82011682018060405250810190610a18919061242d565b90508873ffffffffffffffffffffffffffffffffffffffff1663a9059cbb33836040518363ffffffff1660e01b8152600401610a5592919061254b565b602060405180830381600087803b158015610a6f57600080fd5b505af1158015610a83573d6000803e3d6000fd5b505050506040513d601f19601f82011682018060405250810190610aa791906125ac565b508873ffffffffffffffffffffffffffffffffffffffff167f5314098314219d6e1ce8e41fc5e6ec1ce2f06a9d583079fb6619af9bf6efdf4182604051610aee9190611fa2565b60405180910390a2610b346040518060400160405280600781526020017f50726f6669742000000000000000000000000000000000000000000000000000815250611089565b505050505050505050505050505050565b610bdf838383604051602401610b5d9392919061261d565b6040516020818303038152906040527ffcec75e0000000000000000000000000000000000000000000000000000000007bffffffffffffffffffffffffffffffffffffffffffffffffffffffff19166020820180517bffffffffffffffffffffffffffffffffffffffffffffffffffffffff8381831617835250505050611122565b505050565b610c7c8282604051602401610bfa92919061265b565b6040516020818303038152906040527fb60e72cc000000000000000000000000000000000000000000000000000000007bffffffffffffffffffffffffffffffffffffffffffffffffffffffff19166020820180517bffffffffffffffffffffffffffffffffffffffffffffffffffffffff8381831617835250505050611122565b5050565b6000610cc06040518060400160405280600881526020017f4558454355544544000000000000000000000000000000000000000000000000815250611089565b60008262ffffff16141561101f576000610cdc8787878761113c565b905060008773ffffffffffffffffffffffffffffffffffffffff166370a08231306040518263ffffffff1660e01b8152600401610d1991906123fd565b60206040518083038186803b158015610d3157600080fd5b505afa158015610d45573d6000803e3d6000fd5b505050506040513d601f19601f82011682018060405250810190610d69919061242d565b905060008773ffffffffffffffffffffffffffffffffffffffff166370a08231306040518263ffffffff1660e01b8152600401610da691906123fd565b60206040518083038186803b158015610dbe57600080fd5b505afa158015610dd2573d6000803e3d6000fd5b505050506040513d601f19601f82011682018060405250810190610df6919061242d565b9050610e376040518060400160405280601881526020017f436f6e7472617420546f6b656e302062616c616e6365203a000000000000000081525083610be4565b610e766040518060400160405280601881526020017f436f6e7472617420546f6b656e312062616c616e6365203a000000000000000081525082610be4565b610e81888a8561136d565b92508873ffffffffffffffffffffffffffffffffffffffff166370a08231306040518263ffffffff1660e01b8152600401610ebc91906123fd565b60206040518083038186803b158015610ed457600080fd5b505afa158015610ee8573d6000803e3d6000fd5b505050506040513d601f19601f82011682018060405250810190610f0c919061242d565b91508773ffffffffffffffffffffffffffffffffffffffff166370a08231306040518263ffffffff1660e01b8152600401610f4791906123fd565b60206040518083038186803b158015610f5f57600080fd5b505afa158015610f73573d6000803e3d6000fd5b505050506040513d601f19601f82011682018060405250810190610f97919061242d565b9050610fd86040518060400160405280601881526020017f436f6e7472617420546f6b656e302062616c616e6365203a000000000000000081525083610be4565b6110176040518060400160405280601881526020017f436f6e7472617420546f6b656e312062616c616e6365203a000000000000000081525082610be4565b505050611080565b61102a86868561136d565b905061106b6040518060400160405280600581526020017f416674657200000000000000000000000000000000000000000000000000000081525082610be4565b60006110798688878561113c565b9050809150505b95945050505050565b61111f8160405160240161109d919061268b565b6040516020818303038152906040527f41304fac000000000000000000000000000000000000000000000000000000007bffffffffffffffffffffffffffffffffffffffffffffffffffffffff19166020820180517bffffffffffffffffffffffffffffffffffffffffffffffffffffffff8381831617835250505050611122565b50565b6111398161113161178a6117ab565b63ffffffff16565b50565b60008473ffffffffffffffffffffffffffffffffffffffff1663095ea7b37f0000000000000000000000000000000000000000000000000000000000000000846040518363ffffffff1660e01b815260040161119992919061254b565b602060405180830381600087803b1580156111b357600080fd5b505af11580156111c7573d6000803e3d6000fd5b505050506040513d601f19601f820116820180604052508101906111eb91906125ac565b5060006040518061010001604052808773ffffffffffffffffffffffffffffffffffffffff1681526020018673ffffffffffffffffffffffffffffffffffffffff1681526020018562ffffff1681526020013073ffffffffffffffffffffffffffffffffffffffff168152602001603c426112669190612489565b815260200184815260200160008152602001600073ffffffffffffffffffffffffffffffffffffffff1681525090507f000000000000000000000000000000000000000000000000000000000000000073ffffffffffffffffffffffffffffffffffffffff1663414bf389826040518263ffffffff1660e01b81526004016112ee919061277c565b602060405180830381600087803b15801561130857600080fd5b505af115801561131c573d6000803e3d6000fd5b505050506040513d601f19601f82011682018060405250810190611340919061242d565b9150611364604051806060016040528060278152602001612a226027913983610be4565b50949350505050565b60008373ffffffffffffffffffffffffffffffffffffffff1663095ea7b3600260009054906101000a900473ffffffffffffffffffffffffffffffffffffffff16846040518363ffffffff1660e01b81526004016113cc92919061254b565b602060405180830381600087803b1580156113e657600080fd5b505af11580156113fa573d6000803e3d6000fd5b505050506040513d601f19601f8201168201806040525081019061141e91906125ac565b506000600267ffffffffffffffff81111561143c5761143b6118fc565b5b60405190808252806020026020018201604052801561146a5781602001602082028036833780820191505090505b509050848160008151811061148257611481611ec1565b5b602002602001019073ffffffffffffffffffffffffffffffffffffffff16908173ffffffffffffffffffffffffffffffffffffffff168152505083816001815181106114d1576114d0611ec1565b5b602002602001019073ffffffffffffffffffffffffffffffffffffffff16908173ffffffffffffffffffffffffffffffffffffffff16815250506000600260009054906101000a900473ffffffffffffffffffffffffffffffffffffffff1673ffffffffffffffffffffffffffffffffffffffff1663d06ca61f85846040518363ffffffff1660e01b815260040161156a929190612836565b60006040518083038186803b15801561158257600080fd5b505afa158015611596573d6000803e3d6000fd5b505050506040513d6000823e3d601f19601f820116820180604052508101906115bf91906128fd565b90506000816001815181106115d7576115d6611ec1565b5b602002602001015190506000600260009054906101000a900473ffffffffffffffffffffffffffffffffffffffff1673ffffffffffffffffffffffffffffffffffffffff166338ed173987848730426040518663ffffffff1660e01b8152600401611646959493929190612946565b600060405180830381600087803b15801561166057600080fd5b505af1158015611674573d6000803e3d6000fd5b505050506040513d6000823e3d601f19601f8201168201806040525081019061169d91906128fd565b9050806001815181106116b3576116b2611ec1565b5b602002602001015194506116df6040518060600160405280602981526020016129f96029913986610be4565b8673ffffffffffffffffffffffffffffffffffffffff168873ffffffffffffffffffffffffffffffffffffffff16600260009054906101000a900473ffffffffffffffffffffffffffffffffffffffff1673ffffffffffffffffffffffffffffffffffffffff167f764f0dc063c06f32d89a3f3af80c0db4be8a090901f589a478b447e0a51f09f189896040516117779291906129a0565b60405180910390a4505050509392505050565b60006a636f6e736f6c652e6c6f679050600080835160208501845afa505050565b6117b6819050919050565b6117be6129c9565b565b600073ffffffffffffffffffffffffffffffffffffffff82169050919050565b6000819050919050565b60006118056118006117fb846117c0565b6117e0565b6117c0565b9050919050565b6000611817826117ea565b9050919050565b60006118298261180c565b9050919050565b6118398161181e565b82525050565b60006020820190506118546000830184611830565b92915050565b60006118658261180c565b9050919050565b6118758161185a565b82525050565b6000602082019050611890600083018461186c565b92915050565b60006118a18261180c565b9050919050565b6118b181611896565b82525050565b60006020820190506118cc60008301846118a8565b92915050565b6000604051905090565b600080fd5b600080fd5b600080fd5b6000601f19601f8301169050919050565b7f4e487b7100000000000000000000000000000000000000000000000000000000600052604160045260246000fd5b611934826118eb565b810181811067ffffffffffffffff82111715611953576119526118fc565b5b80604052505050565b60006119666118d2565b9050611972828261192b565b919050565b600067ffffffffffffffff821115611992576119916118fc565b5b602082029050602081019050919050565b600080fd5b60006119b3826117c0565b9050919050565b6119c3816119a8565b81146119ce57600080fd5b50565b6000813590506119e0816119ba565b92915050565b60006119f96119f484611977565b61195c565b90508083825260208201905060208402830185811115611a1c57611a1b6119a3565b5b835b81811015611a455780611a3188826119d1565b845260208401935050602081019050611a1e565b5050509392505050565b600082601f830112611a6457611a636118e6565b5b8135611a748482602086016119e6565b91505092915050565b6000819050919050565b611a9081611a7d565b8114611a9b57600080fd5b50565b600081359050611aad81611a87565b92915050565b600062ffffff82169050919050565b611acb81611ab3565b8114611ad657600080fd5b50565b600081359050611ae881611ac2565b92915050565b60008060008060808587031215611b0857611b076118dc565b5b600085013567ffffffffffffffff811115611b2657611b256118e1565b5b611b3287828801611a4f565b9450506020611b4387828801611a9e565b9350506040611b5487828801611ad9565b9250506060611b6587828801611ad9565b91505092959194509250565b600067ffffffffffffffff821115611b8c57611b8b6118fc565b5b602082029050602081019050919050565b6000611ba8826119a8565b9050919050565b611bb881611b9d565b8114611bc357600080fd5b50565b600081359050611bd581611baf565b92915050565b6000611bee611be984611b71565b61195c565b90508083825260208201905060208402830185811115611c1157611c106119a3565b5b835b81811015611c3a5780611c268882611bc6565b845260208401935050602081019050611c13565b5050509392505050565b600082601f830112611c5957611c586118e6565b5b8135611c69848260208601611bdb565b91505092915050565b600067ffffffffffffffff821115611c8d57611c8c6118fc565b5b602082029050602081019050919050565b6000611cb1611cac84611c72565b61195c565b90508083825260208201905060208402830185811115611cd457611cd36119a3565b5b835b81811015611cfd5780611ce98882611a9e565b845260208401935050602081019050611cd6565b5050509392505050565b600082601f830112611d1c57611d1b6118e6565b5b8135611d2c848260208601611c9e565b91505092915050565b600080fd5b600067ffffffffffffffff821115611d5557611d546118fc565b5b611d5e826118eb565b9050602081019050919050565b82818337600083830152505050565b6000611d8d611d8884611d3a565b61195c565b905082815260208101848484011115611da957611da8611d35565b5b611db4848285611d6b565b509392505050565b600082601f830112611dd157611dd06118e6565b5b8135611de1848260208601611d7a565b91505092915050565b60008060008060808587031215611e0457611e036118dc565b5b600085013567ffffffffffffffff811115611e2257611e216118e1565b5b611e2e87828801611c44565b945050602085013567ffffffffffffffff811115611e4f57611e4e6118e1565b5b611e5b87828801611d07565b935050604085013567ffffffffffffffff811115611e7c57611e7b6118e1565b5b611e8887828801611d07565b925050606085013567ffffffffffffffff811115611ea957611ea86118e1565b5b611eb587828801611dbc565b91505092959194509250565b7f4e487b7100000000000000000000000000000000000000000000000000000000600052603260045260246000fd5b600082825260208201905092915050565b7f546f6b656e7320616e6420616d6f756e74732061727261792073697a65206d6960008201527f736d617463680000000000000000000000000000000000000000000000000000602082015250565b6000611f5d602683611ef0565b9150611f6882611f01565b604082019050919050565b60006020820190508181036000830152611f8c81611f50565b9050919050565b611f9c81611a7d565b82525050565b6000602082019050611fb76000830184611f93565b92915050565b611fc6816119a8565b82525050565b611fd581611ab3565b82525050565b6000608082019050611ff06000830187611fbd565b611ffd6020830186611fbd565b61200a6040830185611fcc565b6120176060830184611fcc565b95945050505050565b600061202b8261180c565b9050919050565b61203b81612020565b82525050565b600081519050919050565b600082825260208201905092915050565b6000819050602082019050919050565b60006120788261180c565b9050919050565b6120888161206d565b82525050565b600061209a838361207f565b60208301905092915050565b6000602082019050919050565b60006120be82612041565b6120c8818561204c565b93506120d38361205d565b8060005b838110156121045781516120eb888261208e565b97506120f6836120a6565b9250506001810190506120d7565b5085935050505092915050565b600081519050919050565b600082825260208201905092915050565b6000819050602082019050919050565b61214681611a7d565b82525050565b6000612158838361213d565b60208301905092915050565b6000602082019050919050565b600061217c82612111565b612186818561211c565b93506121918361212d565b8060005b838110156121c25781516121a9888261214c565b97506121b483612164565b925050600181019050612195565b5085935050505092915050565b600081519050919050565b600082825260208201905092915050565b60005b838110156122095780820151818401526020810190506121ee565b83811115612218576000848401525b50505050565b6000612229826121cf565b61223381856121da565b93506122438185602086016121eb565b61224c816118eb565b840191505092915050565b600060808201905061226c6000830187612032565b818103602083015261227e81866120b3565b905081810360408301526122928185612171565b905081810360608301526122a6818461221e565b905095945050505050565b7f43616c6c6261636b2066726f6d20756e617574686f72697a656420736f75726360008201527f6500000000000000000000000000000000000000000000000000000000000000602082015250565b600061230d602183611ef0565b9150612318826122b1565b604082019050919050565b6000602082019050818103600083015261233c81612300565b9050919050565b600061234e826117c0565b9050919050565b61235e81612343565b811461236957600080fd5b50565b60008151905061237b81612355565b92915050565b60008151905061239081611ac2565b92915050565b600080600080608085870312156123b0576123af6118dc565b5b60006123be8782880161236c565b94505060206123cf8782880161236c565b93505060406123e087828801612381565b92505060606123f187828801612381565b91505092959194509250565b60006020820190506124126000830184611fbd565b92915050565b60008151905061242781611a87565b92915050565b600060208284031215612443576124426118dc565b5b600061245184828501612418565b91505092915050565b7f4e487b7100000000000000000000000000000000000000000000000000000000600052601160045260246000fd5b600061249482611a7d565b915061249f83611a7d565b9250827fffffffffffffffffffffffffffffffffffffffffffffffffffffffffffffffff038211156124d4576124d361245a565b5b828201905092915050565b7f4e6f2070726f6669740000000000000000000000000000000000000000000000600082015250565b6000612515600983611ef0565b9150612520826124df565b602082019050919050565b6000602082019050818103600083015261254481612508565b9050919050565b60006040820190506125606000830185611fbd565b61256d6020830184611f93565b9392505050565b60008115159050919050565b61258981612574565b811461259457600080fd5b50565b6000815190506125a681612580565b92915050565b6000602082840312156125c2576125c16118dc565b5b60006125d084828501612597565b91505092915050565b600081519050919050565b60006125ef826125d9565b6125f98185611ef0565b93506126098185602086016121eb565b612612816118eb565b840191505092915050565b6000606082019050818103600083015261263781866125e4565b90506126466020830185611fbd565b6126536040830184611fbd565b949350505050565b6000604082019050818103600083015261267581856125e4565b90506126846020830184611f93565b9392505050565b600060208201905081810360008301526126a581846125e4565b905092915050565b6126b6816119a8565b82525050565b6126c581611ab3565b82525050565b6126d4816117c0565b82525050565b610100820160008201516126f160008501826126ad565b50602082015161270460208501826126ad565b50604082015161271760408501826126bc565b50606082015161272a60608501826126ad565b50608082015161273d608085018261213d565b5060a082015161275060a085018261213d565b5060c082015161276360c085018261213d565b5060e082015161277660e08501826126cb565b50505050565b60006101008201905061279260008301846126da565b92915050565b600081519050919050565b6000819050602082019050919050565b60006127bf83836126ad565b60208301905092915050565b6000602082019050919050565b60006127e382612798565b6127ed818561204c565b93506127f8836127a3565b8060005b8381101561282957815161281088826127b3565b975061281b836127cb565b9250506001810190506127fc565b5085935050505092915050565b600060408201905061284b6000830185611f93565b818103602083015261285d81846127d8565b90509392505050565b600061287961287484611c72565b61195c565b9050808382526020820190506020840283018581111561289c5761289b6119a3565b5b835b818110156128c557806128b18882612418565b84526020840193505060208101905061289e565b5050509392505050565b600082601f8301126128e4576128e36118e6565b5b81516128f4848260208601612866565b91505092915050565b600060208284031215612913576129126118dc565b5b600082015167ffffffffffffffff811115612931576129306118e1565b5b61293d848285016128cf565b91505092915050565b600060a08201905061295b6000830188611f93565b6129686020830187611f93565b818103604083015261297a81866127d8565b90506129896060830185611fbd565b6129966080830184611f93565b9695505050505050565b60006040820190506129b56000830185611f93565b6129c26020830184611f93565b9392505050565b7f4e487b7100000000000000000000000000000000000000000000000000000000600052605160045260246000fdfe53555348495357415028737761705f7375636365737329203a20746f6b656e3020616d6f756e742020554e495357415028737761705f7375636365737329203a20746f6b656e3120616d6f756e742020a2646970667358221220125006ff0e9a2753242f957194f3cd50f6dc463633cb63f3a7cfc0db94f477fe64736f6c63430008090033",
  "linkReferences": {},
  "deployedLinkReferences": {}
}